{
  "contractName": "Provider",
  "abi": [
    {
      "constant": true,
      "inputs": [],
      "name": "owner",
      "outputs": [
        {
          "name": "",
          "type": "address"
        }
      ],
      "payable": false,
      "stateMutability": "view",
      "type": "function",
      "signature": "0x8da5cb5b"
    },
    {
      "constant": false,
      "inputs": [
        {
          "name": "newOwner",
          "type": "address"
        }
      ],
      "name": "transferOwnership",
      "outputs": [],
      "payable": false,
      "stateMutability": "nonpayable",
      "type": "function",
      "signature": "0xf2fde38b"
    },
    {
      "anonymous": false,
      "inputs": [
        {
          "indexed": true,
          "name": "previousOwner",
          "type": "address"
        },
        {
          "indexed": true,
          "name": "newOwner",
          "type": "address"
        }
      ],
      "name": "OwnershipTransferred",
      "type": "event",
      "signature": "0x8be0079c531659141344cd1fd0a4f28419497f9722a3daafe3b4186f6b6457e0"
    },
    {
      "constant": true,
      "inputs": [],
      "name": "getPendingEvents",
      "outputs": [
        {
          "name": "",
          "type": "bytes32[]"
        }
      ],
      "payable": false,
      "stateMutability": "view",
      "type": "function",
      "signature": "0xb4184e70"
    },
    {
      "constant": true,
      "inputs": [],
      "name": "getAllEvents",
      "outputs": [
        {
          "name": "",
          "type": "bytes32[]"
        }
      ],
      "payable": false,
      "stateMutability": "view",
      "type": "function",
      "signature": "0xc27a500d"
    },
    {
      "constant": true,
      "inputs": [
        {
          "name": "_eventId",
          "type": "bytes32"
        }
      ],
      "name": "eventExists",
      "outputs": [
        {
          "name": "",
          "type": "bool"
        }
      ],
      "payable": false,
      "stateMutability": "view",
      "type": "function",
      "signature": "0x118e58bd"
    },
    {
      "constant": true,
      "inputs": [
        {
          "name": "_eventId",
          "type": "bytes32"
        }
      ],
      "name": "getEvent",
      "outputs": [
        {
          "name": "eventId",
          "type": "bytes32"
        },
        {
          "name": "name",
          "type": "string"
        },
        {
          "name": "state",
          "type": "uint8"
        },
        {
          "name": "date",
          "type": "uint256"
        },
        {
          "name": "options",
          "type": "string"
        },
        {
          "name": "optionCount",
          "type": "uint8"
        },
        {
          "name": "outcome",
          "type": "uint8"
        }
      ],
      "payable": false,
      "stateMutability": "view",
      "type": "function",
      "signature": "0x8c172fa2"
    },
    {
      "constant": false,
      "inputs": [
        {
          "name": "_name",
          "type": "string"
        },
        {
          "name": "_date",
          "type": "uint256"
        },
        {
          "name": "_options",
          "type": "string"
        },
        {
          "name": "_optionCount",
          "type": "uint8"
        }
      ],
      "name": "addEvent",
      "outputs": [
        {
          "name": "",
          "type": "bytes32"
        }
      ],
      "payable": false,
      "stateMutability": "nonpayable",
      "type": "function",
      "signature": "0x9501cec4"
    },
    {
      "constant": false,
      "inputs": [
        {
          "name": "_eventId",
          "type": "bytes32"
        }
      ],
      "name": "cancelEvent",
      "outputs": [],
      "payable": false,
      "stateMutability": "nonpayable",
      "type": "function",
      "signature": "0xaa26176c"
    },
    {
      "constant": false,
      "inputs": [
        {
          "name": "_eventId",
          "type": "bytes32"
        }
      ],
      "name": "lockEvent",
      "outputs": [],
      "payable": false,
      "stateMutability": "nonpayable",
      "type": "function",
      "signature": "0xc7b3aa3c"
    },
    {
      "constant": false,
      "inputs": [
        {
          "name": "_eventId",
          "type": "bytes32"
        },
        {
          "name": "_outcome",
          "type": "uint8"
        }
      ],
      "name": "completeEvent",
      "outputs": [],
      "payable": false,
      "stateMutability": "nonpayable",
      "type": "function",
      "signature": "0x27afc7ae"
    },
    {
      "constant": true,
      "inputs": [],
      "name": "testConnection",
      "outputs": [
        {
          "name": "",
          "type": "bool"
        }
      ],
      "payable": false,
      "stateMutability": "pure",
      "type": "function",
      "signature": "0x3412a15c"
    },
    {
      "constant": false,
      "inputs": [],
      "name": "addTestData",
      "outputs": [],
      "payable": false,
      "stateMutability": "nonpayable",
      "type": "function",
      "signature": "0xa212b454"
    },
    {
      "constant": true,
      "inputs": [],
      "name": "getAddress",
      "outputs": [
        {
          "name": "",
          "type": "address"
        }
      ],
      "payable": false,
      "stateMutability": "view",
      "type": "function",
      "signature": "0x38cc4831"
    }
  ],
  "bytecode": "0x6080604052336000806101000a81548173ffffffffffffffffffffffffffffffffffffffff021916908373ffffffffffffffffffffffffffffffffffffffff160217905550612028806100536000396000f3fe6080604052600436106100c5576000357c0100000000000000000000000000000000000000000000000000000000900463ffffffff168063118e58bd146100ca57806327afc7ae1461011d5780633412a15c1461016557806338cc4831146101945780638c172fa2146101eb5780638da5cb5b146103485780639501cec41461039f578063a212b45414610529578063aa26176c14610540578063b4184e701461057b578063c27a500d146105e7578063c7b3aa3c14610653578063f2fde38b1461068e575b600080fd5b3480156100d657600080fd5b50610103600480360360208110156100ed57600080fd5b81019080803590602001909291905050506106df565b604051808215151515815260200191505060405180910390f35b34801561012957600080fd5b506101636004803603604081101561014057600080fd5b8101908080359060200190929190803560ff16906020019092919050505061071c565b005b34801561017157600080fd5b5061017a610962565b604051808215151515815260200191505060405180910390f35b3480156101a057600080fd5b506101a961096b565b604051808273ffffffffffffffffffffffffffffffffffffffff1673ffffffffffffffffffffffffffffffffffffffff16815260200191505060405180910390f35b3480156101f757600080fd5b506102246004803603602081101561020e57600080fd5b8101908080359060200190929190505050610973565b604051808881526020018060200187600481111561023e57fe5b60ff168152602001868152602001806020018560ff1660ff1681526020018460ff1660ff168152602001838103835289818151815260200191508051906020019080838360005b838110156102a0578082015181840152602081019050610285565b50505050905090810190601f1680156102cd5780820380516001836020036101000a031916815260200191505b50838103825286818151815260200191508051906020019080838360005b838110156103065780820151818401526020810190506102eb565b50505050905090810190601f1680156103335780820380516001836020036101000a031916815260200191505b50995050505050505050505060405180910390f35b34801561035457600080fd5b5061035d610ba3565b604051808273ffffffffffffffffffffffffffffffffffffffff1673ffffffffffffffffffffffffffffffffffffffff16815260200191505060405180910390f35b3480156103ab57600080fd5b50610513600480360360808110156103c257600080fd5b81019080803590602001906401000000008111156103df57600080fd5b8201836020820111156103f157600080fd5b8035906020019184600183028401116401000000008311171561041357600080fd5b91908080601f016020809104026020016040519081016040528093929190818152602001838380828437600081840152601f19601f820116905080830192505050505050509192919290803590602001909291908035906020019064010000000081111561048057600080fd5b82018360208201111561049257600080fd5b803590602001918460018302840111640100000000831117156104b457600080fd5b91908080601f016020809104026020016040519081016040528093929190818152602001838380828437600081840152601f19601f820116905080830192505050505050509192919290803560ff169060200190929190505050610bc8565b6040518082815260200191505060405180910390f35b34801561053557600080fd5b5061053e610f05565b005b34801561054c57600080fd5b506105796004803603602081101561056357600080fd5b8101908080359060200190929190505050611423565b005b34801561058757600080fd5b5061059061164b565b6040518080602001828103825283818151815260200191508051906020019060200280838360005b838110156105d35780820151818401526020810190506105b8565b505050509050019250505060405180910390f35b3480156105f357600080fd5b506105fc6117cb565b6040518080602001828103825283818151815260200191508051906020019060200280838360005b8381101561063f578082015181840152602081019050610624565b505050509050019250505060405180910390f35b34801561065f57600080fd5b5061068c6004803603602081101561067657600080fd5b8101908080359060200190929190505050611889565b005b34801561069a57600080fd5b506106dd600480360360208110156106b157600080fd5b81019080803573ffffffffffffffffffffffffffffffffffffffff169060200190929190505050611a7f565b005b60008060018054905014156106f75760009050610717565b600060026000848152602001908152602001600020549050600081119150505b919050565b6000809054906101000a900473ffffffffffffffffffffffffffffffffffffffff1673ffffffffffffffffffffffffffffffffffffffff163373ffffffffffffffffffffffffffffffffffffffff1614151561077757600080fd5b610780826106df565b15156107f4576040517f08c379a000000000000000000000000000000000000000000000000000000000815260040180806020018281038252600f8152602001807f6576656e74206e6f7420666f756e64000000000000000000000000000000000081525060200191505060405180910390fd5b60006107ff83611bd4565b9050600060018281548110151561081257fe5b906000526020600020906006020190506001600481111561082f57fe5b8160030160009054906101000a900460ff16600481111561084c57fe5b148061087f57506002600481111561086057fe5b8160030160009054906101000a900460ff16600481111561087d57fe5b145b1515610919576040517f08c379a00000000000000000000000000000000000000000000000000000000081526004018080602001828103825260288152602001807f696e76616c6964207374617274696e6720737461746520746f20636f6d706c6581526020017f7465206576656e7400000000000000000000000000000000000000000000000081525060400191505060405180910390fd5b828160050160016101000a81548160ff021916908360ff16021790555060038160030160006101000a81548160ff0219169083600481111561095757fe5b021790555050505050565b60006001905090565b600030905090565b600060606000806060600080610988886106df565b15610b4a576000600161099a8a611bd4565b8154811015156109a657fe5b906000526020600020906006020190508060000154816001018260030160009054906101000a900460ff168360020154846004018560050160009054906101000a900460ff168660050160019054906101000a900460ff16858054600181600116156101000203166002900480601f016020809104026020016040519081016040528092919081815260200182805460018160011615610100020316600290048015610a935780601f10610a6857610100808354040283529160200191610a93565b820191906000526020600020905b815481529060010190602001808311610a7657829003601f168201915b50505050509550828054600181600116156101000203166002900480601f016020809104026020016040519081016040528092919081815260200182805460018160011615610100020316600290048015610b2f5780601f10610b0457610100808354040283529160200191610b2f565b820191906000526020600020905b815481529060010190602001808311610b1257829003601f168201915b50505050509250975097509750975097509750975050610b98565b60008060008060008460010294506020604051908101604052806000815250939291908292506020604051908101604052806000815250919081915080905096509650965096509650965096505b919395979092949650565b6000809054906101000a900473ffffffffffffffffffffffffffffffffffffffff1681565b60008060009054906101000a900473ffffffffffffffffffffffffffffffffffffffff1673ffffffffffffffffffffffffffffffffffffffff163373ffffffffffffffffffffffffffffffffffffffff16141515610c2557600080fd5b6000858484876040516020018085805190602001908083835b602083101515610c635780518252602082019150602081019050602083039250610c3e565b6001836020036101000a03801982511681845116808217855250505050505090500184805190602001908083835b602083101515610cb65780518252602082019150602081019050602083039250610c91565b6001836020036101000a0380198251168184511680821785525050505050509050018360ff1660ff167f0100000000000000000000000000000000000000000000000000000000000000028152600101828152602001945050505050604051602081830303815290604052805190602001209050610d33816106df565b151515610da8576040517f08c379a00000000000000000000000000000000000000000000000000000000081526004018080602001828103825260168152602001807f6475706c6963617465206576656e74206578697374730000000000000000000081525060200191505060405180910390fd5b600060018060e0604051908101604052808581526020018a815260200189815260200160016004811115610dd857fe5b81526020018881526020018760ff168152602001600060ff1681525090806001815401808255809150509060018203906000526020600020906006020160009091929091909150600082015181600001556020820151816001019080519060200190610e45929190611f33565b506040820151816002015560608201518160030160006101000a81548160ff02191690836004811115610e7457fe5b02179055506080820151816004019080519060200190610e95929190611f33565b5060a08201518160050160006101000a81548160ff021916908360ff16021790555060c08201518160050160016101000a81548160ff021916908360ff16021790555050500390506001810160026000848152602001908152602001600020819055508192505050949350505050565b6000809054906101000a900473ffffffffffffffffffffffffffffffffffffffff1673ffffffffffffffffffffffffffffffffffffffff163373ffffffffffffffffffffffffffffffffffffffff16141515610f6057600080fd5b611062606060405190810160405280603881526020017f77696c6c20446f6e616c64205472756d70206765742072652d656c656374656481526020017f20617320707265736964656e74206f66207468652055533f0000000000000000815250611025610100604051908101604052806107e461ffff168152602001600160ff168152602001601e60ff168152602001600060ff168152602001600060ff168152602001600060ff168152602001600060ff168152602001600060ff16815250611bf4565b6040805190810160405280600681526020017f7965737c6e6f00000000000000000000000000000000000000000000000000008152506002610bc8565b50611165606060405190810160405280602481526020017f5368616d75732076732e2054657277696c6c69676572204e6f76656d6265722081526020017f3230313900000000000000000000000000000000000000000000000000000000815250611128610100604051908101604052806107e461ffff168152602001600160ff168152602001601e60ff168152602001600060ff168152602001600060ff168152602001600060ff168152602001600060ff168152602001600060ff16815250611bf4565b6040805190810160405280601681526020017f5368616d75737c54657277696c6c696765727c746965000000000000000000008152506003610bc8565b506112416040805190810160405280601481526020017f526f636b792076732e20447261676f2031393834000000000000000000000000815250611204610100604051908101604052806107c061ffff168152602001600160ff168152602001601e60ff168152602001600060ff168152602001600060ff168152602001600060ff168152602001600060ff168152602001600060ff16815250611bf4565b6040805190810160405280600f81526020017f526f636b797c447261676f7c74696500000000000000000000000000000000008152506003610bc8565b506113446040805190810160405280601681526020017f537570657220426f776c2057696e6e65722032303230000000000000000000008152506112e0610100604051908101604052806107e461ffff168152602001600260ff168152602001601860ff168152602001600060ff168152602001600060ff168152602001600060ff168152602001600060ff168152602001600060ff16815250611bf4565b606060405190810160405280603d81526020017f42726f6e636f737c50617472696f74737c43797072696f74737c486f6f73696581526020017f72737c526173707574696e737c42756c6c727573686572737c6e6f6e650000008152506007610bc8565b506114206040805190810160405280601b81526020017f77696c6c2074686520776f726c6420656e6420696e20323032343f00000000008152506113e3610100604051908101604052806107e861ffff168152602001600160ff168152602001600160ff168152602001600060ff168152602001600060ff168152602001600060ff168152602001600060ff168152602001600060ff16815250611bf4565b6040805190810160405280600681526020017f7965737c6e6f00000000000000000000000000000000000000000000000000008152506002610bc8565b50565b6000809054906101000a900473ffffffffffffffffffffffffffffffffffffffff1673ffffffffffffffffffffffffffffffffffffffff163373ffffffffffffffffffffffffffffffffffffffff1614151561147e57600080fd5b611487816106df565b15156114fb576040517f08c379a000000000000000000000000000000000000000000000000000000000815260040180806020018281038252600f8152602001807f6576656e74206e6f7420666f756e64000000000000000000000000000000000081525060200191505060405180910390fd5b600061150682611bd4565b9050600060018281548110151561151957fe5b906000526020600020906006020190506001600481111561153657fe5b8160030160009054906101000a900460ff16600481111561155357fe5b148061158657506002600481111561156757fe5b8160030160009054906101000a900460ff16600481111561158457fe5b145b1515611620576040517f08c379a000000000000000000000000000000000000000000000000000000000815260040180806020018281038252602e8152602001807f6f6e6c792070656e64696e67206f72206c6f636b6564206576656e7473206d6181526020017f792062652063616e63656c6c656400000000000000000000000000000000000081525060400191505060405180910390fd5b60048160030160006101000a81548160ff0219169083600481111561164157fe5b0217905550505050565b6060600080905060008090505b6001805490508110156116c7576001600481111561167257fe5b60018281548110151561168157fe5b906000526020600020906006020160030160009054906101000a900460ff1660048111156116ab57fe5b14156116ba5781806001019250505b8080600101915050611658565b506060816040519080825280602002602001820160405280156116f95781602001602082028038833980820191505090505b50905060008211156117c3576000809050600060018054905090505b60008111156117c0576001600481111561172b57fe5b600180830381548110151561173c57fe5b906000526020600020906006020160030160009054906101000a900460ff16600481111561176657fe5b14156117b257600180820381548110151561177d57fe5b90600052602060002090600602016000015483838060010194508151811015156117a357fe5b90602001906020020181815250505b808060019003915050611715565b50505b809250505090565b6060806001805490506040519080825280602002602001820160405280156118025781602001602082028038833980820191505090505b50905060006001805490501115611882576000809050600060018054905090505b600081111561187f57600180820381548110151561183d57fe5b906000526020600020906006020160000154838380600101945081518110151561186357fe5b9060200190602002018181525050808060019003915050611823565b50505b8091505090565b6000809054906101000a900473ffffffffffffffffffffffffffffffffffffffff1673ffffffffffffffffffffffffffffffffffffffff163373ffffffffffffffffffffffffffffffffffffffff161415156118e457600080fd5b6118ed816106df565b1515611961576040517f08c379a000000000000000000000000000000000000000000000000000000000815260040180806020018281038252600f8152602001807f6576656e74206e6f7420666f756e64000000000000000000000000000000000081525060200191505060405180910390fd5b600061196c82611bd4565b9050600060018281548110151561197f57fe5b906000526020600020906006020190506001600481111561199c57fe5b8160030160009054906101000a900460ff1660048111156119b957fe5b141515611a54576040517f08c379a00000000000000000000000000000000000000000000000000000000081526004018080602001828103825260218152602001807f6f6e6c792070656e64696e67206576656e7473206d6179206265206c6f636b6581526020017f640000000000000000000000000000000000000000000000000000000000000081525060400191505060405180910390fd5b60028160030160006101000a81548160ff02191690836004811115611a7557fe5b0217905550505050565b6000809054906101000a900473ffffffffffffffffffffffffffffffffffffffff1673ffffffffffffffffffffffffffffffffffffffff163373ffffffffffffffffffffffffffffffffffffffff16141515611ada57600080fd5b600073ffffffffffffffffffffffffffffffffffffffff168173ffffffffffffffffffffffffffffffffffffffff1614151515611b1657600080fd5b8073ffffffffffffffffffffffffffffffffffffffff166000809054906101000a900473ffffffffffffffffffffffffffffffffffffffff1673ffffffffffffffffffffffffffffffffffffffff167f8be0079c531659141344cd1fd0a4f28419497f9722a3daafe3b4186f6b6457e060405160405180910390a3806000806101000a81548173ffffffffffffffffffffffffffffffffffffffff021916908373ffffffffffffffffffffffffffffffffffffffff16021790555050565b600060016002600084815260200190815260200160002054039050919050565b6000806107b290505b826000015161ffff168161ffff161015611c4457611c1a81611eb2565b15611c2d576301e2850082019150611c37565b6301e13380820191505b8080600101915050611bfd565b611c4c611fb3565b601f816000600c81101515611c5d57fe5b602002019060ff16908160ff1681525050611c7b8460000151611eb2565b15611ca757601d816001600c81101515611c9157fe5b602002019060ff16908160ff1681525050611cca565b601c816001600c81101515611cb857fe5b602002019060ff16908160ff16815250505b601f816002600c81101515611cdb57fe5b602002019060ff16908160ff1681525050601e816003600c81101515611cfd57fe5b602002019060ff16908160ff1681525050601f816004600c81101515611d1f57fe5b602002019060ff16908160ff1681525050601e816005600c81101515611d4157fe5b602002019060ff16908160ff1681525050601f816006600c81101515611d6357fe5b602002019060ff16908160ff1681525050601f816007600c81101515611d8557fe5b602002019060ff16908160ff1681525050601e816008600c81101515611da757fe5b602002019060ff16908160ff1681525050601f816009600c81101515611dc957fe5b602002019060ff16908160ff1681525050601e81600a600c81101515611deb57fe5b602002019060ff16908160ff1681525050601f81600b600c81101515611e0d57fe5b602002019060ff16908160ff1681525050600191505b836020015160ff168261ffff161015611e6957806001830361ffff16600c81101515611e4b57fe5b602002015160ff166201518002830192508180600101925050611e23565b600184604001510360ff16620151800283019250836060015160ff16610e100283019250836080015160ff16603c02830192508360a0015160ff16830192508292505050919050565b60008060048361ffff16811515611ec557fe5b0661ffff16141515611eda5760009050611f2e565b600060648361ffff16811515611eec57fe5b0661ffff16141515611f015760019050611f2e565b60006101908361ffff16811515611f1457fe5b0661ffff16141515611f295760009050611f2e565b600190505b919050565b828054600181600116156101000203166002900490600052602060002090601f016020900481019282601f10611f7457805160ff1916838001178555611fa2565b82800160010185558215611fa2579182015b82811115611fa1578251825591602001919060010190611f86565b5b509050611faf9190611fd7565b5090565b61018060405190810160405280600c90602082028038833980820191505090505090565b611ff991905b80821115611ff5576000816000905550600101611fdd565b5090565b9056fea165627a7a7230582037c50532406e6df055d092ef99018cfc8a0705d7a57141f32d7c5a13e56cd33c0029",
  "source": "pragma solidity ^0.5.0;\n\nimport \"./DateLib.sol\";\nimport \"./Ownable.sol\";\nimport \"./ProviderInterface.sol\";\n\n//TODO: enforce max number of bettable options (100?) \n\ncontract Provider is ProviderInterface, Ownable {\n    Event[] events; \n    mapping(bytes32 => uint) eventIdToIndex; \n\n    //defines a event along with its outcome\n    struct Event {\n        bytes32 eventId;\n        string name;\n        uint date; \n        ProviderInterface.EventState state;\n        string options;\n        uint8 optionCount; \n        uint8 outcome;\n    }\n\n    using DateLib for DateLib.DateTime;\n\n    //gets a list of ids of all events which are in state Pending\n    function getPendingEvents() public view returns (bytes32[] memory) {\n        uint count = 0; \n\n        //TODO: this might cost alot of gas\n\n        //get count of pending events \n        for (uint i = 0; i < events.length; i++) {\n            if (events[i].state == EventState.Pending) \n                count++; \n        }\n\n        //collect up all the pending events\n        bytes32[] memory output = new bytes32[](count); \n\n        if (count > 0) {\n            uint index = 0;\n            for (uint n = events.length; n > 0; n--) {\n                if (events[n-1].state == EventState.Pending) \n                    output[index++] = events[n-1].eventId;\n            }\n        } \n\n        return output; \n    }\n\n    //gets a list of ids of all events, pending or not\n    function getAllEvents() public view returns (bytes32[] memory) {\n        bytes32[] memory output = new bytes32[](events.length); \n\n        //TODO: this might cost alot of gas; could it be stored instead?\n\n        //get all ids \n        if (events.length > 0) {\n            uint index = 0;\n            for (uint n = events.length; n > 0; n--) {\n                output[index++] = events[n-1].eventId;\n            }\n        }\n        \n        return output; \n    }\n\n    //returns true if the given event id is valid and corresponds to an event\n    function eventExists(bytes32 _eventId) public view returns (bool) {\n        if (events.length == 0)\n            return false;\n        uint index = eventIdToIndex[_eventId]; \n        return (index > 0); \n    }\n\n    //gets the event details for the given event id \n    function getEvent(bytes32 _eventId) public view returns (\n        bytes32 eventId,\n        string memory name,\n        EventState state, \n        uint date, \n        string memory options,\n        uint8 optionCount,\n        uint8 outcome) {\n        \n        //get the match \n        if (eventExists(_eventId)) {\n            Event storage evt = events[_getEventIndex(_eventId)];\n            return (evt.eventId, evt.name, evt.state, evt.date, evt.options, evt.optionCount, evt.outcome); \n        }\n        else {\n            return (0, \"\", ProviderInterface.EventState.Unknown, 0, \"\", 0, 0); \n        }\n    }\n\n    //adds a new event into the system \n    function addEvent(string memory _name, uint _date, string memory _options, uint8 _optionCount) public onlyOwner returns (bytes32) {\n\n        //hash the crucial info to get a unique id \n        bytes32 id = keccak256(abi.encodePacked(_name, _options, _optionCount, _date)); \n\n        //require that the match be unique (not already added) \n        require(!eventExists(id), \"duplicate event exists\");\n        \n        //add the match \n        uint newIndex = events.push(Event(id, _name, _date, EventState.Pending, _options, _optionCount, 0))-1; \n        eventIdToIndex[id] = newIndex+1;\n        \n        //return the unique id of the new match\n        return id;\n    }\n\n    //cancels an event \n    function cancelEvent(bytes32 _eventId) onlyOwner external {\n        require(eventExists(_eventId), \"event not found\");\n        uint index = _getEventIndex(_eventId);\n        Event storage evt = events[index]; \n        require(evt.state == EventState.Pending || evt.state == EventState.Locked, \"only pending or locked events may be cancelled\"); \n        evt.state = EventState.Cancelled;\n    }\n\n    //locks an event - no more bets can be placed \n    function lockEvent(bytes32 _eventId) onlyOwner external {\n        require(eventExists(_eventId), \"event not found\"); \n        uint index = _getEventIndex(_eventId);\n        Event storage evt = events[index]; \n        require(evt.state == EventState.Pending, \"only pending events may be locked\"); \n        evt.state = EventState.Locked;\n    }\n\n    //declares the outcome of an event and sets its state to Completed \n    function completeEvent(bytes32 _eventId, uint8 _outcome) onlyOwner external {\n\n        //require that it exists\n        require(eventExists(_eventId), \"event not found\"); \n\n        //get the match \n        uint index = _getEventIndex(_eventId);\n        Event storage evt = events[index]; \n\n        //make sure that match is pending (outcome not already declared)\n        require(evt.state == EventState.Pending || evt.state == EventState.Locked, \"invalid starting state to complete event\"); \n        \n        //set the outcome\n        evt.outcome = _outcome;\n\n        //set the outcome \n        evt.state = EventState.Completed;\n    }\n\n\n    // -- PRIVATE METHODS --\n\n    function _getEventIndex(bytes32 _eventId) private view returns (uint) {\n        return eventIdToIndex[_eventId]-1; \n    }\n\n\n    // -- TEST FUNCTIONS --\n\n    function testConnection() public pure returns (bool) {\n        return true;\n    }\n\n    function addTestData() public onlyOwner {\n        addEvent(\"will Donald Trump get re-elected as president of the US?\", DateLib.DateTime(2020, 1, 30, 0, 0, 0, 0, 0).toUnixTimestamp(), \"yes|no\", 2);\n        addEvent(\"Shamus vs. Terwilliger November 2019\", DateLib.DateTime(2020, 1, 30, 0, 0, 0, 0, 0).toUnixTimestamp(), \"Shamus|Terwilliger|tie\", 3);\n        addEvent(\"Rocky vs. Drago 1984\", DateLib.DateTime(1984, 1, 30, 0, 0, 0, 0, 0).toUnixTimestamp(), \"Rocky|Drago|tie\", 3); \n        addEvent(\"Super Bowl Winner 2020\", DateLib.DateTime(2020, 2, 24, 0, 0, 0, 0, 0).toUnixTimestamp(), \"Broncos|Patriots|Cypriots|Hoosiers|Rasputins|Bullrushers|none\", 7); \n        addEvent(\"will the world end in 2024?\", DateLib.DateTime(2024, 1, 1, 0, 0, 0, 0, 0).toUnixTimestamp(), \"yes|no\", 2);\n    }\n\n    function getAddress() public view returns (address) {\n        return address(this); \n    }\n}",
  "sourcePath": "/home/acer/Desktop/anybet/code/contracts/provider-example/contracts/Provider.sol",
  "compiler": {
    "name": "solc",
    "version": "0.5.0+commit.1d4f565a.Emscripten.clang"
  },
  "schemaVersion": "3.0.0",
  "updatedAt": "2019-04-05T07:33:50.392Z",
  "devdoc": {
    "methods": {
      "transferOwnership(address)": {
        "details": "Allows the current owner to transfer control of the contract to a newOwner.",
        "params": {
          "newOwner": "The address to transfer ownership to."
        }
      }
    }
  },
  "userdoc": {
    "methods": {}
  }
}