{
  "contractName": "Provider",
  "abi": [
    {
      "constant": true,
      "inputs": [],
      "name": "owner",
      "outputs": [
        {
          "name": "",
          "type": "address"
        }
      ],
      "payable": false,
      "stateMutability": "view",
      "type": "function",
      "signature": "0x8da5cb5b"
    },
    {
      "constant": false,
      "inputs": [
        {
          "name": "newOwner",
          "type": "address"
        }
      ],
      "name": "transferOwnership",
      "outputs": [],
      "payable": false,
      "stateMutability": "nonpayable",
      "type": "function",
      "signature": "0xf2fde38b"
    },
    {
      "anonymous": false,
      "inputs": [
        {
          "indexed": true,
          "name": "previousOwner",
          "type": "address"
        },
        {
          "indexed": true,
          "name": "newOwner",
          "type": "address"
        }
      ],
      "name": "OwnershipTransferred",
      "type": "event",
      "signature": "0x8be0079c531659141344cd1fd0a4f28419497f9722a3daafe3b4186f6b6457e0"
    },
    {
      "constant": true,
      "inputs": [],
      "name": "getPendingEvents",
      "outputs": [
        {
          "name": "",
          "type": "bytes32[]"
        }
      ],
      "payable": false,
      "stateMutability": "view",
      "type": "function",
      "signature": "0xb4184e70"
    },
    {
      "constant": true,
      "inputs": [],
      "name": "getAllEvents",
      "outputs": [
        {
          "name": "",
          "type": "bytes32[]"
        }
      ],
      "payable": false,
      "stateMutability": "view",
      "type": "function",
      "signature": "0xc27a500d"
    },
    {
      "constant": true,
      "inputs": [
        {
          "name": "_eventId",
          "type": "bytes32"
        }
      ],
      "name": "eventExists",
      "outputs": [
        {
          "name": "",
          "type": "bool"
        }
      ],
      "payable": false,
      "stateMutability": "view",
      "type": "function",
      "signature": "0x118e58bd"
    },
    {
      "constant": false,
      "inputs": [
        {
          "name": "_name",
          "type": "string"
        },
        {
          "name": "_date",
          "type": "uint256"
        },
        {
          "name": "_options",
          "type": "string"
        },
        {
          "name": "_optionCount",
          "type": "uint8"
        }
      ],
      "name": "addEvent",
      "outputs": [
        {
          "name": "",
          "type": "bytes32"
        }
      ],
      "payable": false,
      "stateMutability": "nonpayable",
      "type": "function",
      "signature": "0x9501cec4"
    },
    {
      "constant": false,
      "inputs": [
        {
          "name": "_eventId",
          "type": "bytes32"
        }
      ],
      "name": "cancelEvent",
      "outputs": [],
      "payable": false,
      "stateMutability": "nonpayable",
      "type": "function",
      "signature": "0xaa26176c"
    },
    {
      "constant": false,
      "inputs": [
        {
          "name": "_eventId",
          "type": "bytes32"
        }
      ],
      "name": "lockEvent",
      "outputs": [],
      "payable": false,
      "stateMutability": "nonpayable",
      "type": "function",
      "signature": "0xc7b3aa3c"
    },
    {
      "constant": false,
      "inputs": [
        {
          "name": "_eventId",
          "type": "bytes32"
        },
        {
          "name": "_outcome",
          "type": "uint8"
        }
      ],
      "name": "completeEvent",
      "outputs": [],
      "payable": false,
      "stateMutability": "nonpayable",
      "type": "function",
      "signature": "0x27afc7ae"
    },
    {
      "constant": true,
      "inputs": [
        {
          "name": "_eventId",
          "type": "bytes32"
        }
      ],
      "name": "getEvent",
      "outputs": [
        {
          "name": "eventId",
          "type": "bytes32"
        },
        {
          "name": "name",
          "type": "string"
        },
        {
          "name": "state",
          "type": "uint8"
        },
        {
          "name": "date",
          "type": "uint256"
        },
        {
          "name": "options",
          "type": "string"
        },
        {
          "name": "optionCount",
          "type": "uint8"
        },
        {
          "name": "outcome",
          "type": "uint8"
        }
      ],
      "payable": false,
      "stateMutability": "view",
      "type": "function",
      "signature": "0x8c172fa2"
    },
    {
      "constant": true,
      "inputs": [],
      "name": "testConnection",
      "outputs": [
        {
          "name": "",
          "type": "bool"
        }
      ],
      "payable": false,
      "stateMutability": "pure",
      "type": "function",
      "signature": "0x3412a15c"
    },
    {
      "constant": false,
      "inputs": [],
      "name": "addTestData",
      "outputs": [],
      "payable": false,
      "stateMutability": "nonpayable",
      "type": "function",
      "signature": "0xa212b454"
    }
  ],
  "bytecode": "0x6080604052336000806101000a81548173ffffffffffffffffffffffffffffffffffffffff021916908373ffffffffffffffffffffffffffffffffffffffff160217905550611a42806100536000396000f3fe6080604052600436106100ba576000357c0100000000000000000000000000000000000000000000000000000000900463ffffffff168063118e58bd146100bf57806327afc7ae146101125780633412a15c1461015a5780638c172fa2146101895780638da5cb5b146102e65780639501cec41461033d578063a212b454146104c7578063aa26176c146104de578063b4184e7014610519578063c27a500d14610585578063c7b3aa3c146105f1578063f2fde38b1461062c575b600080fd5b3480156100cb57600080fd5b506100f8600480360360208110156100e257600080fd5b810190808035906020019092919050505061067d565b604051808215151515815260200191505060405180910390f35b34801561011e57600080fd5b506101586004803603604081101561013557600080fd5b8101908080359060200190929190803560ff1690602001909291905050506106ba565b005b34801561016657600080fd5b5061016f6108a5565b604051808215151515815260200191505060405180910390f35b34801561019557600080fd5b506101c2600480360360208110156101ac57600080fd5b81019080803590602001909291905050506108ae565b60405180888152602001806020018760048111156101dc57fe5b60ff168152602001868152602001806020018560ff1660ff1681526020018460ff1660ff168152602001838103835289818151815260200191508051906020019080838360005b8381101561023e578082015181840152602081019050610223565b50505050905090810190601f16801561026b5780820380516001836020036101000a031916815260200191505b50838103825286818151815260200191508051906020019080838360005b838110156102a4578082015181840152602081019050610289565b50505050905090810190601f1680156102d15780820380516001836020036101000a031916815260200191505b50995050505050505050505060405180910390f35b3480156102f257600080fd5b506102fb610ade565b604051808273ffffffffffffffffffffffffffffffffffffffff1673ffffffffffffffffffffffffffffffffffffffff16815260200191505060405180910390f35b34801561034957600080fd5b506104b16004803603608081101561036057600080fd5b810190808035906020019064010000000081111561037d57600080fd5b82018360208201111561038f57600080fd5b803590602001918460018302840111640100000000831117156103b157600080fd5b91908080601f016020809104026020016040519081016040528093929190818152602001838380828437600081840152601f19601f820116905080830192505050505050509192919290803590602001909291908035906020019064010000000081111561041e57600080fd5b82018360208201111561043057600080fd5b8035906020019184600183028401116401000000008311171561045257600080fd5b91908080601f016020809104026020016040519081016040528093929190818152602001838380828437600081840152601f19601f820116905080830192505050505050509192919290803560ff169060200190929190505050610b03565b6040518082815260200191505060405180910390f35b3480156104d357600080fd5b506104dc610de4565b005b3480156104ea57600080fd5b506105176004803603602081101561050157600080fd5b8101908080359060200190929190505050610fc5565b005b34801561052557600080fd5b5061052e611129565b6040518080602001828103825283818151815260200191508051906020019060200280838360005b83811015610571578082015181840152602081019050610556565b505050509050019250505060405180910390f35b34801561059157600080fd5b5061059a6112a9565b6040518080602001828103825283818151815260200191508051906020019060200280838360005b838110156105dd5780820151818401526020810190506105c2565b505050509050019250505060405180910390f35b3480156105fd57600080fd5b5061062a6004803603602081101561061457600080fd5b8101908080359060200190929190505050611367565b005b34801561063857600080fd5b5061067b6004803603602081101561064f57600080fd5b81019080803573ffffffffffffffffffffffffffffffffffffffff169060200190929190505050611499565b005b600080600180549050141561069557600090506106b5565b600060026000848152602001908152602001600020549050600081119150505b919050565b6106c38261067d565b1515610737576040517f08c379a000000000000000000000000000000000000000000000000000000000815260040180806020018281038252600f8152602001807f6576656e74206e6f7420666f756e64000000000000000000000000000000000081525060200191505060405180910390fd5b6000610742836115ee565b9050600060018281548110151561075557fe5b906000526020600020906006020190506001600481111561077257fe5b8160030160009054906101000a900460ff16600481111561078f57fe5b14806107c25750600260048111156107a357fe5b8160030160009054906101000a900460ff1660048111156107c057fe5b145b151561085c576040517f08c379a00000000000000000000000000000000000000000000000000000000081526004018080602001828103825260288152602001807f696e76616c6964207374617274696e6720737461746520746f20636f6d706c6581526020017f7465206576656e7400000000000000000000000000000000000000000000000081525060400191505060405180910390fd5b828160050160016101000a81548160ff021916908360ff16021790555060038160030160006101000a81548160ff0219169083600481111561089a57fe5b021790555050505050565b60006001905090565b6000606060008060606000806108c38861067d565b15610a8557600060016108d58a6115ee565b8154811015156108e157fe5b906000526020600020906006020190508060000154816001018260030160009054906101000a900460ff168360020154846004018560050160009054906101000a900460ff168660050160019054906101000a900460ff16858054600181600116156101000203166002900480601f0160208091040260200160405190810160405280929190818152602001828054600181600116156101000203166002900480156109ce5780601f106109a3576101008083540402835291602001916109ce565b820191906000526020600020905b8154815290600101906020018083116109b157829003601f168201915b50505050509550828054600181600116156101000203166002900480601f016020809104026020016040519081016040528092919081815260200182805460018160011615610100020316600290048015610a6a5780601f10610a3f57610100808354040283529160200191610a6a565b820191906000526020600020905b815481529060010190602001808311610a4d57829003601f168201915b50505050509250975097509750975097509750975050610ad3565b60008060008060008460010294506020604051908101604052806000815250939291908292506020604051908101604052806000815250919081915080905096509650965096509650965096505b919395979092949650565b6000809054906101000a900473ffffffffffffffffffffffffffffffffffffffff1681565b600080858484876040516020018085805190602001908083835b602083101515610b425780518252602082019150602081019050602083039250610b1d565b6001836020036101000a03801982511681845116808217855250505050505090500184805190602001908083835b602083101515610b955780518252602082019150602081019050602083039250610b70565b6001836020036101000a0380198251168184511680821785525050505050509050018360ff1660ff167f0100000000000000000000000000000000000000000000000000000000000000028152600101828152602001945050505050604051602081830303815290604052805190602001209050610c128161067d565b151515610c87576040517f08c379a00000000000000000000000000000000000000000000000000000000081526004018080602001828103825260168152602001807f6475706c6963617465206576656e74206578697374730000000000000000000081525060200191505060405180910390fd5b600060018060e0604051908101604052808581526020018a815260200189815260200160016004811115610cb757fe5b81526020018881526020018760ff168152602001600060ff1681525090806001815401808255809150509060018203906000526020600020906006020160009091929091909150600082015181600001556020820151816001019080519060200190610d2492919061194d565b506040820151816002015560608201518160030160006101000a81548160ff02191690836004811115610d5357fe5b02179055506080820151816004019080519060200190610d7492919061194d565b5060a08201518160050160006101000a81548160ff021916908360ff16021790555060c08201518160050160016101000a81548160ff021916908360ff16021790555050500390506001810160026000848152602001908152602001600020819055508192505050949350505050565b610ebf6040805190810160405280601c81526020017f77696c6c205472756d702072656d61696e20707265736964656e743f00000000815250610e82610100604051908101604052806107e461ffff168152602001600160ff168152602001601e60ff168152602001600060ff168152602001600060ff168152602001600060ff168152602001600060ff168152602001600060ff1681525061160e565b6040805190810160405280600681526020017f7965737c6e6f00000000000000000000000000000000000000000000000000008152506002610b03565b50610fc2606060405190810160405280602281526020017f77686f2077696c6c2077696e20746865207472756261646f7220636f6e74657381526020017f743f000000000000000000000000000000000000000000000000000000000000815250610f85610100604051908101604052806107e461ffff168152602001600160ff168152602001601e60ff168152602001600060ff168152602001600060ff168152602001600060ff168152602001600060ff168152602001600060ff1681525061160e565b6040805190810160405280600d81526020017f676f6f6b697c706f6f6b696e6f000000000000000000000000000000000000008152506003610b03565b50565b610fce8161067d565b1515610fd957600080fd5b6000610fe4826115ee565b90506000600182815481101515610ff757fe5b906000526020600020906006020190506001600481111561101457fe5b8160030160009054906101000a900460ff16600481111561103157fe5b148061106457506002600481111561104557fe5b8160030160009054906101000a900460ff16600481111561106257fe5b145b15156110fe576040517f08c379a000000000000000000000000000000000000000000000000000000000815260040180806020018281038252602e8152602001807f6f6e6c792070656e64696e67206f72206c6f636b6564206576656e7473206d6181526020017f792062652063616e63656c6c656400000000000000000000000000000000000081525060400191505060405180910390fd5b60048160030160006101000a81548160ff0219169083600481111561111f57fe5b0217905550505050565b6060600080905060008090505b6001805490508110156111a5576001600481111561115057fe5b60018281548110151561115f57fe5b906000526020600020906006020160030160009054906101000a900460ff16600481111561118957fe5b14156111985781806001019250505b8080600101915050611136565b506060816040519080825280602002602001820160405280156111d75781602001602082028038833980820191505090505b50905060008211156112a1576000809050600060018054905090505b600081111561129e576001600481111561120957fe5b600180830381548110151561121a57fe5b906000526020600020906006020160030160009054906101000a900460ff16600481111561124457fe5b141561129057600180820381548110151561125b57fe5b906000526020600020906006020160000154838380600101945081518110151561128157fe5b90602001906020020181815250505b8080600190039150506111f3565b50505b809250505090565b6060806001805490506040519080825280602002602001820160405280156112e05781602001602082028038833980820191505090505b50905060006001805490501115611360576000809050600060018054905090505b600081111561135d57600180820381548110151561131b57fe5b906000526020600020906006020160000154838380600101945081518110151561134157fe5b9060200190602002018181525050808060019003915050611301565b50505b8091505090565b6113708161067d565b151561137b57600080fd5b6000611386826115ee565b9050600060018281548110151561139957fe5b90600052602060002090600602019050600160048111156113b657fe5b8160030160009054906101000a900460ff1660048111156113d357fe5b14151561146e576040517f08c379a00000000000000000000000000000000000000000000000000000000081526004018080602001828103825260218152602001807f6f6e6c792070656e64696e67206576656e7473206d6179206265206c6f636b6581526020017f640000000000000000000000000000000000000000000000000000000000000081525060400191505060405180910390fd5b60028160030160006101000a81548160ff0219169083600481111561148f57fe5b0217905550505050565b6000809054906101000a900473ffffffffffffffffffffffffffffffffffffffff1673ffffffffffffffffffffffffffffffffffffffff163373ffffffffffffffffffffffffffffffffffffffff161415156114f457600080fd5b600073ffffffffffffffffffffffffffffffffffffffff168173ffffffffffffffffffffffffffffffffffffffff161415151561153057600080fd5b8073ffffffffffffffffffffffffffffffffffffffff166000809054906101000a900473ffffffffffffffffffffffffffffffffffffffff1673ffffffffffffffffffffffffffffffffffffffff167f8be0079c531659141344cd1fd0a4f28419497f9722a3daafe3b4186f6b6457e060405160405180910390a3806000806101000a81548173ffffffffffffffffffffffffffffffffffffffff021916908373ffffffffffffffffffffffffffffffffffffffff16021790555050565b600060016002600084815260200190815260200160002054039050919050565b6000806107b290505b826000015161ffff168161ffff16101561165e57611634816118cc565b15611647576301e2850082019150611651565b6301e13380820191505b8080600101915050611617565b6116666119cd565b601f816000600c8110151561167757fe5b602002019060ff16908160ff168152505061169584600001516118cc565b156116c157601d816001600c811015156116ab57fe5b602002019060ff16908160ff16815250506116e4565b601c816001600c811015156116d257fe5b602002019060ff16908160ff16815250505b601f816002600c811015156116f557fe5b602002019060ff16908160ff1681525050601e816003600c8110151561171757fe5b602002019060ff16908160ff1681525050601f816004600c8110151561173957fe5b602002019060ff16908160ff1681525050601e816005600c8110151561175b57fe5b602002019060ff16908160ff1681525050601f816006600c8110151561177d57fe5b602002019060ff16908160ff1681525050601f816007600c8110151561179f57fe5b602002019060ff16908160ff1681525050601e816008600c811015156117c157fe5b602002019060ff16908160ff1681525050601f816009600c811015156117e357fe5b602002019060ff16908160ff1681525050601e81600a600c8110151561180557fe5b602002019060ff16908160ff1681525050601f81600b600c8110151561182757fe5b602002019060ff16908160ff1681525050600191505b836020015160ff168261ffff16101561188357806001830361ffff16600c8110151561186557fe5b602002015160ff16620151800283019250818060010192505061183d565b600184604001510360ff16620151800283019250836060015160ff16610e100283019250836080015160ff16603c02830192508360a0015160ff16830192508292505050919050565b60008060048361ffff168115156118df57fe5b0661ffff161415156118f45760009050611948565b600060648361ffff1681151561190657fe5b0661ffff1614151561191b5760019050611948565b60006101908361ffff1681151561192e57fe5b0661ffff161415156119435760009050611948565b600190505b919050565b828054600181600116156101000203166002900490600052602060002090601f016020900481019282601f1061198e57805160ff19168380011785556119bc565b828001600101855582156119bc579182015b828111156119bb5782518255916020019190600101906119a0565b5b5090506119c991906119f1565b5090565b61018060405190810160405280600c90602082028038833980820191505090505090565b611a1391905b80821115611a0f5760008160009055506001016119f7565b5090565b9056fea165627a7a723058207676db82a8f01f1319d47d212736a59c6d612026a9e21f653675a834d7a02b1f0029",
  "source": "pragma solidity ^0.5.0;\n\nimport \"./DateLib.sol\";\nimport \"./Ownable.sol\";\nimport \"./ProviderInterface.sol\";\n\ncontract Provider is ProviderInterface, Ownable {\n    Event[] events; \n    mapping(bytes32 => uint) eventIdToIndex; \n\n    //defines a event along with its outcome\n    struct Event {\n        bytes32 eventId;\n        string name;\n        uint date; \n        ProviderInterface.EventState state;\n        string options;\n        uint8 optionCount; \n        uint8 outcome;\n    }\n\n    using DateLib for DateLib.DateTime;\n\n    function getPendingEvents() public view returns (bytes32[] memory) {\n        uint count = 0; \n\n        //TODO: this might cost alot of gas\n\n        //get count of pending events \n        for (uint i = 0; i < events.length; i++) {\n            if (events[i].state == EventState.Pending) \n                count++; \n        }\n\n        //collect up all the pending events\n        bytes32[] memory output = new bytes32[](count); \n\n        if (count > 0) {\n            uint index = 0;\n            for (uint n = events.length; n > 0; n--) {\n                if (events[n-1].state == EventState.Pending) \n                    output[index++] = events[n-1].eventId;\n            }\n        } \n\n        return output; \n    }\n\n    function getAllEvents() public view returns (bytes32[] memory) {\n        bytes32[] memory output = new bytes32[](events.length); \n\n        //TODO: this might cost alot of gas; could it be stored instead?\n\n        //get all ids \n        if (events.length > 0) {\n            uint index = 0;\n            for (uint n = events.length; n > 0; n--) {\n                output[index++] = events[n-1].eventId;\n            }\n        }\n        \n        return output; \n    }\n\n    function eventExists(bytes32 _eventId) public view returns (bool) {\n        if (events.length == 0)\n            return false;\n        uint index = eventIdToIndex[_eventId]; \n        return (index > 0); \n    }\n\n    function addEvent(string memory _name, uint _date, string memory _options, uint8 _optionCount) public returns (bytes32) {\n\n        //hash the crucial info to get a unique id \n        bytes32 id = keccak256(abi.encodePacked(_name, _options, _optionCount, _date)); \n\n        //require that the match be unique (not already added) \n        require(!eventExists(id), \"duplicate event exists\");\n        \n        //add the match \n        uint newIndex = events.push(Event(id, _name, _date, EventState.Pending, _options, _optionCount, 0))-1; \n        eventIdToIndex[id] = newIndex+1;\n        \n        //return the unique id of the new match\n        return id;\n    }\n\n    function cancelEvent(bytes32 _eventId) external {\n        require(eventExists(_eventId)); \n        uint index = _getEventIndex(_eventId);\n        Event storage evt = events[index]; \n        require(evt.state == EventState.Pending || evt.state == EventState.Locked, \"only pending or locked events may be cancelled\"); \n        evt.state = EventState.Cancelled;\n    }\n\n    function lockEvent(bytes32 _eventId) external {\n        require(eventExists(_eventId)); \n        uint index = _getEventIndex(_eventId);\n        Event storage evt = events[index]; \n        require(evt.state == EventState.Pending, \"only pending events may be locked\"); \n        evt.state = EventState.Locked;\n    }\n\n    function completeEvent(bytes32 _eventId, uint8 _outcome) external {\n\n        //require that it exists\n        require(eventExists(_eventId), \"event not found\"); \n\n        //get the match \n        uint index = _getEventIndex(_eventId);\n        Event storage evt = events[index]; \n\n        //make sure that match is pending (outcome not already declared)\n        require(evt.state == EventState.Pending || evt.state == EventState.Locked, \"invalid starting state to complete event\"); \n        \n        //set the outcome\n        evt.outcome = _outcome;\n\n        //set the outcome \n        evt.state = EventState.Completed;\n    }\n\n    function getEvent(bytes32 _eventId) public view returns (\n        bytes32 eventId,\n        string memory name,\n        EventState state, \n        uint date, \n        string memory options,\n        uint8 optionCount,\n        uint8 outcome) {\n        \n        //get the match \n        if (eventExists(_eventId)) {\n            Event storage evt = events[_getEventIndex(_eventId)];\n            return (evt.eventId, evt.name, evt.state, evt.date, evt.options, evt.optionCount, evt.outcome); \n        }\n        else {\n            return (0, \"\", ProviderInterface.EventState.Unknown, 0, \"\", 0, 0); \n        }\n    }\n\n\n    // -- PRIVATE METHODS --\n\n    function _getEventIndex(bytes32 _eventId) private view returns (uint) {\n        return eventIdToIndex[_eventId]-1; \n    }\n\n\n    // -- TEST FUNCTIONS --\n\n    function testConnection() public pure returns (bool) {\n        return true;\n    }\n\n    function addTestData() public {\n        addEvent(\"will Trump remain president?\", DateLib.DateTime(2020, 1, 30, 0, 0, 0, 0, 0).toUnixTimestamp(), \"yes|no\", 2);\n        addEvent(\"who will win the trubador contest?\", DateLib.DateTime(2020, 1, 30, 0, 0, 0, 0, 0).toUnixTimestamp(), \"gooki|pookino\", 3);\n    }\n}",
  "sourcePath": "/home/acer/Desktop/anybet/code/contracts/provider-example/contracts/Provider.sol",
  "compiler": {
    "name": "solc",
    "version": "0.5.0+commit.1d4f565a.Emscripten.clang"
  },
  "schemaVersion": "3.0.0",
  "updatedAt": "2018-12-31T14:58:49.019Z",
  "devdoc": {
    "methods": {
      "transferOwnership(address)": {
        "details": "Allows the current owner to transfer control of the contract to a newOwner.",
        "params": {
          "newOwner": "The address to transfer ownership to."
        }
      }
    }
  },
  "userdoc": {
    "methods": {}
  }
}