{
  "contractName": "Provider",
  "abi": [
    {
      "constant": true,
      "inputs": [],
      "name": "owner",
      "outputs": [
        {
          "name": "",
          "type": "address"
        }
      ],
      "payable": false,
      "stateMutability": "view",
      "type": "function",
      "signature": "0x8da5cb5b"
    },
    {
      "constant": false,
      "inputs": [
        {
          "name": "newOwner",
          "type": "address"
        }
      ],
      "name": "transferOwnership",
      "outputs": [],
      "payable": false,
      "stateMutability": "nonpayable",
      "type": "function",
      "signature": "0xf2fde38b"
    },
    {
      "anonymous": false,
      "inputs": [
        {
          "indexed": true,
          "name": "previousOwner",
          "type": "address"
        },
        {
          "indexed": true,
          "name": "newOwner",
          "type": "address"
        }
      ],
      "name": "OwnershipTransferred",
      "type": "event",
      "signature": "0x8be0079c531659141344cd1fd0a4f28419497f9722a3daafe3b4186f6b6457e0"
    },
    {
      "constant": true,
      "inputs": [],
      "name": "getPendingEvents",
      "outputs": [
        {
          "name": "",
          "type": "bytes32[]"
        }
      ],
      "payable": false,
      "stateMutability": "view",
      "type": "function",
      "signature": "0xb4184e70"
    },
    {
      "constant": true,
      "inputs": [],
      "name": "getAllEvents",
      "outputs": [
        {
          "name": "",
          "type": "bytes32[]"
        }
      ],
      "payable": false,
      "stateMutability": "view",
      "type": "function",
      "signature": "0xc27a500d"
    },
    {
      "constant": true,
      "inputs": [
        {
          "name": "_eventId",
          "type": "bytes32"
        }
      ],
      "name": "eventExists",
      "outputs": [
        {
          "name": "",
          "type": "bool"
        }
      ],
      "payable": false,
      "stateMutability": "view",
      "type": "function",
      "signature": "0x118e58bd"
    },
    {
      "constant": true,
      "inputs": [
        {
          "name": "_eventId",
          "type": "bytes32"
        }
      ],
      "name": "getEvent",
      "outputs": [
        {
          "name": "eventId",
          "type": "bytes32"
        },
        {
          "name": "name",
          "type": "string"
        },
        {
          "name": "state",
          "type": "uint8"
        },
        {
          "name": "date",
          "type": "uint256"
        },
        {
          "name": "options",
          "type": "string"
        },
        {
          "name": "optionCount",
          "type": "uint8"
        },
        {
          "name": "outcome",
          "type": "uint8"
        }
      ],
      "payable": false,
      "stateMutability": "view",
      "type": "function",
      "signature": "0x8c172fa2"
    },
    {
      "constant": false,
      "inputs": [
        {
          "name": "_name",
          "type": "string"
        },
        {
          "name": "_date",
          "type": "uint256"
        },
        {
          "name": "_options",
          "type": "string"
        },
        {
          "name": "_optionCount",
          "type": "uint8"
        }
      ],
      "name": "addEvent",
      "outputs": [
        {
          "name": "",
          "type": "bytes32"
        }
      ],
      "payable": false,
      "stateMutability": "nonpayable",
      "type": "function",
      "signature": "0x9501cec4"
    },
    {
      "constant": false,
      "inputs": [
        {
          "name": "_eventId",
          "type": "bytes32"
        }
      ],
      "name": "cancelEvent",
      "outputs": [],
      "payable": false,
      "stateMutability": "nonpayable",
      "type": "function",
      "signature": "0xaa26176c"
    },
    {
      "constant": false,
      "inputs": [
        {
          "name": "_eventId",
          "type": "bytes32"
        }
      ],
      "name": "lockEvent",
      "outputs": [],
      "payable": false,
      "stateMutability": "nonpayable",
      "type": "function",
      "signature": "0xc7b3aa3c"
    },
    {
      "constant": false,
      "inputs": [
        {
          "name": "_eventId",
          "type": "bytes32"
        },
        {
          "name": "_outcome",
          "type": "uint8"
        }
      ],
      "name": "completeEvent",
      "outputs": [],
      "payable": false,
      "stateMutability": "nonpayable",
      "type": "function",
      "signature": "0x27afc7ae"
    },
    {
      "constant": true,
      "inputs": [],
      "name": "testConnection",
      "outputs": [
        {
          "name": "",
          "type": "bool"
        }
      ],
      "payable": false,
      "stateMutability": "pure",
      "type": "function",
      "signature": "0x3412a15c"
    },
    {
      "constant": false,
      "inputs": [],
      "name": "addTestData",
      "outputs": [],
      "payable": false,
      "stateMutability": "nonpayable",
      "type": "function",
      "signature": "0xa212b454"
    },
    {
      "constant": true,
      "inputs": [],
      "name": "getAddress",
      "outputs": [
        {
          "name": "",
          "type": "address"
        }
      ],
      "payable": false,
      "stateMutability": "view",
      "type": "function",
      "signature": "0x38cc4831"
    }
  ],
  "bytecode": "0x6080604052336000806101000a81548173ffffffffffffffffffffffffffffffffffffffff021916908373ffffffffffffffffffffffffffffffffffffffff160217905550611d46806100536000396000f3fe6080604052600436106100c5576000357c0100000000000000000000000000000000000000000000000000000000900463ffffffff168063118e58bd146100ca57806327afc7ae1461011d5780633412a15c1461016557806338cc4831146101945780638c172fa2146101eb5780638da5cb5b146103485780639501cec41461039f578063a212b45414610529578063aa26176c14610540578063b4184e701461057b578063c27a500d146105e7578063c7b3aa3c14610653578063f2fde38b1461068e575b600080fd5b3480156100d657600080fd5b50610103600480360360208110156100ed57600080fd5b81019080803590602001909291905050506106df565b604051808215151515815260200191505060405180910390f35b34801561012957600080fd5b506101636004803603604081101561014057600080fd5b8101908080359060200190929190803560ff16906020019092919050505061071c565b005b34801561017157600080fd5b5061017a610962565b604051808215151515815260200191505060405180910390f35b3480156101a057600080fd5b506101a961096b565b604051808273ffffffffffffffffffffffffffffffffffffffff1673ffffffffffffffffffffffffffffffffffffffff16815260200191505060405180910390f35b3480156101f757600080fd5b506102246004803603602081101561020e57600080fd5b8101908080359060200190929190505050610973565b604051808881526020018060200187600481111561023e57fe5b60ff168152602001868152602001806020018560ff1660ff1681526020018460ff1660ff168152602001838103835289818151815260200191508051906020019080838360005b838110156102a0578082015181840152602081019050610285565b50505050905090810190601f1680156102cd5780820380516001836020036101000a031916815260200191505b50838103825286818151815260200191508051906020019080838360005b838110156103065780820151818401526020810190506102eb565b50505050905090810190601f1680156103335780820380516001836020036101000a031916815260200191505b50995050505050505050505060405180910390f35b34801561035457600080fd5b5061035d610ba3565b604051808273ffffffffffffffffffffffffffffffffffffffff1673ffffffffffffffffffffffffffffffffffffffff16815260200191505060405180910390f35b3480156103ab57600080fd5b50610513600480360360808110156103c257600080fd5b81019080803590602001906401000000008111156103df57600080fd5b8201836020820111156103f157600080fd5b8035906020019184600183028401116401000000008311171561041357600080fd5b91908080601f016020809104026020016040519081016040528093929190818152602001838380828437600081840152601f19601f820116905080830192505050505050509192919290803590602001909291908035906020019064010000000081111561048057600080fd5b82018360208201111561049257600080fd5b803590602001918460018302840111640100000000831117156104b457600080fd5b91908080601f016020809104026020016040519081016040528093929190818152602001838380828437600081840152601f19601f820116905080830192505050505050509192919290803560ff169060200190929190505050610bc8565b6040518082815260200191505060405180910390f35b34801561053557600080fd5b5061053e610f05565b005b34801561054c57600080fd5b506105796004803603602081101561056357600080fd5b8101908080359060200190929190505050611141565b005b34801561058757600080fd5b50610590611369565b6040518080602001828103825283818151815260200191508051906020019060200280838360005b838110156105d35780820151818401526020810190506105b8565b505050509050019250505060405180910390f35b3480156105f357600080fd5b506105fc6114e9565b6040518080602001828103825283818151815260200191508051906020019060200280838360005b8381101561063f578082015181840152602081019050610624565b505050509050019250505060405180910390f35b34801561065f57600080fd5b5061068c6004803603602081101561067657600080fd5b81019080803590602001909291905050506115a7565b005b34801561069a57600080fd5b506106dd600480360360208110156106b157600080fd5b81019080803573ffffffffffffffffffffffffffffffffffffffff16906020019092919050505061179d565b005b60008060018054905014156106f75760009050610717565b600060026000848152602001908152602001600020549050600081119150505b919050565b6000809054906101000a900473ffffffffffffffffffffffffffffffffffffffff1673ffffffffffffffffffffffffffffffffffffffff163373ffffffffffffffffffffffffffffffffffffffff1614151561077757600080fd5b610780826106df565b15156107f4576040517f08c379a000000000000000000000000000000000000000000000000000000000815260040180806020018281038252600f8152602001807f6576656e74206e6f7420666f756e64000000000000000000000000000000000081525060200191505060405180910390fd5b60006107ff836118f2565b9050600060018281548110151561081257fe5b906000526020600020906006020190506001600481111561082f57fe5b8160030160009054906101000a900460ff16600481111561084c57fe5b148061087f57506002600481111561086057fe5b8160030160009054906101000a900460ff16600481111561087d57fe5b145b1515610919576040517f08c379a00000000000000000000000000000000000000000000000000000000081526004018080602001828103825260288152602001807f696e76616c6964207374617274696e6720737461746520746f20636f6d706c6581526020017f7465206576656e7400000000000000000000000000000000000000000000000081525060400191505060405180910390fd5b828160050160016101000a81548160ff021916908360ff16021790555060038160030160006101000a81548160ff0219169083600481111561095757fe5b021790555050505050565b60006001905090565b600030905090565b600060606000806060600080610988886106df565b15610b4a576000600161099a8a6118f2565b8154811015156109a657fe5b906000526020600020906006020190508060000154816001018260030160009054906101000a900460ff168360020154846004018560050160009054906101000a900460ff168660050160019054906101000a900460ff16858054600181600116156101000203166002900480601f016020809104026020016040519081016040528092919081815260200182805460018160011615610100020316600290048015610a935780601f10610a6857610100808354040283529160200191610a93565b820191906000526020600020905b815481529060010190602001808311610a7657829003601f168201915b50505050509550828054600181600116156101000203166002900480601f016020809104026020016040519081016040528092919081815260200182805460018160011615610100020316600290048015610b2f5780601f10610b0457610100808354040283529160200191610b2f565b820191906000526020600020905b815481529060010190602001808311610b1257829003601f168201915b50505050509250975097509750975097509750975050610b98565b60008060008060008460010294506020604051908101604052806000815250939291908292506020604051908101604052806000815250919081915080905096509650965096509650965096505b919395979092949650565b6000809054906101000a900473ffffffffffffffffffffffffffffffffffffffff1681565b60008060009054906101000a900473ffffffffffffffffffffffffffffffffffffffff1673ffffffffffffffffffffffffffffffffffffffff163373ffffffffffffffffffffffffffffffffffffffff16141515610c2557600080fd5b6000858484876040516020018085805190602001908083835b602083101515610c635780518252602082019150602081019050602083039250610c3e565b6001836020036101000a03801982511681845116808217855250505050505090500184805190602001908083835b602083101515610cb65780518252602082019150602081019050602083039250610c91565b6001836020036101000a0380198251168184511680821785525050505050509050018360ff1660ff167f0100000000000000000000000000000000000000000000000000000000000000028152600101828152602001945050505050604051602081830303815290604052805190602001209050610d33816106df565b151515610da8576040517f08c379a00000000000000000000000000000000000000000000000000000000081526004018080602001828103825260168152602001807f6475706c6963617465206576656e74206578697374730000000000000000000081525060200191505060405180910390fd5b600060018060e0604051908101604052808581526020018a815260200189815260200160016004811115610dd857fe5b81526020018881526020018760ff168152602001600060ff1681525090806001815401808255809150509060018203906000526020600020906006020160009091929091909150600082015181600001556020820151816001019080519060200190610e45929190611c51565b506040820151816002015560608201518160030160006101000a81548160ff02191690836004811115610e7457fe5b02179055506080820151816004019080519060200190610e95929190611c51565b5060a08201518160050160006101000a81548160ff021916908360ff16021790555060c08201518160050160016101000a81548160ff021916908360ff16021790555050500390506001810160026000848152602001908152602001600020819055508192505050949350505050565b6000809054906101000a900473ffffffffffffffffffffffffffffffffffffffff1673ffffffffffffffffffffffffffffffffffffffff163373ffffffffffffffffffffffffffffffffffffffff16141515610f6057600080fd5b61103b6040805190810160405280601c81526020017f77696c6c205472756d702072656d61696e20707265736964656e743f00000000815250610ffe610100604051908101604052806107e461ffff168152602001600160ff168152602001601e60ff168152602001600060ff168152602001600060ff168152602001600060ff168152602001600060ff168152602001600060ff16815250611912565b6040805190810160405280600681526020017f7965737c6e6f00000000000000000000000000000000000000000000000000008152506002610bc8565b5061113e606060405190810160405280602281526020017f77686f2077696c6c2077696e20746865207472756261646f7220636f6e74657381526020017f743f000000000000000000000000000000000000000000000000000000000000815250611101610100604051908101604052806107e461ffff168152602001600160ff168152602001601e60ff168152602001600060ff168152602001600060ff168152602001600060ff168152602001600060ff168152602001600060ff16815250611912565b6040805190810160405280600d81526020017f676f6f6b697c706f6f6b696e6f000000000000000000000000000000000000008152506003610bc8565b50565b6000809054906101000a900473ffffffffffffffffffffffffffffffffffffffff1673ffffffffffffffffffffffffffffffffffffffff163373ffffffffffffffffffffffffffffffffffffffff1614151561119c57600080fd5b6111a5816106df565b1515611219576040517f08c379a000000000000000000000000000000000000000000000000000000000815260040180806020018281038252600f8152602001807f6576656e74206e6f7420666f756e64000000000000000000000000000000000081525060200191505060405180910390fd5b6000611224826118f2565b9050600060018281548110151561123757fe5b906000526020600020906006020190506001600481111561125457fe5b8160030160009054906101000a900460ff16600481111561127157fe5b14806112a457506002600481111561128557fe5b8160030160009054906101000a900460ff1660048111156112a257fe5b145b151561133e576040517f08c379a000000000000000000000000000000000000000000000000000000000815260040180806020018281038252602e8152602001807f6f6e6c792070656e64696e67206f72206c6f636b6564206576656e7473206d6181526020017f792062652063616e63656c6c656400000000000000000000000000000000000081525060400191505060405180910390fd5b60048160030160006101000a81548160ff0219169083600481111561135f57fe5b0217905550505050565b6060600080905060008090505b6001805490508110156113e5576001600481111561139057fe5b60018281548110151561139f57fe5b906000526020600020906006020160030160009054906101000a900460ff1660048111156113c957fe5b14156113d85781806001019250505b8080600101915050611376565b506060816040519080825280602002602001820160405280156114175781602001602082028038833980820191505090505b50905060008211156114e1576000809050600060018054905090505b60008111156114de576001600481111561144957fe5b600180830381548110151561145a57fe5b906000526020600020906006020160030160009054906101000a900460ff16600481111561148457fe5b14156114d057600180820381548110151561149b57fe5b90600052602060002090600602016000015483838060010194508151811015156114c157fe5b90602001906020020181815250505b808060019003915050611433565b50505b809250505090565b6060806001805490506040519080825280602002602001820160405280156115205781602001602082028038833980820191505090505b509050600060018054905011156115a0576000809050600060018054905090505b600081111561159d57600180820381548110151561155b57fe5b906000526020600020906006020160000154838380600101945081518110151561158157fe5b9060200190602002018181525050808060019003915050611541565b50505b8091505090565b6000809054906101000a900473ffffffffffffffffffffffffffffffffffffffff1673ffffffffffffffffffffffffffffffffffffffff163373ffffffffffffffffffffffffffffffffffffffff1614151561160257600080fd5b61160b816106df565b151561167f576040517f08c379a000000000000000000000000000000000000000000000000000000000815260040180806020018281038252600f8152602001807f6576656e74206e6f7420666f756e64000000000000000000000000000000000081525060200191505060405180910390fd5b600061168a826118f2565b9050600060018281548110151561169d57fe5b90600052602060002090600602019050600160048111156116ba57fe5b8160030160009054906101000a900460ff1660048111156116d757fe5b141515611772576040517f08c379a00000000000000000000000000000000000000000000000000000000081526004018080602001828103825260218152602001807f6f6e6c792070656e64696e67206576656e7473206d6179206265206c6f636b6581526020017f640000000000000000000000000000000000000000000000000000000000000081525060400191505060405180910390fd5b60028160030160006101000a81548160ff0219169083600481111561179357fe5b0217905550505050565b6000809054906101000a900473ffffffffffffffffffffffffffffffffffffffff1673ffffffffffffffffffffffffffffffffffffffff163373ffffffffffffffffffffffffffffffffffffffff161415156117f857600080fd5b600073ffffffffffffffffffffffffffffffffffffffff168173ffffffffffffffffffffffffffffffffffffffff161415151561183457600080fd5b8073ffffffffffffffffffffffffffffffffffffffff166000809054906101000a900473ffffffffffffffffffffffffffffffffffffffff1673ffffffffffffffffffffffffffffffffffffffff167f8be0079c531659141344cd1fd0a4f28419497f9722a3daafe3b4186f6b6457e060405160405180910390a3806000806101000a81548173ffffffffffffffffffffffffffffffffffffffff021916908373ffffffffffffffffffffffffffffffffffffffff16021790555050565b600060016002600084815260200190815260200160002054039050919050565b6000806107b290505b826000015161ffff168161ffff1610156119625761193881611bd0565b1561194b576301e2850082019150611955565b6301e13380820191505b808060010191505061191b565b61196a611cd1565b601f816000600c8110151561197b57fe5b602002019060ff16908160ff16815250506119998460000151611bd0565b156119c557601d816001600c811015156119af57fe5b602002019060ff16908160ff16815250506119e8565b601c816001600c811015156119d657fe5b602002019060ff16908160ff16815250505b601f816002600c811015156119f957fe5b602002019060ff16908160ff1681525050601e816003600c81101515611a1b57fe5b602002019060ff16908160ff1681525050601f816004600c81101515611a3d57fe5b602002019060ff16908160ff1681525050601e816005600c81101515611a5f57fe5b602002019060ff16908160ff1681525050601f816006600c81101515611a8157fe5b602002019060ff16908160ff1681525050601f816007600c81101515611aa357fe5b602002019060ff16908160ff1681525050601e816008600c81101515611ac557fe5b602002019060ff16908160ff1681525050601f816009600c81101515611ae757fe5b602002019060ff16908160ff1681525050601e81600a600c81101515611b0957fe5b602002019060ff16908160ff1681525050601f81600b600c81101515611b2b57fe5b602002019060ff16908160ff1681525050600191505b836020015160ff168261ffff161015611b8757806001830361ffff16600c81101515611b6957fe5b602002015160ff166201518002830192508180600101925050611b41565b600184604001510360ff16620151800283019250836060015160ff16610e100283019250836080015160ff16603c02830192508360a0015160ff16830192508292505050919050565b60008060048361ffff16811515611be357fe5b0661ffff16141515611bf85760009050611c4c565b600060648361ffff16811515611c0a57fe5b0661ffff16141515611c1f5760019050611c4c565b60006101908361ffff16811515611c3257fe5b0661ffff16141515611c475760009050611c4c565b600190505b919050565b828054600181600116156101000203166002900490600052602060002090601f016020900481019282601f10611c9257805160ff1916838001178555611cc0565b82800160010185558215611cc0579182015b82811115611cbf578251825591602001919060010190611ca4565b5b509050611ccd9190611cf5565b5090565b61018060405190810160405280600c90602082028038833980820191505090505090565b611d1791905b80821115611d13576000816000905550600101611cfb565b5090565b9056fea165627a7a7230582058201ab90a083de72ec5bcdeb4dfaeb515fb59cc079017dd506b237f6858a52f0029",
  "source": "pragma solidity ^0.5.0;\n\nimport \"./DateLib.sol\";\nimport \"./Ownable.sol\";\nimport \"./ProviderInterface.sol\";\n\n//TODO: enforce max number of bettable options (100?) \n\ncontract Provider is ProviderInterface, Ownable {\n    Event[] events; \n    mapping(bytes32 => uint) eventIdToIndex; \n\n    //defines a event along with its outcome\n    struct Event {\n        bytes32 eventId;\n        string name;\n        uint date; \n        ProviderInterface.EventState state;\n        string options;\n        uint8 optionCount; \n        uint8 outcome;\n    }\n\n    using DateLib for DateLib.DateTime;\n\n    //gets a list of ids of all events which are in state Pending\n    function getPendingEvents() public view returns (bytes32[] memory) {\n        uint count = 0; \n\n        //TODO: this might cost alot of gas\n\n        //get count of pending events \n        for (uint i = 0; i < events.length; i++) {\n            if (events[i].state == EventState.Pending) \n                count++; \n        }\n\n        //collect up all the pending events\n        bytes32[] memory output = new bytes32[](count); \n\n        if (count > 0) {\n            uint index = 0;\n            for (uint n = events.length; n > 0; n--) {\n                if (events[n-1].state == EventState.Pending) \n                    output[index++] = events[n-1].eventId;\n            }\n        } \n\n        return output; \n    }\n\n    //gets a list of ids of all events, pending or not\n    function getAllEvents() public view returns (bytes32[] memory) {\n        bytes32[] memory output = new bytes32[](events.length); \n\n        //TODO: this might cost alot of gas; could it be stored instead?\n\n        //get all ids \n        if (events.length > 0) {\n            uint index = 0;\n            for (uint n = events.length; n > 0; n--) {\n                output[index++] = events[n-1].eventId;\n            }\n        }\n        \n        return output; \n    }\n\n    //returns true if the given event id is valid and corresponds to an event\n    function eventExists(bytes32 _eventId) public view returns (bool) {\n        if (events.length == 0)\n            return false;\n        uint index = eventIdToIndex[_eventId]; \n        return (index > 0); \n    }\n\n    //gets the event details for the given event id \n    function getEvent(bytes32 _eventId) public view returns (\n        bytes32 eventId,\n        string memory name,\n        EventState state, \n        uint date, \n        string memory options,\n        uint8 optionCount,\n        uint8 outcome) {\n        \n        //get the match \n        if (eventExists(_eventId)) {\n            Event storage evt = events[_getEventIndex(_eventId)];\n            return (evt.eventId, evt.name, evt.state, evt.date, evt.options, evt.optionCount, evt.outcome); \n        }\n        else {\n            return (0, \"\", ProviderInterface.EventState.Unknown, 0, \"\", 0, 0); \n        }\n    }\n\n    //adds a new event into the system \n    function addEvent(string memory _name, uint _date, string memory _options, uint8 _optionCount) public onlyOwner returns (bytes32) {\n\n        //hash the crucial info to get a unique id \n        bytes32 id = keccak256(abi.encodePacked(_name, _options, _optionCount, _date)); \n\n        //require that the match be unique (not already added) \n        require(!eventExists(id), \"duplicate event exists\");\n        \n        //add the match \n        uint newIndex = events.push(Event(id, _name, _date, EventState.Pending, _options, _optionCount, 0))-1; \n        eventIdToIndex[id] = newIndex+1;\n        \n        //return the unique id of the new match\n        return id;\n    }\n\n    //cancels an event \n    function cancelEvent(bytes32 _eventId) onlyOwner external {\n        require(eventExists(_eventId), \"event not found\");\n        uint index = _getEventIndex(_eventId);\n        Event storage evt = events[index]; \n        require(evt.state == EventState.Pending || evt.state == EventState.Locked, \"only pending or locked events may be cancelled\"); \n        evt.state = EventState.Cancelled;\n    }\n\n    //locks an event - no more bets can be placed \n    function lockEvent(bytes32 _eventId) onlyOwner external {\n        require(eventExists(_eventId), \"event not found\"); \n        uint index = _getEventIndex(_eventId);\n        Event storage evt = events[index]; \n        require(evt.state == EventState.Pending, \"only pending events may be locked\"); \n        evt.state = EventState.Locked;\n    }\n\n    //declares the outcome of an event and sets its state to Completed \n    function completeEvent(bytes32 _eventId, uint8 _outcome) onlyOwner external {\n\n        //require that it exists\n        require(eventExists(_eventId), \"event not found\"); \n\n        //get the match \n        uint index = _getEventIndex(_eventId);\n        Event storage evt = events[index]; \n\n        //make sure that match is pending (outcome not already declared)\n        require(evt.state == EventState.Pending || evt.state == EventState.Locked, \"invalid starting state to complete event\"); \n        \n        //set the outcome\n        evt.outcome = _outcome;\n\n        //set the outcome \n        evt.state = EventState.Completed;\n    }\n\n\n    // -- PRIVATE METHODS --\n\n    function _getEventIndex(bytes32 _eventId) private view returns (uint) {\n        return eventIdToIndex[_eventId]-1; \n    }\n\n\n    // -- TEST FUNCTIONS --\n\n    function testConnection() public pure returns (bool) {\n        return true;\n    }\n\n    function addTestData() public onlyOwner {\n        addEvent(\"will Trump remain president?\", DateLib.DateTime(2020, 1, 30, 0, 0, 0, 0, 0).toUnixTimestamp(), \"yes|no\", 2);\n        addEvent(\"who will win the trubador contest?\", DateLib.DateTime(2020, 1, 30, 0, 0, 0, 0, 0).toUnixTimestamp(), \"gooki|pookino\", 3);\n    }\n\n    function getAddress() public view returns (address) {\n        return address(this); \n    }\n}",
  "sourcePath": "/home/acer/Desktop/anybet/code/contracts/provider-example/contracts/Provider.sol",
  "compiler": {
    "name": "solc",
    "version": "0.5.0+commit.1d4f565a.Emscripten.clang"
  },
  "schemaVersion": "3.0.0",
  "updatedAt": "2019-03-18T07:27:48.962Z",
  "devdoc": {
    "methods": {
      "transferOwnership(address)": {
        "details": "Allows the current owner to transfer control of the contract to a newOwner.",
        "params": {
          "newOwner": "The address to transfer ownership to."
        }
      }
    }
  },
  "userdoc": {
    "methods": {}
  }
}