{
  "contractName": "Anybet",
  "abi": [
    {
      "constant": true,
      "inputs": [
        {
          "name": "",
          "type": "uint256"
        }
      ],
      "name": "events",
      "outputs": [
        {
          "name": "eventId",
          "type": "bytes32"
        },
        {
          "name": "providerAddress",
          "type": "address"
        },
        {
          "name": "providerEventId",
          "type": "bytes32"
        },
        {
          "name": "name",
          "type": "string"
        },
        {
          "name": "date",
          "type": "uint256"
        },
        {
          "name": "minBetAmt",
          "type": "uint256"
        },
        {
          "name": "state",
          "type": "uint8"
        },
        {
          "name": "options",
          "type": "string"
        },
        {
          "name": "optionCount",
          "type": "uint8"
        },
        {
          "name": "outcome",
          "type": "uint8"
        },
        {
          "name": "totalBet",
          "type": "uint256"
        }
      ],
      "payable": false,
      "stateMutability": "view",
      "type": "function",
      "signature": "0x0b791430"
    },
    {
      "constant": true,
      "inputs": [
        {
          "name": "",
          "type": "uint256"
        }
      ],
      "name": "bets",
      "outputs": [
        {
          "name": "id",
          "type": "bytes32"
        },
        {
          "name": "user",
          "type": "address"
        },
        {
          "name": "eventId",
          "type": "bytes32"
        },
        {
          "name": "amount",
          "type": "uint256"
        },
        {
          "name": "option",
          "type": "uint8"
        }
      ],
      "payable": false,
      "stateMutability": "view",
      "type": "function",
      "signature": "0x22af00fa"
    },
    {
      "constant": true,
      "inputs": [],
      "name": "owner",
      "outputs": [
        {
          "name": "",
          "type": "address"
        }
      ],
      "payable": false,
      "stateMutability": "view",
      "type": "function",
      "signature": "0x8da5cb5b"
    },
    {
      "constant": false,
      "inputs": [
        {
          "name": "newOwner",
          "type": "address"
        }
      ],
      "name": "transferOwnership",
      "outputs": [],
      "payable": false,
      "stateMutability": "nonpayable",
      "type": "function",
      "signature": "0xf2fde38b"
    },
    {
      "anonymous": false,
      "inputs": [
        {
          "indexed": true,
          "name": "previousOwner",
          "type": "address"
        },
        {
          "indexed": true,
          "name": "newOwner",
          "type": "address"
        }
      ],
      "name": "OwnershipTransferred",
      "type": "event",
      "signature": "0x8be0079c531659141344cd1fd0a4f28419497f9722a3daafe3b4186f6b6457e0"
    },
    {
      "constant": true,
      "inputs": [],
      "name": "getPendingEvents",
      "outputs": [
        {
          "name": "",
          "type": "bytes32[]"
        }
      ],
      "payable": false,
      "stateMutability": "view",
      "type": "function",
      "signature": "0xb4184e70"
    },
    {
      "constant": true,
      "inputs": [],
      "name": "getAllEvents",
      "outputs": [
        {
          "name": "",
          "type": "bytes32[]"
        }
      ],
      "payable": false,
      "stateMutability": "view",
      "type": "function",
      "signature": "0xc27a500d"
    },
    {
      "constant": true,
      "inputs": [
        {
          "name": "_eventId",
          "type": "bytes32"
        }
      ],
      "name": "getEvent",
      "outputs": [
        {
          "name": "eventId",
          "type": "bytes32"
        },
        {
          "name": "providerAddress",
          "type": "address"
        },
        {
          "name": "providerEventId",
          "type": "bytes32"
        },
        {
          "name": "name",
          "type": "string"
        },
        {
          "name": "date",
          "type": "uint256"
        },
        {
          "name": "minBetAmt",
          "type": "uint256"
        },
        {
          "name": "state",
          "type": "uint8"
        },
        {
          "name": "options",
          "type": "string"
        },
        {
          "name": "optionCount",
          "type": "uint8"
        },
        {
          "name": "outcome",
          "type": "uint8"
        }
      ],
      "payable": false,
      "stateMutability": "view",
      "type": "function",
      "signature": "0x8c172fa2"
    },
    {
      "constant": false,
      "inputs": [
        {
          "name": "_eventId",
          "type": "bytes32"
        },
        {
          "name": "_outcome",
          "type": "uint8"
        }
      ],
      "name": "placeBet",
      "outputs": [
        {
          "name": "",
          "type": "bool"
        }
      ],
      "payable": true,
      "stateMutability": "payable",
      "type": "function",
      "signature": "0x0e52bb49"
    },
    {
      "constant": true,
      "inputs": [
        {
          "name": "_eventId",
          "type": "bytes32"
        }
      ],
      "name": "getBetTotals",
      "outputs": [
        {
          "name": "",
          "type": "uint256[255]"
        }
      ],
      "payable": false,
      "stateMutability": "view",
      "type": "function",
      "signature": "0x5e5f8915"
    },
    {
      "constant": false,
      "inputs": [
        {
          "name": "_eventId",
          "type": "bytes32"
        }
      ],
      "name": "refreshEventFromProvider",
      "outputs": [
        {
          "name": "",
          "type": "bool"
        }
      ],
      "payable": false,
      "stateMutability": "nonpayable",
      "type": "function",
      "signature": "0x33bd08ae"
    },
    {
      "constant": false,
      "inputs": [
        {
          "name": "_providerAddress",
          "type": "address"
        },
        {
          "name": "_eventId",
          "type": "bytes32"
        },
        {
          "name": "_minBetAmt",
          "type": "uint256"
        }
      ],
      "name": "addEvent",
      "outputs": [
        {
          "name": "",
          "type": "bytes32"
        }
      ],
      "payable": false,
      "stateMutability": "nonpayable",
      "type": "function",
      "signature": "0xbee13e36"
    }
  ],
  "bytecode": "0x608060405264e8d4a510006008556003600955336000806101000a81548173ffffffffffffffffffffffffffffffffffffffff021916908373ffffffffffffffffffffffffffffffffffffffff16021790555061235a806100616000396000f3fe6080604052600436106100af576000357c0100000000000000000000000000000000000000000000000000000000900463ffffffff1680630b791430146100b45780630e52bb491461025957806322af00fa146102ac57806333bd08ae146103495780635e5f89151461039c5780638c172fa2146104135780638da5cb5b146105b1578063b4184e7014610608578063bee13e3614610674578063c27a500d146106ed578063f2fde38b14610759575b600080fd5b3480156100c057600080fd5b506100ed600480360360208110156100d757600080fd5b81019080803590602001909291905050506107aa565b604051808c81526020018b73ffffffffffffffffffffffffffffffffffffffff1673ffffffffffffffffffffffffffffffffffffffff1681526020018a81526020018060200189815260200188815260200187600481111561014b57fe5b60ff168152602001806020018660ff1660ff1681526020018560ff1660ff16815260200184815260200183810383528b818151815260200191508051906020019080838360005b838110156101ad578082015181840152602081019050610192565b50505050905090810190601f1680156101da5780820380516001836020036101000a031916815260200191505b50838103825287818151815260200191508051906020019080838360005b838110156102135780820151818401526020810190506101f8565b50505050905090810190601f1680156102405780820380516001836020036101000a031916815260200191505b509d505050505050505050505050505060405180910390f35b6102926004803603604081101561026f57600080fd5b8101908080359060200190929190803560ff16906020019092919050505061098a565b604051808215151515815260200191505060405180910390f35b3480156102b857600080fd5b506102e5600480360360208110156102cf57600080fd5b8101908080359060200190929190505050611080565b604051808681526020018573ffffffffffffffffffffffffffffffffffffffff1673ffffffffffffffffffffffffffffffffffffffff1681526020018481526020018381526020018260ff1660ff1681526020019550505050505060405180910390f35b34801561035557600080fd5b506103826004803603602081101561036c57600080fd5b81019080803590602001909291905050506110f2565b604051808215151515815260200191505060405180910390f35b3480156103a857600080fd5b506103d5600480360360208110156103bf57600080fd5b81019080803590602001909291905050506111ab565b604051808260ff60200280838360005b838110156104005780820151818401526020810190506103e5565b5050505090500191505060405180910390f35b34801561041f57600080fd5b5061044c6004803603602081101561043657600080fd5b8101908080359060200190929190505050611319565b604051808b81526020018a73ffffffffffffffffffffffffffffffffffffffff1673ffffffffffffffffffffffffffffffffffffffff168152602001898152602001806020018881526020018781526020018660048111156104aa57fe5b60ff168152602001806020018560ff1660ff1681526020018460ff1660ff16815260200183810383528a818151815260200191508051906020019080838360005b838110156105065780820151818401526020810190506104eb565b50505050905090810190601f1680156105335780820380516001836020036101000a031916815260200191505b50838103825286818151815260200191508051906020019080838360005b8381101561056c578082015181840152602081019050610551565b50505050905090810190601f1680156105995780820380516001836020036101000a031916815260200191505b509c5050505050505050505050505060405180910390f35b3480156105bd57600080fd5b506105c66115bc565b604051808273ffffffffffffffffffffffffffffffffffffffff1673ffffffffffffffffffffffffffffffffffffffff16815260200191505060405180910390f35b34801561061457600080fd5b5061061d6115e1565b6040518080602001828103825283818151815260200191508051906020019060200280838360005b83811015610660578082015181840152602081019050610645565b505050509050019250505060405180910390f35b34801561068057600080fd5b506106d76004803603606081101561069757600080fd5b81019080803573ffffffffffffffffffffffffffffffffffffffff1690602001909291908035906020019092919080359060200190929190505050611803565b6040518082815260200191505060405180910390f35b3480156106f957600080fd5b50610702611ca6565b6040518080602001828103825283818151815260200191508051906020019060200280838360005b8381101561074557808201518184015260208101905061072a565b505050509050019250505060405180910390f35b34801561076557600080fd5b506107a86004803603602081101561077c57600080fd5b81019080803573ffffffffffffffffffffffffffffffffffffffff169060200190929190505050611d58565b005b6001818154811015156107b957fe5b90600052602060002090600a02016000915090508060000154908060010160009054906101000a900473ffffffffffffffffffffffffffffffffffffffff1690806002015490806003018054600181600116156101000203166002900480601f0160208091040260200160405190810160405280929190818152602001828054600181600116156101000203166002900480156108975780601f1061086c57610100808354040283529160200191610897565b820191906000526020600020905b81548152906001019060200180831161087a57829003601f168201915b5050505050908060040154908060050154908060060160009054906101000a900460ff1690806007018054600181600116156101000203166002900480601f0160208091040260200160405190810160405280929190818152602001828054600181600116156101000203166002900480156109545780601f1061092957610100808354040283529160200191610954565b820191906000526020600020905b81548152906001019060200180831161093757829003601f168201915b5050505050908060080160009054906101000a900460ff16908060080160019054906101000a900460ff1690806009015490508b565b600080600090506008543410151515610a31576040517f08c379a00000000000000000000000000000000000000000000000000000000081526004018080602001828103825260288152602001807f62657420616d6f756e74206973206c657373207468616e206162736f6c75746581526020017f206d696e696d756d00000000000000000000000000000000000000000000000081525060400191505060405180910390fd5b6000600180549050111515610aae576040517f08c379a00000000000000000000000000000000000000000000000000000000081526004018080602001828103825260138152602001807f6e6f20617661696c61626c65206576656e74730000000000000000000000000081525060200191505060405180910390fd5b600060036000868152602001908152602001600020549050600081111515610b3e576040517f08c379a000000000000000000000000000000000000000000000000000000000815260040180806020018281038252600f8152602001807f6576656e74206e6f7420666f756e64000000000000000000000000000000000081525060200191505060405180910390fd5b60006001610b4b87611ead565b815481101515610b5757fe5b90600052602060002090600a02019050610b7081611ecd565b5060016004811115610b7e57fe5b8160060160009054906101000a900460ff166004811115610b9b57fe5b141515610c10576040517f08c379a00000000000000000000000000000000000000000000000000000000081526004018080602001828103825260158152602001807f6576656e74206973206e6f74206265747461626c65000000000000000000000081525060200191505060405180910390fd5b80600501543410151515610cb2576040517f08c379a00000000000000000000000000000000000000000000000000000000081526004018080602001828103825260278152602001807f62657420616d6f756e74206973206c657373207468616e20646566696e65642081526020017f6d696e696d756d0000000000000000000000000000000000000000000000000081525060400191505060405180910390fd5b60008090506000600460003373ffffffffffffffffffffffffffffffffffffffff1673ffffffffffffffffffffffffffffffffffffffff1681526020019081526020016000209050600081805490501115610d515760008090505b8180549050811015610d4f57888282815481101515610d2857fe5b90600052602060002001541415610d425760019250610d4f565b8080600101915050610d0d565b505b81151515610ded576040517f08c379a000000000000000000000000000000000000000000000000000000000815260040180806020018281038252602d8152602001807f7573657220616c72656164792068617320612072756e6e696e6720626574206681526020017f6f722074686973206576656e740000000000000000000000000000000000000081525060400191505060405180910390fd5b60008760ff1610158015610e1757508260080160009054906101000a900460ff1660ff168760ff16105b1515610eb1576040517f08c379a000000000000000000000000000000000000000000000000000000000815260040180806020018281038252603a8152602001807f696e76616c69642063686f73656e206f7574636f6d65202d206e6f742077697481526020017f68696e2076616c69642072616e6765206f66206f7074696f6e7300000000000081525060400191505060405180910390fd5b6000600560008a815260200190815260200160002090506000610ed48a33612171565b905060006001600260a0604051908101604052808581526020013373ffffffffffffffffffffffffffffffffffffffff1681526020018e81526020013481526020018d60ff16815250908060018154018082558091505090600182039060005260206000209060050201600090919290919091506000820151816000015560208201518160010160006101000a81548173ffffffffffffffffffffffffffffffffffffffff021916908373ffffffffffffffffffffffffffffffffffffffff160217905550604082015181600201556060820151816003015560808201518160040160006101000a81548160ff021916908360ff160217905550505003905082819080600181540180825580915050906001820390600052602060002001600090919290919091505550838b908060018154018082558091505090600182039060005260206000200160009091929091909150555060019750348660090160008282540192505081905550600061104b8c8c6121e5565b905034600760008381526020019081526020016000206000828254019250508190555088995050505050505050505092915050565b60028181548110151561108f57fe5b90600052602060002090600502016000915090508060000154908060010160009054906101000a900473ffffffffffffffffffffffffffffffffffffffff16908060020154908060030154908060040160009054906101000a900460ff16905085565b60006110fd82612246565b1515611171576040517f08c379a000000000000000000000000000000000000000000000000000000000815260040180806020018281038252600f8152602001807f4576656e74206e6f7420666f756e64000000000000000000000000000000000081525060200191505060405180910390fd5b600061117c83611ead565b90506111a360018281548110151561119057fe5b90600052602060002090600a0201611ecd565b915050919050565b6111b3612265565b6111bb612265565b60006003600085815260200190815260200160002054905060008111151561124b576040517f08c379a000000000000000000000000000000000000000000000000000000000815260040180806020018281038252600f8152602001807f6576656e74206e6f7420666f756e64000000000000000000000000000000000081525060200191505060405180910390fd5b600060056000868152602001908152602001600020905060008090505b818054905081101561130d576000828281548110151561128457fe5b906000526020600020015490506002818154811015156112a057fe5b906000526020600020906005020160030154856002838154811015156112c257fe5b906000526020600020906005020160040160009054906101000a900460ff1660ff1660ff811015156112f057fe5b602002018181510191508181525050508080600101915050611268565b50829350505050919050565b60008060006060600080600060606000806000600360008d815260200190815260200160002054905060006001805490501180156113575750600081115b15611549576000600180830381548110151561136f57fe5b90600052602060002090600a0201905080600001548160010160009054906101000a900473ffffffffffffffffffffffffffffffffffffffff16826002015483600301846004015485600501548660060160009054906101000a900460ff16876007018860080160009054906101000a900460ff168960080160019054906101000a900460ff16868054600181600116156101000203166002900480601f01602080910402602001604051908101604052809291908181526020018280546001816001161561010002031660029004801561148b5780601f106114605761010080835404028352916020019161148b565b820191906000526020600020905b81548152906001019060200180831161146e57829003601f168201915b50505050509650828054600181600116156101000203166002900480601f0160208091040260200160405190810160405280929190818152602001828054600181600116156101000203166002900480156115275780601f106114fc57610100808354040283529160200191611527565b820191906000526020600020905b81548152906001019060200180831161150a57829003601f168201915b505050505092509b509b509b509b509b509b509b509b509b509b5050506115af565b60008060008060008060008087600102975086965085600102955060206040519081016040528060008152509493929190849450839350602060405190810160405280600081525091908191508090509a509a509a509a509a509a509a509a509a509a50505b9193959799509193959799565b6000809054906101000a900473ffffffffffffffffffffffffffffffffffffffff1681565b6060600080905060008090505b6001805490508110156116ad576003600481111561160857fe5b60018281548110151561161757fe5b90600052602060002090600a020160060160009054906101000a900460ff16600481111561164157fe5b14158015611692575060048081111561165657fe5b60018281548110151561166557fe5b90600052602060002090600a020160060160009054906101000a900460ff16600481111561168f57fe5b14155b156116a05781806001019250505b80806001019150506115ee565b506060816040519080825280602002602001820160405280156116df5781602001602082028038833980820191505090505b50905060008211156117fb576000809050600060018054905090505b60008111156117f8576003600481111561171157fe5b600180830381548110151561172257fe5b90600052602060002090600a020160060160009054906101000a900460ff16600481111561174c57fe5b1415801561179f575060048081111561176157fe5b600180830381548110151561177257fe5b90600052602060002090600a020160060160009054906101000a900460ff16600481111561179c57fe5b14155b156117ea5760018082038154811015156117b557fe5b90600052602060002090600a02016000015483838060010194508151811015156117db57fe5b90602001906020020181815250505b8080600190039150506116fb565b50505b809250505090565b60008060009054906101000a900473ffffffffffffffffffffffffffffffffffffffff1673ffffffffffffffffffffffffffffffffffffffff163373ffffffffffffffffffffffffffffffffffffffff1614151561186057600080fd5b60008490506000806001029050600060608060008060008773ffffffffffffffffffffffffffffffffffffffff16638c172fa28c6040518263ffffffff167c01000000000000000000000000000000000000000000000000000000000281526004018082815260200191505060006040518083038186803b1580156118e457600080fd5b505afa1580156118f8573d6000803e3d6000fd5b505050506040513d6000823e3d601f19601f8201168201806040525060e081101561192257600080fd5b8101908080519060200190929190805164010000000081111561194457600080fd5b8281019050602081018481111561195a57600080fd5b815185600182028301116401000000008211171561197757600080fd5b5050929190602001805190602001909291908051906020019092919080516401000000008111156119a757600080fd5b828101905060208101848111156119bd57600080fd5b81518560018202830111640100000000821117156119da57600080fd5b5050929190602001805190602001909291908051906020019092919050505050809850819950829650839750849a50859b5050505050505060016004811115611a1f57fe5b826004811115611a2b57fe5b1415611c94578b8b604051602001808373ffffffffffffffffffffffffffffffffffffffff1673ffffffffffffffffffffffffffffffffffffffff166c010000000000000000000000000281526014018281526020019250505060405160208183030381529060405280519060200120965060006001610160604051908101604052808a81526020018f73ffffffffffffffffffffffffffffffffffffffff1681526020018e81526020018881526020018481526020016008548e10611af1578d611af5565b6008545b815260200160016004811115611b0757fe5b81526020018781526020018660ff168152602001600060ff16815260200160008152509080600181540180825580915050906001820390600052602060002090600a0201600090919290919091506000820151816000015560208201518160010160006101000a81548173ffffffffffffffffffffffffffffffffffffffff021916908373ffffffffffffffffffffffffffffffffffffffff160217905550604082015181600201556060820151816003019080519060200190611bcc929190612289565b506080820151816004015560a0820151816005015560c08201518160060160006101000a81548160ff02191690836004811115611c0557fe5b021790555060e0820151816007019080519060200190611c26929190612289565b506101008201518160080160006101000a81548160ff021916908360ff1602179055506101208201518160080160016101000a81548160ff021916908360ff16021790555061014082015181600901555050905080600360008a815260200190815260200160002081905550505b86985050505050505050509392505050565b606060008090506060600180549050604051908082528060200260200182016040528015611ce35781602001602082028038833980820191505090505b5090506000821115611d5057600060018054905090505b6000811115611d4e57600181815481101515611d1257fe5b90600052602060002090600a0201600001548282815181101515611d3257fe5b9060200190602002018181525050808060019003915050611cfa565b505b809250505090565b6000809054906101000a900473ffffffffffffffffffffffffffffffffffffffff1673ffffffffffffffffffffffffffffffffffffffff163373ffffffffffffffffffffffffffffffffffffffff16141515611db357600080fd5b600073ffffffffffffffffffffffffffffffffffffffff168173ffffffffffffffffffffffffffffffffffffffff1614151515611def57600080fd5b8073ffffffffffffffffffffffffffffffffffffffff166000809054906101000a900473ffffffffffffffffffffffffffffffffffffffff1673ffffffffffffffffffffffffffffffffffffffff167f8be0079c531659141344cd1fd0a4f28419497f9722a3daafe3b4186f6b6457e060405160405180910390a3806000806101000a81548173ffffffffffffffffffffffffffffffffffffffff021916908373ffffffffffffffffffffffffffffffffffffffff16021790555050565b600060016003600084815260200190815260200160002054039050919050565b6000806000905060008360010160009054906101000a900473ffffffffffffffffffffffffffffffffffffffff1690506000606060008060606000808773ffffffffffffffffffffffffffffffffffffffff16638c172fa28c600201546040518263ffffffff167c01000000000000000000000000000000000000000000000000000000000281526004018082815260200191505060006040518083038186803b158015611f7a57600080fd5b505afa158015611f8e573d6000803e3d6000fd5b505050506040513d6000823e3d601f19601f8201168201806040525060e0811015611fb857600080fd5b81019080805190602001909291908051640100000000811115611fda57600080fd5b82810190506020810184811115611ff057600080fd5b815185600182028301116401000000008211171561200d57600080fd5b50509291906020018051906020019092919080519060200190929190805164010000000081111561203d57600080fd5b8281019050602081018481111561205357600080fd5b815185600182028301116401000000008211171561207057600080fd5b50509291906020018051906020019092919080519060200190929190505050809750819850829950839a50849b50859c50869d5050505050505050600060048111156120b857fe5b8560048111156120c457fe5b141515612160578460048111156120d757fe5b8b60060160009054906101000a900460ff1660048111156120f457fe5b14151561212157848b60060160006101000a81548160ff0219169083600481111561211b57fe5b02179055505b8060ff168b60080160019054906101000a900460ff1660ff1614151561215f57808b60080160016101000a81548160ff021916908360ff1602179055505b5b889950505050505050505050919050565b60008282604051602001808381526020018273ffffffffffffffffffffffffffffffffffffffff1673ffffffffffffffffffffffffffffffffffffffff166c010000000000000000000000000281526014019250505060405160208183030381529060405280519060200120905092915050565b60008282604051602001808381526020018260ff1660ff167f01000000000000000000000000000000000000000000000000000000000000000281526001019250505060405160208183030381529060405280519060200120905092915050565b6000806003600084815260200190815260200160002054119050919050565b611fe06040519081016040528060ff90602082028038833980820191505090505090565b828054600181600116156101000203166002900490600052602060002090601f016020900481019282601f106122ca57805160ff19168380011785556122f8565b828001600101855582156122f8579182015b828111156122f75782518255916020019190600101906122dc565b5b5090506123059190612309565b5090565b61232b91905b8082111561232757600081600090555060010161230f565b5090565b9056fea165627a7a723058208dbd78d4857563b22efb3a5b9161a300b9e73203da58648e61edc5fa90b752dc0029",
  "source": "pragma solidity ^0.5.0;\n\nimport \"./DateLib.sol\";\nimport \"./Ownable.sol\";\nimport \"./ProviderInterface.sol\";\n\n//TODO: enforce max number of bettable options (100?) \n\ncontract Anybet is Ownable {\n    Event[] public events; \n    Bet[] public bets;\n\n    mapping(bytes32 => uint) eventIdToIndex; \n    mapping(address => bytes32[]) internal userToBets;\n    mapping(bytes32 => uint[]) internal eventToBets;\n    mapping(bytes32 => Bet) internal betIdToBet; \n    mapping(bytes32 => uint) internal optionIdToBetAmount;\n\n    using DateLib for DateLib.DateTime;\n\n    //constants\n    //TODO: could be per event ?\n    uint internal globalMinBetAmt = 1000000000000;\n    uint internal houseCutPercentage = 3; \n\n    //defines an event along with its outcome\n    struct Event {\n        bytes32 eventId;\n        address providerAddress;\n        bytes32 providerEventId;\n        string name;\n        uint date; \n        uint minBetAmt;\n        ProviderInterface.EventState state;\n        string options;\n        uint8 optionCount; \n        uint8 outcome;\n        uint totalBet;\n    }\n\n    struct Bet {\n        bytes32 id; //hash of event id and user \n        address user;\n        bytes32 eventId;\n        uint amount; \n        uint8 option;\n    }\n\n\n    // -- PUBLIC METHODS -- \n\n    function getPendingEvents() public view returns (bytes32[] memory) {\n        uint count = 0; \n\n        //TODO: this might cost alot of gas\n\n        //get count of pending events \n        for (uint i = 0; i < events.length; i++) {\n            if (events[i].state != ProviderInterface.EventState.Completed && events[i].state != ProviderInterface.EventState.Cancelled) \n                count++; \n        }\n\n        //collect up all the pending events\n        bytes32[] memory output = new bytes32[](count); \n\n        if (count > 0) {\n            uint index = 0;\n            for (uint n = events.length; n > 0; n--) {\n                if (events[n-1].state != ProviderInterface.EventState.Completed && events[n-1].state != ProviderInterface.EventState.Cancelled) \n                    output[index++] = events[n-1].eventId;\n            }\n        } \n\n        return output; \n    }\n\n    function getAllEvents() public view returns (bytes32[] memory) {\n        uint count = 0; \n\n        //TODO: this might cost alot of gas\n        //collect up all the events\n        bytes32[] memory output = new bytes32[](events.length); \n\n        if (count > 0) {\n            for (uint n = events.length; n > 0; n--) {\n                output[n] = events[n].eventId;\n            }\n        } \n\n        return output; \n    }\n\n    function getEvent(bytes32 _eventId) public view returns (\n        bytes32 eventId,\n        address providerAddress,\n        bytes32 providerEventId,\n        string memory name,\n        uint date, \n        uint minBetAmt,\n        ProviderInterface.EventState state,\n        string memory options, \n        uint8 optionCount, \n        uint8 outcome \n    ) {\n        uint index = eventIdToIndex[_eventId]; \n        if (events.length > 0 && index > 0) {\n            Event storage evt = events[index-1]; \n            return (evt.eventId, evt.providerAddress, evt.providerEventId, evt.name, evt.date, evt.minBetAmt, evt.state, evt.options, evt.optionCount, evt.outcome); \n        }\n        \n        return (0, address(0), 0, \"\", 0, 0, ProviderInterface.EventState.Unknown, \"\", 0, 0);\n    }\n\n    function placeBet(bytes32 _eventId, uint8 _outcome) public payable returns (bool) {                                 \n        bool output = false; \n\n        //require that bet amount meets minimum requirement \n        require(msg.value >= globalMinBetAmt, \"bet amount is less than absolute minimum\");\n\n        //require that event exists \n        require(events.length > 0, \"no available events\"); \n        uint eventIndex = eventIdToIndex[_eventId]; \n        require(eventIndex > 0, \"event not found\"); \n\n        //refresh event from oracle provider\n        Event storage evt = events[_getEventIndex(_eventId)]; \n        _refreshEventFromProvider(evt); \n\n        //require that event is pending (bettable)\n        require(evt.state == ProviderInterface.EventState.Pending, \"event is not bettable\"); \n\n        //enforce minimum bet \n        require(msg.value >= evt.minBetAmt, \"bet amount is less than defined minimum\"); \n\n        //require that user doesn't already have a bet for this event \n        bool userHasBet = false;\n        bytes32[] storage userBets = userToBets[msg.sender]; \n        if (userBets.length > 0) {\n            for (uint n = 0; n < userBets.length; n++) {\n                if (userBets[n] == _eventId) {\n                    userHasBet = true;\n                    break;\n                }\n            }\n        }\n        //TODO: allow user to increase his bet?\n        require(!userHasBet, \"user already has a running bet for this event\");\n\n        //ensure that outcome is within proper range\n        require(_outcome >= 0 && _outcome < evt.optionCount, \"invalid chosen outcome - not within valid range of options\");\n\n        //place the bet \n        uint[] storage betIndexes = eventToBets[_eventId]; \n        bytes32 betId = _generateBetId(_eventId, msg.sender); \n        uint betIndex = bets.push(Bet(betId, msg.sender, _eventId, msg.value, _outcome))-1; \n        betIndexes.push(betIndex);\n        userBets.push(_eventId); \n        output = true;\n\n        //add to the total bet amount \n        evt.totalBet += msg.value;\n\n        //add to the total bet for option \n        bytes32 optionId = _generateOptionId(_eventId, _outcome); \n        optionIdToBetAmount[optionId] += msg.value;\n\n        return output; \n    }\n\n    //one element returned per bettable option (max 255) \n    function getBetTotals(bytes32 _eventId) public view returns(uint[255] memory) {\n        uint[255] memory output; \n        uint index = eventIdToIndex[_eventId]; \n        require(index > 0, \"event not found\"); \n\n        uint[] storage betIndexes = eventToBets[_eventId]; \n\n        for (uint n = 0; n<betIndexes.length; n++) {\n            uint betIndex = betIndexes[n]; \n            output[bets[betIndex].option] += bets[betIndex].amount; \n        }\n\n        return output; \n    }\n\n    function refreshEventFromProvider(bytes32 _eventId) public returns (bool) {\n        require(_eventExists(_eventId), \"Event not found\"); \n\n        uint eventIndex = _getEventIndex(_eventId); \n        return _refreshEventFromProvider(events[eventIndex]); \n    }\n\n\n    // -- EXTERNAL METHODS -- \n\n    function addEvent(address _providerAddress, bytes32 _eventId, uint _minBetAmt) external onlyOwner returns (bytes32) {\n        //get event from provider\n        \n        ProviderInterface provider = ProviderInterface(_providerAddress);\n        bytes32 newId = 0;\n        \n        bytes32 eventId;\n        string memory name;\n        string memory options; \n        uint8 optionCount; \n        ProviderInterface.EventState state;\n        uint date;\n\n        (eventId, name, state, date, options, optionCount,) = provider.getEvent(_eventId);\n\n        if (state == ProviderInterface.EventState.Pending) {\n            //generate new unique event index \n            newId = keccak256(abi.encodePacked(_providerAddress, _eventId)); \n\n            //add the event \n            uint newCount = events.push(Event(\n                newId,\n                _providerAddress, \n                _eventId,\n                name, \n                date,\n                (_minBetAmt < globalMinBetAmt) ? globalMinBetAmt : _minBetAmt,\n                ProviderInterface.EventState.Pending,\n                options, \n                optionCount,\n                0, \n                0\n            )); \n\n            //add event to index mapping\n            eventIdToIndex[newId] = newCount;\n\n            //add event to bets mapping \n        }\n\n        return newId;\n    }\n\n\n    // -- PRIVATE METHODS -- \n\n    function _generateBetId(bytes32 _eventId, address _user) private pure returns (bytes32) {\n        return keccak256(abi.encodePacked(_eventId, _user)); \n    }\n\n    function _generateOptionId(bytes32 _eventId, uint8 _option) private pure returns (bytes32) {\n        return keccak256(abi.encodePacked(_eventId, _option)); \n    }\n\n    function _getEmptyBet() private pure returns (Bet memory) {\n        return Bet(0, address(0), 0, 0, 0); \n    }\n\n    function _refreshEventFromProvider(Event storage _event) private returns (bool) {\n        bool output = false; \n\n        //get event from oracle \n        ProviderInterface provider = ProviderInterface(_event.providerAddress);\n                \n        bytes32 eventId;\n        string memory name;\n        ProviderInterface.EventState state;\n        uint date;\n        string memory options;\n        uint8 optionCount; \n        uint8 outcome; \n\n        (eventId, name, state, date, options, optionCount, outcome) = provider.getEvent(_event.providerEventId);\n\n        //update the internal record if necessary \n        if (state != ProviderInterface.EventState.Unknown) {\n            if (_event.state != state) \n                _event.state = state; \n            if (_event.outcome != outcome)\n                _event.outcome = outcome;\n        }\n\n        return output; \n    }\n\n    function _eventExists(bytes32 _eventId) private view returns (bool) {\n        return eventIdToIndex[_eventId] > 0;\n    }\n\n    function _getEventIndex(bytes32 _eventId) private view returns (uint) {\n        return eventIdToIndex[_eventId]-1; \n    }\n\n    function _getUserBetForEvent(bytes32 _eventId, address _user) private view returns (Bet storage) {\n        bytes32 betId = _generateBetId(_eventId, _user); \n        Bet storage bet = betIdToBet[betId]; \n        return bet; \n    }\n\n    function _getTotalBetOnEventOption(bytes32 _eventId, uint8 _option) private view returns (uint) {\n        bytes32 optionId = _generateOptionId(_eventId, _option);\n        return optionIdToBetAmount[optionId]; \n    }\n\n    function _calculateWinnings(bytes32 _eventId, address _user) private view returns (uint) {\n        \n        //ensure valid event id \n        require(_eventExists(_eventId), \"event not found\"); \n\n        //get the event \n        Event storage evt = events[_getEventIndex(_eventId)];\n\n        //if event was cancelled, refund all original bet amount\n        if (evt.state == ProviderInterface.EventState.Cancelled) {  \n            //return the full amount of bet, if user has made one\n            Bet storage userBet = _getUserBetForEvent(_eventId, _user);\n            if (userBet.user == _user) {\n                return userBet.amount;\n            }\n        }\n        else {\n            //require that event is finished\n            require(evt.state == ProviderInterface.EventState.Completed, \"event not yet completed\");\n\n            //get the user's bet\n            Bet storage userBet = _getUserBetForEvent(_eventId, _user);\n\n            if (userBet.user == _user) {\n\n                bool userIsWinner = (evt.outcome == userBet.option); \n\n                //if user lost, he gets nothing back \n                if (!userIsWinner) {\n                    return 0;\n                }\n                else {\n                    //get stats \n                    uint totalBetForEvent = evt.totalBet;\n                    uint totalWinningBet = _getTotalBetOnEventOption(_eventId, evt.outcome);\n                    uint totalLosingBet = (totalBetForEvent - totalWinningBet); \n\n                    //calculate winnings \n                    uint winnings = userBet.amount; \n                    winnings += ((winnings/totalWinningBet) * totalLosingBet); \n\n                    //return winnings minus house cut \n                    return winnings - (winnings/100) * houseCutPercentage; \n                }\n            }            \n        }\n\n        return 0;\n    }\n}",
  "sourcePath": "/home/acer/Desktop/anybet/code/contracts/anybet/contracts/Anybet.sol",
  "compiler": {
    "name": "solc",
    "version": "0.5.0+commit.1d4f565a.Emscripten.clang"
  },
  "schemaVersion": "3.0.0",
  "updatedAt": "2019-03-25T07:56:22.102Z",
  "devdoc": {
    "methods": {
      "transferOwnership(address)": {
        "details": "Allows the current owner to transfer control of the contract to a newOwner.",
        "params": {
          "newOwner": "The address to transfer ownership to."
        }
      }
    }
  },
  "userdoc": {
    "methods": {}
  }
}