{
  "contractName": "Anybet",
  "abi": [
    {
      "constant": true,
      "inputs": [
        {
          "name": "",
          "type": "uint256"
        }
      ],
      "name": "events",
      "outputs": [
        {
          "name": "eventId",
          "type": "bytes32"
        },
        {
          "name": "providerAddress",
          "type": "address"
        },
        {
          "name": "providerEventId",
          "type": "bytes32"
        },
        {
          "name": "name",
          "type": "string"
        },
        {
          "name": "date",
          "type": "uint256"
        },
        {
          "name": "state",
          "type": "uint8"
        },
        {
          "name": "options",
          "type": "string"
        },
        {
          "name": "optionCount",
          "type": "uint8"
        },
        {
          "name": "outcome",
          "type": "uint8"
        }
      ],
      "payable": false,
      "stateMutability": "view",
      "type": "function"
    },
    {
      "constant": true,
      "inputs": [
        {
          "name": "",
          "type": "uint256"
        }
      ],
      "name": "pendingEvents",
      "outputs": [
        {
          "name": "eventId",
          "type": "bytes32"
        },
        {
          "name": "providerAddress",
          "type": "address"
        },
        {
          "name": "providerEventId",
          "type": "bytes32"
        },
        {
          "name": "name",
          "type": "string"
        },
        {
          "name": "date",
          "type": "uint256"
        },
        {
          "name": "state",
          "type": "uint8"
        },
        {
          "name": "options",
          "type": "string"
        },
        {
          "name": "optionCount",
          "type": "uint8"
        },
        {
          "name": "outcome",
          "type": "uint8"
        }
      ],
      "payable": false,
      "stateMutability": "view",
      "type": "function"
    },
    {
      "constant": true,
      "inputs": [],
      "name": "owner",
      "outputs": [
        {
          "name": "",
          "type": "address"
        }
      ],
      "payable": false,
      "stateMutability": "view",
      "type": "function"
    },
    {
      "constant": false,
      "inputs": [
        {
          "name": "newOwner",
          "type": "address"
        }
      ],
      "name": "transferOwnership",
      "outputs": [],
      "payable": false,
      "stateMutability": "nonpayable",
      "type": "function"
    },
    {
      "anonymous": false,
      "inputs": [
        {
          "indexed": true,
          "name": "previousOwner",
          "type": "address"
        },
        {
          "indexed": true,
          "name": "newOwner",
          "type": "address"
        }
      ],
      "name": "OwnershipTransferred",
      "type": "event"
    },
    {
      "constant": false,
      "inputs": [
        {
          "name": "_providerAddress",
          "type": "address"
        },
        {
          "name": "_eventId",
          "type": "bytes32"
        }
      ],
      "name": "addEvent",
      "outputs": [
        {
          "name": "",
          "type": "bytes32"
        }
      ],
      "payable": false,
      "stateMutability": "nonpayable",
      "type": "function"
    },
    {
      "constant": true,
      "inputs": [],
      "name": "getPendingEvents",
      "outputs": [
        {
          "name": "",
          "type": "bytes32[]"
        }
      ],
      "payable": false,
      "stateMutability": "view",
      "type": "function"
    },
    {
      "constant": true,
      "inputs": [
        {
          "name": "_eventId",
          "type": "bytes32"
        }
      ],
      "name": "getEvent",
      "outputs": [
        {
          "name": "eventId",
          "type": "bytes32"
        },
        {
          "name": "providerAddress",
          "type": "address"
        },
        {
          "name": "providerEventId",
          "type": "bytes32"
        },
        {
          "name": "name",
          "type": "string"
        },
        {
          "name": "date",
          "type": "uint256"
        },
        {
          "name": "state",
          "type": "uint8"
        },
        {
          "name": "options",
          "type": "string"
        },
        {
          "name": "optionCount",
          "type": "uint8"
        },
        {
          "name": "outcome",
          "type": "uint8"
        }
      ],
      "payable": false,
      "stateMutability": "view",
      "type": "function"
    },
    {
      "constant": false,
      "inputs": [
        {
          "name": "_eventId",
          "type": "bytes32"
        },
        {
          "name": "_outcome",
          "type": "uint8"
        }
      ],
      "name": "placeBet",
      "outputs": [
        {
          "name": "",
          "type": "bool"
        }
      ],
      "payable": true,
      "stateMutability": "payable",
      "type": "function"
    },
    {
      "constant": true,
      "inputs": [
        {
          "name": "_eventId",
          "type": "bytes32"
        }
      ],
      "name": "getBetTotals",
      "outputs": [
        {
          "name": "",
          "type": "uint256[255]"
        }
      ],
      "payable": false,
      "stateMutability": "view",
      "type": "function"
    }
  ],
  "bytecode": "0x608060405264e8d4a51000600655336000806101000a81548173ffffffffffffffffffffffffffffffffffffffff021916908373ffffffffffffffffffffffffffffffffffffffff1602179055506122d98061005c6000396000f3fe608060405260043610610099576000357c0100000000000000000000000000000000000000000000000000000000900463ffffffff1680630b7914301461009e5780630e52bb49146102355780635e5f89151461028857806368876ad5146102ff57806376df42ef146104965780638c172fa2146105055780638da5cb5b1461069c578063b4184e70146106f3578063f2fde38b1461075f575b600080fd5b3480156100aa57600080fd5b506100d7600480360360208110156100c157600080fd5b81019080803590602001909291905050506107b0565b604051808a81526020018973ffffffffffffffffffffffffffffffffffffffff1673ffffffffffffffffffffffffffffffffffffffff1681526020018881526020018060200187815260200186600481111561012f57fe5b60ff168152602001806020018560ff1660ff1681526020018460ff1660ff168152602001838103835289818151815260200191508051906020019080838360005b8381101561018b578082015181840152602081019050610170565b50505050905090810190601f1680156101b85780820380516001836020036101000a031916815260200191505b50838103825286818151815260200191508051906020019080838360005b838110156101f15780820151818401526020810190506101d6565b50505050905090810190601f16801561021e5780820380516001836020036101000a031916815260200191505b509b50505050505050505050505060405180910390f35b61026e6004803603604081101561024b57600080fd5b8101908080359060200190929190803560ff169060200190929190505050610984565b604051808215151515815260200191505060405180910390f35b34801561029457600080fd5b506102c1600480360360208110156102ab57600080fd5b8101908080359060200190929190505050610f21565b604051808260ff60200280838360005b838110156102ec5780820151818401526020810190506102d1565b5050505090500191505060405180910390f35b34801561030b57600080fd5b506103386004803603602081101561032257600080fd5b810190808035906020019092919050505061106f565b604051808a81526020018973ffffffffffffffffffffffffffffffffffffffff1673ffffffffffffffffffffffffffffffffffffffff1681526020018881526020018060200187815260200186600481111561039057fe5b60ff168152602001806020018560ff1660ff1681526020018460ff1660ff168152602001838103835289818151815260200191508051906020019080838360005b838110156103ec5780820151818401526020810190506103d1565b50505050905090810190601f1680156104195780820380516001836020036101000a031916815260200191505b50838103825286818151815260200191508051906020019080838360005b83811015610452578082015181840152602081019050610437565b50505050905090810190601f16801561047f5780820380516001836020036101000a031916815260200191505b509b50505050505050505050505060405180910390f35b3480156104a257600080fd5b506104ef600480360360408110156104b957600080fd5b81019080803573ffffffffffffffffffffffffffffffffffffffff16906020019092919080359060200190929190505050611243565b6040518082815260200191505060405180910390f35b34801561051157600080fd5b5061053e6004803603602081101561052857600080fd5b8101908080359060200190929190505050611864565b604051808a81526020018973ffffffffffffffffffffffffffffffffffffffff1673ffffffffffffffffffffffffffffffffffffffff1681526020018881526020018060200187815260200186600481111561059657fe5b60ff168152602001806020018560ff1660ff1681526020018460ff1660ff168152602001838103835289818151815260200191508051906020019080838360005b838110156105f25780820151818401526020810190506105d7565b50505050905090810190601f16801561061f5780820380516001836020036101000a031916815260200191505b50838103825286818151815260200191508051906020019080838360005b8381101561065857808201518184015260208101905061063d565b50505050905090810190601f1680156106855780820380516001836020036101000a031916815260200191505b509b50505050505050505050505060405180910390f35b3480156106a857600080fd5b506106b1611afd565b604051808273ffffffffffffffffffffffffffffffffffffffff1673ffffffffffffffffffffffffffffffffffffffff16815260200191505060405180910390f35b3480156106ff57600080fd5b50610708611b22565b6040518080602001828103825283818151815260200191508051906020019060200280838360005b8381101561074b578082015181840152602081019050610730565b505050509050019250505060405180910390f35b34801561076b57600080fd5b506107ae6004803603602081101561078257600080fd5b81019080803573ffffffffffffffffffffffffffffffffffffffff169060200190929190505050611d44565b005b6001818154811015156107bf57fe5b90600052602060002090600802016000915090508060000154908060010160009054906101000a900473ffffffffffffffffffffffffffffffffffffffff1690806002015490806003018054600181600116156101000203166002900480601f01602080910402602001604051908101604052809291908181526020018280546001816001161561010002031660029004801561089d5780601f106108725761010080835404028352916020019161089d565b820191906000526020600020905b81548152906001019060200180831161088057829003601f168201915b5050505050908060040154908060050160009054906101000a900460ff1690806006018054600181600116156101000203166002900480601f0160208091040260200160405190810160405280929190818152602001828054600181600116156101000203166002900480156109545780601f1061092957610100808354040283529160200191610954565b820191906000526020600020905b81548152906001019060200180831161093757829003601f168201915b5050505050908060070160009054906101000a900460ff16908060070160019054906101000a900460ff16905089565b600080600090506006543410151515610a05576040517f08c379a000000000000000000000000000000000000000000000000000000000815260040180806020018281038252601f8152602001807f62657420616d6f756e74206973206c657373207468616e206d696e696d756d0081525060200191505060405180910390fd5b6000600180549050111515610a82576040517f08c379a00000000000000000000000000000000000000000000000000000000081526004018080602001828103825260138152602001807f6e6f20617661696c61626c65206576656e74730000000000000000000000000081525060200191505060405180910390fd5b600060036000868152602001908152602001600020549050600081111515610b12576040517f08c379a000000000000000000000000000000000000000000000000000000000815260040180806020018281038252600f8152602001807f6576656e74206e6f7420666f756e64000000000000000000000000000000000081525060200191505060405180910390fd5b60006001610b1f87611e99565b815481101515610b2b57fe5b90600052602060002090600802019050610b4481611eb9565b5060016004811115610b5257fe5b8160050160009054906101000a900460ff166004811115610b6f57fe5b141515610be4576040517f08c379a00000000000000000000000000000000000000000000000000000000081526004018080602001828103825260158152602001807f6576656e74206973206e6f74206265747461626c65000000000000000000000081525060200191505060405180910390fd5b60008090506000600460003373ffffffffffffffffffffffffffffffffffffffff1673ffffffffffffffffffffffffffffffffffffffff1681526020019081526020016000209050600081805490501115610c835760008090505b8180549050811015610c8157888282815481101515610c5a57fe5b90600052602060002001541415610c745760019250610c81565b8080600101915050610c3f565b505b81151515610d1f576040517f08c379a000000000000000000000000000000000000000000000000000000000815260040180806020018281038252602d8152602001807f7573657220616c72656164792068617320612072756e6e696e6720626574206681526020017f6f722074686973206576656e740000000000000000000000000000000000000081525060400191505060405180910390fd5b60008760ff1610158015610d4957508260070160009054906101000a900460ff1660ff168760ff16105b1515610de3576040517f08c379a000000000000000000000000000000000000000000000000000000000815260040180806020018281038252603a8152602001807f696e76616c69642063686f73656e206f7574636f6d65202d206e6f742077697481526020017f68696e2076616c69642072616e6765206f66206f7074696f6e7300000000000081525060400191505060405180910390fd5b6000600560008a815260200190815260200160002090506001816080604051908101604052803373ffffffffffffffffffffffffffffffffffffffff1681526020018c81526020013481526020018b60ff168152509080600181540180825580915050906001820390600052602060002090600402016000909192909190915060008201518160000160006101000a81548173ffffffffffffffffffffffffffffffffffffffff021916908373ffffffffffffffffffffffffffffffffffffffff160217905550602082015181600101556040820151816002015560608201518160030160006101000a81548160ff021916908360ff16021790555050505050818990806001815401808255809150509060018203906000526020600020016000909192909190915055506001955085965050505050505092915050565b610f2961215d565b610f3161215d565b600060036000858152602001908152602001600020549050600081111515610fc1576040517f08c379a000000000000000000000000000000000000000000000000000000000815260040180806020018281038252600f8152602001807f6576656e74206e6f7420666f756e64000000000000000000000000000000000081525060200191505060405180910390fd5b600060056000868152602001908152602001600020905060008090505b8180549050811015611063578181815481101515610ff857fe5b90600052602060002090600402016002015484838381548110151561101957fe5b906000526020600020906004020160030160009054906101000a900460ff1660ff1660ff8110151561104757fe5b6020020181815101915081815250508080600101915050610fde565b50829350505050919050565b60028181548110151561107e57fe5b90600052602060002090600802016000915090508060000154908060010160009054906101000a900473ffffffffffffffffffffffffffffffffffffffff1690806002015490806003018054600181600116156101000203166002900480601f01602080910402602001604051908101604052809291908181526020018280546001816001161561010002031660029004801561115c5780601f106111315761010080835404028352916020019161115c565b820191906000526020600020905b81548152906001019060200180831161113f57829003601f168201915b5050505050908060040154908060050160009054906101000a900460ff1690806006018054600181600116156101000203166002900480601f0160208091040260200160405190810160405280929190818152602001828054600181600116156101000203166002900480156112135780601f106111e857610100808354040283529160200191611213565b820191906000526020600020905b8154815290600101906020018083116111f657829003601f168201915b5050505050908060070160009054906101000a900460ff16908060070160019054906101000a900460ff16905089565b60008060009054906101000a900473ffffffffffffffffffffffffffffffffffffffff1673ffffffffffffffffffffffffffffffffffffffff163373ffffffffffffffffffffffffffffffffffffffff161415156112a057600080fd5b60008390506000806001029050600060608060008060008773ffffffffffffffffffffffffffffffffffffffff16638c172fa28b6040518263ffffffff167c01000000000000000000000000000000000000000000000000000000000281526004018082815260200191505060006040518083038186803b15801561132457600080fd5b505afa158015611338573d6000803e3d6000fd5b505050506040513d6000823e3d601f19601f8201168201806040525060e081101561136257600080fd5b8101908080519060200190929190805164010000000081111561138457600080fd5b8281019050602081018481111561139a57600080fd5b81518560018202830111640100000000821117156113b757600080fd5b5050929190602001805190602001909291908051906020019092919080516401000000008111156113e757600080fd5b828101905060208101848111156113fd57600080fd5b815185600182028301116401000000008211171561141a57600080fd5b5050929190602001805190602001909291908051906020019092919050505050809850819950829650839750849a50859b505050505050506001600481111561145f57fe5b82600481111561146b57fe5b1415611853578a8a604051602001808373ffffffffffffffffffffffffffffffffffffffff1673ffffffffffffffffffffffffffffffffffffffff166c010000000000000000000000000281526014018281526020019250505060405160208183030381529060405280519060200120965060006001610120604051908101604052808a81526020018e73ffffffffffffffffffffffffffffffffffffffff1681526020018d81526020018881526020018481526020016001600481111561152f57fe5b81526020018781526020018660ff168152602001600060ff16815250908060018154018082558091505090600182039060005260206000209060080201600090919290919091506000820151816000015560208201518160010160006101000a81548173ffffffffffffffffffffffffffffffffffffffff021916908373ffffffffffffffffffffffffffffffffffffffff1602179055506040820151816002015560608201518160030190805190602001906115ed929190612181565b506080820151816004015560a08201518160050160006101000a81548160ff0219169083600481111561161c57fe5b021790555060c082015181600601908051906020019061163d929190612181565b5060e08201518160070160006101000a81548160ff021916908360ff1602179055506101008201518160070160016101000a81548160ff021916908360ff1602179055505050905080600360008a81526020019081526020016000208190555060026001828154811015156116ae57fe5b906000526020600020906008020190806001815401808255809150509060018203906000526020600020906008020160009091929091909150600082015481600001556001820160009054906101000a900473ffffffffffffffffffffffffffffffffffffffff168160010160006101000a81548173ffffffffffffffffffffffffffffffffffffffff021916908373ffffffffffffffffffffffffffffffffffffffff1602179055506002820154816002015560038201816003019080546001816001161561010002031660029004611789929190612201565b50600482015481600401556005820160009054906101000a900460ff168160050160006101000a81548160ff021916908360048111156117c557fe5b0217905550600682018160060190805460018160011615610100020316600290046117f1929190612201565b506007820160009054906101000a900460ff168160070160006101000a81548160ff021916908360ff1602179055506007820160019054906101000a900460ff168160070160016101000a81548160ff021916908360ff160217905550505050505b869850505050505050505092915050565b6000806000606060008060606000806000600360008c815260200190815260200160002054905060006001805490501180156118a05750600081115b15611a9157600060016118b28d611e99565b8154811015156118be57fe5b9060005260206000209060080201905080600001548160010160009054906101000a900473ffffffffffffffffffffffffffffffffffffffff1682600201548360030184600401548560050160009054906101000a900460ff16866006018760070160009054906101000a900460ff168860070160019054906101000a900460ff16858054600181600116156101000203166002900480601f0160208091040260200160405190810160405280929190818152602001828054600181600116156101000203166002900480156119d55780601f106119aa576101008083540402835291602001916119d5565b820191906000526020600020905b8154815290600101906020018083116119b857829003601f168201915b50505050509550828054600181600116156101000203166002900480601f016020809104026020016040519081016040528092919081815260200182805460018160011615610100020316600290048015611a715780601f10611a4657610100808354040283529160200191611a71565b820191906000526020600020905b815481529060010190602001808311611a5457829003601f168201915b505050505092509a509a509a509a509a509a509a509a509a505050611af0565b600080600080600080600086600102965085955084600102945060206040519081016040528060008152509392919083935060206040519081016040528060008152509190819150809050995099509950995099509950995099509950505b9193959799909294969850565b6000809054906101000a900473ffffffffffffffffffffffffffffffffffffffff1681565b6060600080905060008090505b600180549050811015611bee5760036004811115611b4957fe5b600182815481101515611b5857fe5b906000526020600020906008020160050160009054906101000a900460ff166004811115611b8257fe5b14158015611bd35750600480811115611b9757fe5b600182815481101515611ba657fe5b906000526020600020906008020160050160009054906101000a900460ff166004811115611bd057fe5b14155b15611be15781806001019250505b8080600101915050611b2f565b50606081604051908082528060200260200182016040528015611c205781602001602082028038833980820191505090505b5090506000821115611d3c576000809050600060018054905090505b6000811115611d395760036004811115611c5257fe5b6001808303815481101515611c6357fe5b906000526020600020906008020160050160009054906101000a900460ff166004811115611c8d57fe5b14158015611ce05750600480811115611ca257fe5b6001808303815481101515611cb357fe5b906000526020600020906008020160050160009054906101000a900460ff166004811115611cdd57fe5b14155b15611d2b576001808203815481101515611cf657fe5b9060005260206000209060080201600001548383806001019450815181101515611d1c57fe5b90602001906020020181815250505b808060019003915050611c3c565b50505b809250505090565b6000809054906101000a900473ffffffffffffffffffffffffffffffffffffffff1673ffffffffffffffffffffffffffffffffffffffff163373ffffffffffffffffffffffffffffffffffffffff16141515611d9f57600080fd5b600073ffffffffffffffffffffffffffffffffffffffff168173ffffffffffffffffffffffffffffffffffffffff1614151515611ddb57600080fd5b8073ffffffffffffffffffffffffffffffffffffffff166000809054906101000a900473ffffffffffffffffffffffffffffffffffffffff1673ffffffffffffffffffffffffffffffffffffffff167f8be0079c531659141344cd1fd0a4f28419497f9722a3daafe3b4186f6b6457e060405160405180910390a3806000806101000a81548173ffffffffffffffffffffffffffffffffffffffff021916908373ffffffffffffffffffffffffffffffffffffffff16021790555050565b600060016003600084815260200190815260200160002054039050919050565b6000806000905060008360010160009054906101000a900473ffffffffffffffffffffffffffffffffffffffff1690506000606060008060606000808773ffffffffffffffffffffffffffffffffffffffff16638c172fa28c600201546040518263ffffffff167c01000000000000000000000000000000000000000000000000000000000281526004018082815260200191505060006040518083038186803b158015611f6657600080fd5b505afa158015611f7a573d6000803e3d6000fd5b505050506040513d6000823e3d601f19601f8201168201806040525060e0811015611fa457600080fd5b81019080805190602001909291908051640100000000811115611fc657600080fd5b82810190506020810184811115611fdc57600080fd5b8151856001820283011164010000000082111715611ff957600080fd5b50509291906020018051906020019092919080519060200190929190805164010000000081111561202957600080fd5b8281019050602081018481111561203f57600080fd5b815185600182028301116401000000008211171561205c57600080fd5b50509291906020018051906020019092919080519060200190929190505050809750819850829950839a50849b50859c50869d5050505050505050600060048111156120a457fe5b8560048111156120b057fe5b14151561214c578460048111156120c357fe5b8b60050160009054906101000a900460ff1660048111156120e057fe5b14151561210d57848b60050160006101000a81548160ff0219169083600481111561210757fe5b02179055505b8060ff168b60070160019054906101000a900460ff1660ff1614151561214b57808b60070160016101000a81548160ff021916908360ff1602179055505b5b889950505050505050505050919050565b611fe06040519081016040528060ff90602082028038833980820191505090505090565b828054600181600116156101000203166002900490600052602060002090601f016020900481019282601f106121c257805160ff19168380011785556121f0565b828001600101855582156121f0579182015b828111156121ef5782518255916020019190600101906121d4565b5b5090506121fd9190612288565b5090565b828054600181600116156101000203166002900490600052602060002090601f016020900481019282601f1061223a5780548555612277565b8280016001018555821561227757600052602060002091601f016020900482015b8281111561227657825482559160010191906001019061225b565b5b5090506122849190612288565b5090565b6122aa91905b808211156122a657600081600090555060010161228e565b5090565b9056fea165627a7a72305820126a3de69e04cd84346935a1e94cca71431b4592435a73cfad6707cf64f04c260029",
  "source": "pragma solidity ^0.5.0;\n\nimport \"./DateLib.sol\";\nimport \"./Ownable.sol\";\nimport \"./ProviderInterface.sol\";\n\ncontract Anybet is Ownable {\n    Event[] public events; \n    Event[] public pendingEvents;\n\n    mapping(bytes32 => uint) eventIdToIndex; \n    mapping(address => bytes32[]) internal userToBets;\n    mapping(bytes32 => Bet[]) internal eventToBets;\n\n    using DateLib for DateLib.DateTime;\n\n    //constants\n    //TODO: could be per event ?\n    uint internal minimumBetAmount = 1000000000000;\n\n    //defines an event along with its outcome\n    struct Event {\n        bytes32 eventId;\n        address providerAddress;\n        bytes32 providerEventId;\n        string name;\n        uint date; \n        ProviderInterface.EventState state;\n        string options;\n        uint8 optionCount; \n        uint8 outcome;\n    }\n\n    struct Bet {\n        address user;\n        bytes32 eventId;\n        uint amount; \n        uint8 option;\n    }\n\n    function addEvent(address _providerAddress, bytes32 _eventId) external onlyOwner returns (bytes32) {\n        //get event from provider\n        \n        ProviderInterface provider = ProviderInterface(_providerAddress);\n        bytes32 newId = 0;\n        \n        bytes32 eventId;\n        string memory name;\n        string memory options; \n        uint8 optionCount; \n        ProviderInterface.EventState state;\n        uint date;\n\n        (eventId, name, state, date, options, optionCount,) = provider.getEvent(_eventId);\n\n        if (state == ProviderInterface.EventState.Pending) {\n            //generate new unique event index \n            newId = keccak256(abi.encodePacked(_providerAddress, _eventId)); \n\n            //add the event \n            uint newIndex = events.push(Event(\n                newId,\n                _providerAddress, \n                _eventId,\n                name, \n                date,\n                ProviderInterface.EventState.Pending,\n                options, \n                optionCount,\n                0  \n            )); \n            eventIdToIndex[newId] = newIndex;\n            pendingEvents.push(events[newIndex]); \n        }\n\n        return newId;\n    }\n\n    function getPendingEvents() public view returns (bytes32[] memory) {\n        uint count = 0; \n\n        //TODO: this might cost alot of gas\n\n        //get count of pending events \n        for (uint i = 0; i < events.length; i++) {\n            if (events[i].state != ProviderInterface.EventState.Completed && events[i].state != ProviderInterface.EventState.Cancelled) \n                count++; \n        }\n\n        //collect up all the pending events\n        bytes32[] memory output = new bytes32[](count); \n\n        if (count > 0) {\n            uint index = 0;\n            for (uint n = events.length; n > 0; n--) {\n                if (events[n-1].state != ProviderInterface.EventState.Completed && events[n-1].state != ProviderInterface.EventState.Cancelled) \n                    output[index++] = events[n-1].eventId;\n            }\n        } \n\n        return output; \n    }\n\n    function getEvent(bytes32 _eventId) public view returns (\n        bytes32 eventId,\n        address providerAddress,\n        bytes32 providerEventId,\n        string memory name,\n        uint date, \n        ProviderInterface.EventState state,\n        string memory options, \n        uint8 optionCount, \n        uint8 outcome \n    ) {\n        uint index = eventIdToIndex[_eventId]; \n        if (events.length > 0 && index > 0) {\n            Event storage evt = events[_getEventIndex(_eventId)]; \n            return (evt.eventId, evt.providerAddress, evt.providerEventId, evt.name, evt.date, evt.state, evt.options, evt.optionCount, evt.outcome); \n            //return (_eventId, address(0), 0, \"\", index, ProviderInterface.EventState.Unknown, \"\", 0, 0);\n        }\n        \n        return (0, address(0), 0, \"\", 0, ProviderInterface.EventState.Unknown, \"\", 0, 0);\n    }\n\n    function placeBet(bytes32 _eventId, uint8 _outcome) public payable returns (bool) {                                 \n        bool output = false; \n\n        //require that bet amount meets minimum requirement \n        require(msg.value >= minimumBetAmount, \"bet amount is less than minimum\");\n\n        //require that event exists \n        require(events.length > 0, \"no available events\"); \n        uint eventIndex = eventIdToIndex[_eventId]; \n        require(eventIndex > 0, \"event not found\"); \n\n        //refresh event from oracle provider\n        Event storage evt = events[_getEventIndex(_eventId)]; \n        _refreshEventFromProvider(evt); \n\n        //require that event is pending (bettable)\n        require(evt.state == ProviderInterface.EventState.Pending, \"event is not bettable\"); \n\n        //require that user doesn't already have a bet for this event \n        bool userHasBet = false;\n        bytes32[] storage userBets = userToBets[msg.sender]; \n        if (userBets.length > 0) {\n            for (uint n = 0; n < userBets.length; n++) {\n                if (userBets[n] == _eventId) {\n                    userHasBet = true;\n                    break;\n                }\n            }\n        }\n        //TODO: allow user to increase his bet?\n        require(!userHasBet, \"user already has a running bet for this event\");\n\n        //ensure that outcome is within proper range\n        require(_outcome >= 0 && _outcome < evt.optionCount, \"invalid chosen outcome - not within valid range of options\");\n\n        //place the bet \n        Bet[] storage bets = eventToBets[_eventId]; \n        bets.push(Bet(msg.sender, _eventId, msg.value, _outcome))-1; \n        userBets.push(_eventId); \n        output = true;\n\n        return output; \n    }\n\n    function getBetTotals(bytes32 _eventId) public view returns(uint[255] memory) {\n        uint[255] memory output; \n        uint index = eventIdToIndex[_eventId]; \n        require(index > 0, \"event not found\"); \n\n        Bet[] storage bets = eventToBets[_eventId]; \n\n        for (uint n = 0; n<bets.length; n++) {\n            output[bets[n].option] += bets[n].amount; \n        }\n\n        return output; \n    }\n\n\n    // -- PRIVATE METHODS -- \n\n    function _refreshEventFromProvider(Event storage _event) private returns (bool) {\n        bool output = false; \n\n        //get event from oracle \n        ProviderInterface provider = ProviderInterface(_event.providerAddress);\n                \n        bytes32 eventId;\n        string memory name;\n        ProviderInterface.EventState state;\n        uint date;\n        string memory options;\n        uint8 optionCount; \n        uint8 outcome; \n\n        (eventId, name, state, date, options, optionCount, outcome) = provider.getEvent(_event.providerEventId);\n\n        //update the internal record if necessary \n        if (state != ProviderInterface.EventState.Unknown) {\n            if (_event.state != state) \n                _event.state = state; \n            if (_event.outcome != outcome)\n                _event.outcome = outcome;\n        }\n\n        return output; \n    }\n\n    function _getEventIndex(bytes32 _eventId) private view returns (uint) {\n        return eventIdToIndex[_eventId]-1; \n    }\n}",
  "sourcePath": "/home/acer/Desktop/anybet/code/contracts/anybet/contracts/Anybet.sol",
  "compiler": {
    "name": "solc",
    "version": "0.5.0+commit.1d4f565a.Emscripten.clang"
  },
  "schemaVersion": "3.0.0",
  "updatedAt": "2018-12-31T20:26:47.040Z",
  "devdoc": {
    "methods": {
      "transferOwnership(address)": {
        "details": "Allows the current owner to transfer control of the contract to a newOwner.",
        "params": {
          "newOwner": "The address to transfer ownership to."
        }
      }
    }
  },
  "userdoc": {
    "methods": {}
  }
}