{
  "contractName": "Anybet",
  "abi": [
    {
      "constant": true,
      "inputs": [],
      "name": "owner",
      "outputs": [
        {
          "name": "",
          "type": "address"
        }
      ],
      "payable": false,
      "stateMutability": "view",
      "type": "function"
    },
    {
      "constant": false,
      "inputs": [
        {
          "name": "newOwner",
          "type": "address"
        }
      ],
      "name": "transferOwnership",
      "outputs": [],
      "payable": false,
      "stateMutability": "nonpayable",
      "type": "function"
    },
    {
      "anonymous": false,
      "inputs": [
        {
          "indexed": true,
          "name": "previousOwner",
          "type": "address"
        },
        {
          "indexed": true,
          "name": "newOwner",
          "type": "address"
        }
      ],
      "name": "OwnershipTransferred",
      "type": "event"
    },
    {
      "constant": false,
      "inputs": [
        {
          "name": "_providerAddress",
          "type": "address"
        },
        {
          "name": "_eventId",
          "type": "bytes32"
        }
      ],
      "name": "addEvent",
      "outputs": [
        {
          "name": "",
          "type": "bytes32"
        }
      ],
      "payable": false,
      "stateMutability": "nonpayable",
      "type": "function"
    },
    {
      "constant": true,
      "inputs": [
        {
          "name": "_eventId",
          "type": "bytes32"
        }
      ],
      "name": "getEvent",
      "outputs": [
        {
          "name": "eventId",
          "type": "bytes32"
        },
        {
          "name": "providerAddress",
          "type": "address"
        },
        {
          "name": "providerEventId",
          "type": "bytes32"
        },
        {
          "name": "name",
          "type": "string"
        },
        {
          "name": "date",
          "type": "uint256"
        },
        {
          "name": "state",
          "type": "uint8"
        },
        {
          "name": "options",
          "type": "string"
        },
        {
          "name": "optionCount",
          "type": "uint8"
        },
        {
          "name": "result",
          "type": "uint8"
        }
      ],
      "payable": false,
      "stateMutability": "view",
      "type": "function"
    },
    {
      "constant": false,
      "inputs": [
        {
          "name": "_eventId",
          "type": "bytes32"
        },
        {
          "name": "_result",
          "type": "uint8"
        }
      ],
      "name": "placeBet",
      "outputs": [
        {
          "name": "",
          "type": "bool"
        }
      ],
      "payable": true,
      "stateMutability": "payable",
      "type": "function"
    }
  ],
  "bytecode": "0x608060405264e8d4a51000600555336000806101000a81548173ffffffffffffffffffffffffffffffffffffffff021916908373ffffffffffffffffffffffffffffffffffffffff1602179055506114368061005c6000396000f3fe60806040526004361061006d576000357c0100000000000000000000000000000000000000000000000000000000900463ffffffff1680630e52bb491461007257806376df42ef146100c55780638c172fa2146101345780638da5cb5b146102cb578063f2fde38b14610322575b600080fd5b6100ab6004803603604081101561008857600080fd5b8101908080359060200190929190803560ff169060200190929190505050610373565b604051808215151515815260200191505060405180910390f35b3480156100d157600080fd5b5061011e600480360360408110156100e857600080fd5b81019080803573ffffffffffffffffffffffffffffffffffffffff16906020019092919080359060200190929190505050610845565b6040518082815260200191505060405180910390f35b34801561014057600080fd5b5061016d6004803603602081101561015757600080fd5b8101908080359060200190929190505050610cb5565b604051808a81526020018973ffffffffffffffffffffffffffffffffffffffff1673ffffffffffffffffffffffffffffffffffffffff168152602001888152602001806020018781526020018660048111156101c557fe5b60ff168152602001806020018560ff1660ff1681526020018460ff1660ff168152602001838103835289818151815260200191508051906020019080838360005b83811015610221578082015181840152602081019050610206565b50505050905090810190601f16801561024e5780820380516001836020036101000a031916815260200191505b50838103825286818151815260200191508051906020019080838360005b8381101561028757808201518184015260208101905061026c565b50505050905090810190601f1680156102b45780820380516001836020036101000a031916815260200191505b509b50505050505050505050505060405180910390f35b3480156102d757600080fd5b506102e0610f47565b604051808273ffffffffffffffffffffffffffffffffffffffff1673ffffffffffffffffffffffffffffffffffffffff16815260200191505060405180910390f35b34801561032e57600080fd5b506103716004803603602081101561034557600080fd5b81019080803573ffffffffffffffffffffffffffffffffffffffff169060200190929190505050610f6c565b005b6000806000905060055434101515156103f4576040517f08c379a000000000000000000000000000000000000000000000000000000000815260040180806020018281038252601f8152602001807f62657420616d6f756e74206973206c657373207468616e206d696e696d756d0081525060200191505060405180910390fd5b6000600180549050111515610471576040517f08c379a00000000000000000000000000000000000000000000000000000000081526004018080602001828103825260138152602001807f6e6f20617661696c61626c65206576656e74730000000000000000000000000081525060200191505060405180910390fd5b60006002600086815260200190815260200160002054905060008110151515610502576040517f08c379a000000000000000000000000000000000000000000000000000000000815260040180806020018281038252600f8152602001807f6576656e74206e6f7420666f756e64000000000000000000000000000000000081525060200191505060405180910390fd5b600060018281548110151561051357fe5b9060005260206000209060080201905061052c816110c1565b506001600481111561053a57fe5b8160050160009054906101000a900460ff16600481111561055757fe5b1415156105cc576040517f08c379a00000000000000000000000000000000000000000000000000000000081526004018080602001828103825260158152602001807f6576656e74206973206e6f74206265747461626c65000000000000000000000081525060200191505060405180910390fd5b60008090506000600360003373ffffffffffffffffffffffffffffffffffffffff1673ffffffffffffffffffffffffffffffffffffffff168152602001908152602001600020905060008180549050111561066b5760008090505b81805490508110156106695788828281548110151561064257fe5b9060005260206000200154141561065c5760019250610669565b8080600101915050610627565b505b81151515610707576040517f08c379a000000000000000000000000000000000000000000000000000000000815260040180806020018281038252602d8152602001807f7573657220616c72656164792068617320612072756e6e696e6720626574206681526020017f6f722074686973206576656e740000000000000000000000000000000000000081525060400191505060405180910390fd5b6000600460008a815260200190815260200160002090506001816080604051908101604052803373ffffffffffffffffffffffffffffffffffffffff1681526020018c81526020013481526020018b60ff168152509080600181540180825580915050906001820390600052602060002090600402016000909192909190915060008201518160000160006101000a81548173ffffffffffffffffffffffffffffffffffffffff021916908373ffffffffffffffffffffffffffffffffffffffff160217905550602082015181600101556040820151816002015560608201518160030160006101000a81548160ff021916908360ff16021790555050505050818990806001815401808255809150509060018203906000526020600020016000909192909190915055506001955085965050505050505092915050565b60008060009054906101000a900473ffffffffffffffffffffffffffffffffffffffff1673ffffffffffffffffffffffffffffffffffffffff163373ffffffffffffffffffffffffffffffffffffffff161415156108a257600080fd5b60008390506000806001029050600060608060008060008773ffffffffffffffffffffffffffffffffffffffff16638c172fa28b6040518263ffffffff167c01000000000000000000000000000000000000000000000000000000000281526004018082815260200191505060006040518083038186803b15801561092657600080fd5b505afa15801561093a573d6000803e3d6000fd5b505050506040513d6000823e3d601f19601f8201168201806040525060e081101561096457600080fd5b8101908080519060200190929190805164010000000081111561098657600080fd5b8281019050602081018481111561099c57600080fd5b81518560018202830111640100000000821117156109b957600080fd5b5050929190602001805190602001909291908051906020019092919080516401000000008111156109e957600080fd5b828101905060208101848111156109ff57600080fd5b8151856001820283011164010000000082111715610a1c57600080fd5b5050929190602001805190602001909291908051906020019092919050505050809850819950829650839750849a50859b5050505050505060016004811115610a6157fe5b826004811115610a6d57fe5b1415610ca4578a8a604051602001808373ffffffffffffffffffffffffffffffffffffffff1673ffffffffffffffffffffffffffffffffffffffff166c010000000000000000000000000281526014018281526020019250505060405160208183030381529060405280519060200120965060006001610120604051908101604052808a81526020018e73ffffffffffffffffffffffffffffffffffffffff1681526020018d815260200188815260200184815260200160016004811115610b3157fe5b81526020018781526020018660ff168152602001600060ff16815250908060018154018082558091505090600182039060005260206000209060080201600090919290919091506000820151816000015560208201518160010160006101000a81548173ffffffffffffffffffffffffffffffffffffffff021916908373ffffffffffffffffffffffffffffffffffffffff160217905550604082015181600201556060820151816003019080519060200190610bef929190611365565b506080820151816004015560a08201518160050160006101000a81548160ff02191690836004811115610c1e57fe5b021790555060c0820151816006019080519060200190610c3f929190611365565b5060e08201518160070160006101000a81548160ff021916908360ff1602179055506101008201518160070160016101000a81548160ff021916908360ff1602179055505050905060018101600260008a815260200190815260200160002081905550505b869850505050505050505092915050565b6000806000606060008060606000806000600260008c81526020019081526020016000205490506000600180549050118015610cf2575060008110155b15610edb576000600182815481101515610d0857fe5b9060005260206000209060080201905080600001548160010160009054906101000a900473ffffffffffffffffffffffffffffffffffffffff1682600201548360030184600401548560050160009054906101000a900460ff16866006018760070160009054906101000a900460ff168860070160019054906101000a900460ff16858054600181600116156101000203166002900480601f016020809104026020016040519081016040528092919081815260200182805460018160011615610100020316600290048015610e1f5780601f10610df457610100808354040283529160200191610e1f565b820191906000526020600020905b815481529060010190602001808311610e0257829003601f168201915b50505050509550828054600181600116156101000203166002900480601f016020809104026020016040519081016040528092919081815260200182805460018160011615610100020316600290048015610ebb5780601f10610e9057610100808354040283529160200191610ebb565b820191906000526020600020905b815481529060010190602001808311610e9e57829003601f168201915b505050505092509a509a509a509a509a509a509a509a509a505050610f3a565b600080600080600080600086600102965085955084600102945060206040519081016040528060008152509392919083935060206040519081016040528060008152509190819150809050995099509950995099509950995099509950505b9193959799909294969850565b6000809054906101000a900473ffffffffffffffffffffffffffffffffffffffff1681565b6000809054906101000a900473ffffffffffffffffffffffffffffffffffffffff1673ffffffffffffffffffffffffffffffffffffffff163373ffffffffffffffffffffffffffffffffffffffff16141515610fc757600080fd5b600073ffffffffffffffffffffffffffffffffffffffff168173ffffffffffffffffffffffffffffffffffffffff161415151561100357600080fd5b8073ffffffffffffffffffffffffffffffffffffffff166000809054906101000a900473ffffffffffffffffffffffffffffffffffffffff1673ffffffffffffffffffffffffffffffffffffffff167f8be0079c531659141344cd1fd0a4f28419497f9722a3daafe3b4186f6b6457e060405160405180910390a3806000806101000a81548173ffffffffffffffffffffffffffffffffffffffff021916908373ffffffffffffffffffffffffffffffffffffffff16021790555050565b6000806000905060008360010160009054906101000a900473ffffffffffffffffffffffffffffffffffffffff1690506000606060008060606000808773ffffffffffffffffffffffffffffffffffffffff16638c172fa28c600201546040518263ffffffff167c01000000000000000000000000000000000000000000000000000000000281526004018082815260200191505060006040518083038186803b15801561116e57600080fd5b505afa158015611182573d6000803e3d6000fd5b505050506040513d6000823e3d601f19601f8201168201806040525060e08110156111ac57600080fd5b810190808051906020019092919080516401000000008111156111ce57600080fd5b828101905060208101848111156111e457600080fd5b815185600182028301116401000000008211171561120157600080fd5b50509291906020018051906020019092919080519060200190929190805164010000000081111561123157600080fd5b8281019050602081018481111561124757600080fd5b815185600182028301116401000000008211171561126457600080fd5b50509291906020018051906020019092919080519060200190929190505050809750819850829950839a50849b50859c50869d5050505050505050600060048111156112ac57fe5b8560048111156112b857fe5b141515611354578460048111156112cb57fe5b8b60050160009054906101000a900460ff1660048111156112e857fe5b14151561131557848b60050160006101000a81548160ff0219169083600481111561130f57fe5b02179055505b8060ff168b60070160019054906101000a900460ff1660ff1614151561135357808b60070160016101000a81548160ff021916908360ff1602179055505b5b889950505050505050505050919050565b828054600181600116156101000203166002900490600052602060002090601f016020900481019282601f106113a657805160ff19168380011785556113d4565b828001600101855582156113d4579182015b828111156113d35782518255916020019190600101906113b8565b5b5090506113e191906113e5565b5090565b61140791905b808211156114035760008160009055506001016113eb565b5090565b9056fea165627a7a723058208eee5ef8362472564899860022550b2b911d34722954961f2d4f077e3b8f17ec0029",
  "source": "pragma solidity ^0.5.0;\n\nimport \"./DateLib.sol\";\nimport \"./Ownable.sol\";\nimport \"./OracleInterface.sol\";\n\ncontract Anybet is Ownable {\n    Event[] events; \n    mapping(bytes32 => uint) eventIdToIndex; \n    mapping(address => bytes32[]) internal userToBets;\n    mapping(bytes32 => Bet[]) internal eventToBets;\n\n    using DateLib for DateLib.DateTime;\n\n    //constants\n    //TODO: could be per event ?\n    uint internal minimumBetAmount = 1000000000000;\n\n    //defines a event along with its outcome\n    struct Event {\n        bytes32 eventId;\n        address providerAddress;\n        bytes32 providerEventId;\n        string name;\n        uint date; \n        OracleInterface.EventState state;\n        string options;\n        uint8 optionCount; \n        uint8 result;\n    }\n\n    struct Bet {\n        address user;\n        bytes32 eventId;\n        uint amount; \n        uint8 option;\n    }\n\n    function addEvent(address _providerAddress, bytes32 _eventId) public onlyOwner returns (bytes32) {\n        //get event from provider\n        OracleInterface provider = OracleInterface(_providerAddress);\n        bytes32 newId = 0;\n        \n        bytes32 eventId;\n        string memory name;\n        string memory options; \n        uint8 optionCount; \n        OracleInterface.EventState state;\n        uint date;\n\n        (eventId, name, state, date, options, optionCount,) = provider.getEvent(_eventId);\n\n        if (state == OracleInterface.EventState.Pending) {\n            //generate new unique event index \n            newId = keccak256(abi.encodePacked(_providerAddress, _eventId)); \n\n            //add the event \n            uint newIndex = events.push(Event(\n                newId,\n                _providerAddress, \n                _eventId,\n                name, \n                date,\n                OracleInterface.EventState.Pending,\n                options, \n                optionCount,\n                0  \n            )); \n            eventIdToIndex[newId] = newIndex+1;\n        }\n\n        return newId;\n    }\n\n    function getEvent(bytes32 _eventId) public view returns (\n        bytes32 eventId,\n        address providerAddress,\n        bytes32 providerEventId,\n        string memory name,\n        uint date, \n        OracleInterface.EventState state,\n        string memory options, \n        uint8 optionCount, \n        uint8 result \n    ) {\n        uint index = eventIdToIndex[_eventId]; \n        if (events.length > 0 && index >= 0) {\n            Event storage evt = events[index]; \n            return (evt.eventId, evt.providerAddress, evt.providerEventId, evt.name, evt.date, evt.state, evt.options, evt.optionCount, evt.result); \n        }\n        \n        return (0, address(0), 0, \"\", 0, OracleInterface.EventState.Unknown, \"\", 0, 0);\n    }\n\n    function placeBet(bytes32 _eventId, uint8 _result) public payable returns (bool) {                                 \n        bool output = false; \n\n        //require that bet amount meets minimum requirement \n        require(msg.value >= minimumBetAmount, \"bet amount is less than minimum\");\n\n        //require that event exists \n        require(events.length > 0, \"no available events\"); \n        uint eventIndex = eventIdToIndex[_eventId]; \n        require(eventIndex >= 0, \"event not found\"); \n\n        //refresh event from oracle provider\n        Event storage evt = events[eventIndex]; \n        refreshEventFromOracle(evt); \n\n        //require that event is pending (bettable)\n        require(evt.state == OracleInterface.EventState.Pending, \"event is not bettable\"); \n\n        //require that user doesn't already have a bet for this event \n        bool userHasBet = false;\n        bytes32[] storage userBets = userToBets[msg.sender]; \n        if (userBets.length > 0) {\n            for (uint n = 0; n < userBets.length; n++) {\n                if (userBets[n] == _eventId) {\n                    userHasBet = true;\n                    break;\n                }\n            }\n        }\n        //TODO: allow user to increase his bet?\n        require(!userHasBet, \"user already has a running bet for this event\");\n\n        //TODO: ensure that result is within proper range\n\n        //place the bet \n        Bet[] storage bets = eventToBets[_eventId]; \n        bets.push(Bet(msg.sender, _eventId, msg.value, _result))-1; \n        userBets.push(_eventId); \n        output = true;\n\n        return output; \n    }\n\n\n    // -- PRIVATE METHODS -- \n\n    function refreshEventFromOracle(Event storage _event) private returns (bool) {\n        bool output = false; \n\n        //get event from oracle \n        OracleInterface provider = OracleInterface(_event.providerAddress);\n                \n        bytes32 eventId;\n        string memory name;\n        OracleInterface.EventState state;\n        uint date;\n        string memory options;\n        uint8 optionCount; \n        uint8 result; \n\n        (eventId, name, state, date, options, optionCount, result) = provider.getEvent(_event.providerEventId);\n\n        //update the internal record if necessary \n        if (state != OracleInterface.EventState.Unknown) {\n            if (_event.state != state) \n                _event.state = state; \n            if (_event.result != result)\n                _event.result = result;\n        }\n\n        return output; \n    }\n}",
  "sourcePath": "/home/acer/Desktop/anybet/code/contracts/anybet/contracts/Anybet.sol",
  "compiler": {
    "name": "solc",
    "version": "0.5.0+commit.1d4f565a.Emscripten.clang"
  },
  "schemaVersion": "3.0.0",
  "updatedAt": "2018-12-31T10:12:38.769Z",
  "devdoc": {
    "methods": {
      "transferOwnership(address)": {
        "details": "Allows the current owner to transfer control of the contract to a newOwner.",
        "params": {
          "newOwner": "The address to transfer ownership to."
        }
      }
    }
  },
  "userdoc": {
    "methods": {}
  }
}