{
  "contractName": "Anybet",
  "abi": [
    {
      "constant": true,
      "inputs": [
        {
          "name": "",
          "type": "uint256"
        }
      ],
      "name": "events",
      "outputs": [
        {
          "name": "eventId",
          "type": "bytes32"
        },
        {
          "name": "providerAddress",
          "type": "address"
        },
        {
          "name": "providerEventId",
          "type": "bytes32"
        },
        {
          "name": "name",
          "type": "string"
        },
        {
          "name": "date",
          "type": "uint256"
        },
        {
          "name": "minBetAmt",
          "type": "uint256"
        },
        {
          "name": "state",
          "type": "uint8"
        },
        {
          "name": "options",
          "type": "string"
        },
        {
          "name": "optionCount",
          "type": "uint8"
        },
        {
          "name": "outcome",
          "type": "uint8"
        },
        {
          "name": "totalBet",
          "type": "uint256"
        }
      ],
      "payable": false,
      "stateMutability": "view",
      "type": "function",
      "signature": "0x0b791430"
    },
    {
      "constant": true,
      "inputs": [
        {
          "name": "",
          "type": "uint256"
        }
      ],
      "name": "bets",
      "outputs": [
        {
          "name": "id",
          "type": "bytes32"
        },
        {
          "name": "user",
          "type": "address"
        },
        {
          "name": "eventId",
          "type": "bytes32"
        },
        {
          "name": "amount",
          "type": "uint256"
        },
        {
          "name": "option",
          "type": "uint8"
        }
      ],
      "payable": false,
      "stateMutability": "view",
      "type": "function",
      "signature": "0x22af00fa"
    },
    {
      "constant": true,
      "inputs": [],
      "name": "owner",
      "outputs": [
        {
          "name": "",
          "type": "address"
        }
      ],
      "payable": false,
      "stateMutability": "view",
      "type": "function",
      "signature": "0x8da5cb5b"
    },
    {
      "constant": false,
      "inputs": [
        {
          "name": "newOwner",
          "type": "address"
        }
      ],
      "name": "transferOwnership",
      "outputs": [],
      "payable": false,
      "stateMutability": "nonpayable",
      "type": "function",
      "signature": "0xf2fde38b"
    },
    {
      "anonymous": false,
      "inputs": [
        {
          "indexed": true,
          "name": "previousOwner",
          "type": "address"
        },
        {
          "indexed": true,
          "name": "newOwner",
          "type": "address"
        }
      ],
      "name": "OwnershipTransferred",
      "type": "event",
      "signature": "0x8be0079c531659141344cd1fd0a4f28419497f9722a3daafe3b4186f6b6457e0"
    },
    {
      "constant": true,
      "inputs": [],
      "name": "getPendingEvents",
      "outputs": [
        {
          "name": "",
          "type": "bytes32[]"
        }
      ],
      "payable": false,
      "stateMutability": "view",
      "type": "function",
      "signature": "0xb4184e70"
    },
    {
      "constant": true,
      "inputs": [],
      "name": "getAllEvents",
      "outputs": [
        {
          "name": "",
          "type": "bytes32[]"
        }
      ],
      "payable": false,
      "stateMutability": "view",
      "type": "function",
      "signature": "0xc27a500d"
    },
    {
      "constant": true,
      "inputs": [
        {
          "name": "_eventId",
          "type": "bytes32"
        }
      ],
      "name": "getEvent",
      "outputs": [
        {
          "name": "eventId",
          "type": "bytes32"
        },
        {
          "name": "providerAddress",
          "type": "address"
        },
        {
          "name": "providerEventId",
          "type": "bytes32"
        },
        {
          "name": "name",
          "type": "string"
        },
        {
          "name": "date",
          "type": "uint256"
        },
        {
          "name": "minBetAmt",
          "type": "uint256"
        },
        {
          "name": "state",
          "type": "uint8"
        },
        {
          "name": "options",
          "type": "string"
        },
        {
          "name": "optionCount",
          "type": "uint8"
        },
        {
          "name": "outcome",
          "type": "uint8"
        }
      ],
      "payable": false,
      "stateMutability": "view",
      "type": "function",
      "signature": "0x8c172fa2"
    },
    {
      "constant": false,
      "inputs": [
        {
          "name": "_eventId",
          "type": "bytes32"
        },
        {
          "name": "_outcome",
          "type": "uint8"
        }
      ],
      "name": "placeBet",
      "outputs": [
        {
          "name": "",
          "type": "bool"
        }
      ],
      "payable": true,
      "stateMutability": "payable",
      "type": "function",
      "signature": "0x0e52bb49"
    },
    {
      "constant": true,
      "inputs": [
        {
          "name": "_eventId",
          "type": "bytes32"
        }
      ],
      "name": "getBetTotals",
      "outputs": [
        {
          "name": "",
          "type": "uint256[255]"
        }
      ],
      "payable": false,
      "stateMutability": "view",
      "type": "function",
      "signature": "0x5e5f8915"
    },
    {
      "constant": false,
      "inputs": [
        {
          "name": "_eventId",
          "type": "bytes32"
        }
      ],
      "name": "refreshEventFromProvider",
      "outputs": [
        {
          "name": "",
          "type": "bool"
        }
      ],
      "payable": false,
      "stateMutability": "nonpayable",
      "type": "function",
      "signature": "0x33bd08ae"
    },
    {
      "constant": false,
      "inputs": [
        {
          "name": "_eventId",
          "type": "bytes32"
        }
      ],
      "name": "finalizeBet",
      "outputs": [
        {
          "name": "",
          "type": "bool"
        }
      ],
      "payable": false,
      "stateMutability": "nonpayable",
      "type": "function",
      "signature": "0x130b11d6"
    },
    {
      "constant": false,
      "inputs": [
        {
          "name": "_providerAddress",
          "type": "address"
        },
        {
          "name": "_eventId",
          "type": "bytes32"
        },
        {
          "name": "_minBetAmt",
          "type": "uint256"
        }
      ],
      "name": "addEvent",
      "outputs": [
        {
          "name": "",
          "type": "bytes32"
        }
      ],
      "payable": false,
      "stateMutability": "nonpayable",
      "type": "function",
      "signature": "0xbee13e36"
    }
  ],
  "bytecode": "0x608060405264e8d4a510006008556003600955336000806101000a81548173ffffffffffffffffffffffffffffffffffffffff021916908373ffffffffffffffffffffffffffffffffffffffff1602179055506123b3806100616000396000f3fe6080604052600436106100ba576000357c0100000000000000000000000000000000000000000000000000000000900463ffffffff1680630b791430146100bf5780630e52bb4914610264578063130b11d6146102b757806322af00fa1461030a57806333bd08ae146103a75780635e5f8915146103fa5780638c172fa2146104715780638da5cb5b1461060f578063b4184e7014610666578063bee13e36146106d2578063c27a500d1461074b578063f2fde38b146107b7575b600080fd5b3480156100cb57600080fd5b506100f8600480360360208110156100e257600080fd5b8101908080359060200190929190505050610808565b604051808c81526020018b73ffffffffffffffffffffffffffffffffffffffff1673ffffffffffffffffffffffffffffffffffffffff1681526020018a81526020018060200189815260200188815260200187600481111561015657fe5b60ff168152602001806020018660ff1660ff1681526020018560ff1660ff16815260200184815260200183810383528b818151815260200191508051906020019080838360005b838110156101b857808201518184015260208101905061019d565b50505050905090810190601f1680156101e55780820380516001836020036101000a031916815260200191505b50838103825287818151815260200191508051906020019080838360005b8381101561021e578082015181840152602081019050610203565b50505050905090810190601f16801561024b5780820380516001836020036101000a031916815260200191505b509d505050505050505050505050505060405180910390f35b61029d6004803603604081101561027a57600080fd5b8101908080359060200190929190803560ff1690602001909291905050506109e8565b604051808215151515815260200191505060405180910390f35b3480156102c357600080fd5b506102f0600480360360208110156102da57600080fd5b81019080803590602001909291905050506110de565b604051808215151515815260200191505060405180910390f35b34801561031657600080fd5b506103436004803603602081101561032d57600080fd5b81019080803590602001909291905050506110e5565b604051808681526020018573ffffffffffffffffffffffffffffffffffffffff1673ffffffffffffffffffffffffffffffffffffffff1681526020018481526020018381526020018260ff1660ff1681526020019550505050505060405180910390f35b3480156103b357600080fd5b506103e0600480360360208110156103ca57600080fd5b8101908080359060200190929190505050611157565b604051808215151515815260200191505060405180910390f35b34801561040657600080fd5b506104336004803603602081101561041d57600080fd5b8101908080359060200190929190505050611210565b604051808260ff60200280838360005b8381101561045e578082015181840152602081019050610443565b5050505090500191505060405180910390f35b34801561047d57600080fd5b506104aa6004803603602081101561049457600080fd5b810190808035906020019092919050505061137e565b604051808b81526020018a73ffffffffffffffffffffffffffffffffffffffff1673ffffffffffffffffffffffffffffffffffffffff1681526020018981526020018060200188815260200187815260200186600481111561050857fe5b60ff168152602001806020018560ff1660ff1681526020018460ff1660ff16815260200183810383528a818151815260200191508051906020019080838360005b83811015610564578082015181840152602081019050610549565b50505050905090810190601f1680156105915780820380516001836020036101000a031916815260200191505b50838103825286818151815260200191508051906020019080838360005b838110156105ca5780820151818401526020810190506105af565b50505050905090810190601f1680156105f75780820380516001836020036101000a031916815260200191505b509c5050505050505050505050505060405180910390f35b34801561061b57600080fd5b50610624611621565b604051808273ffffffffffffffffffffffffffffffffffffffff1673ffffffffffffffffffffffffffffffffffffffff16815260200191505060405180910390f35b34801561067257600080fd5b5061067b611646565b6040518080602001828103825283818151815260200191508051906020019060200280838360005b838110156106be5780820151818401526020810190506106a3565b505050509050019250505060405180910390f35b3480156106de57600080fd5b50610735600480360360608110156106f557600080fd5b81019080803573ffffffffffffffffffffffffffffffffffffffff1690602001909291908035906020019092919080359060200190929190505050611868565b6040518082815260200191505060405180910390f35b34801561075757600080fd5b50610760611d0b565b6040518080602001828103825283818151815260200191508051906020019060200280838360005b838110156107a3578082015181840152602081019050610788565b505050509050019250505060405180910390f35b3480156107c357600080fd5b50610806600480360360208110156107da57600080fd5b81019080803573ffffffffffffffffffffffffffffffffffffffff169060200190929190505050611db1565b005b60018181548110151561081757fe5b90600052602060002090600a02016000915090508060000154908060010160009054906101000a900473ffffffffffffffffffffffffffffffffffffffff1690806002015490806003018054600181600116156101000203166002900480601f0160208091040260200160405190810160405280929190818152602001828054600181600116156101000203166002900480156108f55780601f106108ca576101008083540402835291602001916108f5565b820191906000526020600020905b8154815290600101906020018083116108d857829003601f168201915b5050505050908060040154908060050154908060060160009054906101000a900460ff1690806007018054600181600116156101000203166002900480601f0160208091040260200160405190810160405280929190818152602001828054600181600116156101000203166002900480156109b25780601f10610987576101008083540402835291602001916109b2565b820191906000526020600020905b81548152906001019060200180831161099557829003601f168201915b5050505050908060080160009054906101000a900460ff16908060080160019054906101000a900460ff1690806009015490508b565b600080600090506008543410151515610a8f576040517f08c379a00000000000000000000000000000000000000000000000000000000081526004018080602001828103825260288152602001807f62657420616d6f756e74206973206c657373207468616e206162736f6c75746581526020017f206d696e696d756d00000000000000000000000000000000000000000000000081525060400191505060405180910390fd5b6000600180549050111515610b0c576040517f08c379a00000000000000000000000000000000000000000000000000000000081526004018080602001828103825260138152602001807f6e6f20617661696c61626c65206576656e74730000000000000000000000000081525060200191505060405180910390fd5b600060036000868152602001908152602001600020549050600081111515610b9c576040517f08c379a000000000000000000000000000000000000000000000000000000000815260040180806020018281038252600f8152602001807f6576656e74206e6f7420666f756e64000000000000000000000000000000000081525060200191505060405180910390fd5b60006001610ba987611f06565b815481101515610bb557fe5b90600052602060002090600a02019050610bce81611f26565b5060016004811115610bdc57fe5b8160060160009054906101000a900460ff166004811115610bf957fe5b141515610c6e576040517f08c379a00000000000000000000000000000000000000000000000000000000081526004018080602001828103825260158152602001807f6576656e74206973206e6f74206265747461626c65000000000000000000000081525060200191505060405180910390fd5b80600501543410151515610d10576040517f08c379a00000000000000000000000000000000000000000000000000000000081526004018080602001828103825260278152602001807f62657420616d6f756e74206973206c657373207468616e20646566696e65642081526020017f6d696e696d756d0000000000000000000000000000000000000000000000000081525060400191505060405180910390fd5b60008090506000600460003373ffffffffffffffffffffffffffffffffffffffff1673ffffffffffffffffffffffffffffffffffffffff1681526020019081526020016000209050600081805490501115610daf5760008090505b8180549050811015610dad57888282815481101515610d8657fe5b90600052602060002001541415610da05760019250610dad565b8080600101915050610d6b565b505b81151515610e4b576040517f08c379a000000000000000000000000000000000000000000000000000000000815260040180806020018281038252602d8152602001807f7573657220616c72656164792068617320612072756e6e696e6720626574206681526020017f6f722074686973206576656e740000000000000000000000000000000000000081525060400191505060405180910390fd5b60008760ff1610158015610e7557508260080160009054906101000a900460ff1660ff168760ff16105b1515610f0f576040517f08c379a000000000000000000000000000000000000000000000000000000000815260040180806020018281038252603a8152602001807f696e76616c69642063686f73656e206f7574636f6d65202d206e6f742077697481526020017f68696e2076616c69642072616e6765206f66206f7074696f6e7300000000000081525060400191505060405180910390fd5b6000600560008a815260200190815260200160002090506000610f328a336121ca565b905060006001600260a0604051908101604052808581526020013373ffffffffffffffffffffffffffffffffffffffff1681526020018e81526020013481526020018d60ff16815250908060018154018082558091505090600182039060005260206000209060050201600090919290919091506000820151816000015560208201518160010160006101000a81548173ffffffffffffffffffffffffffffffffffffffff021916908373ffffffffffffffffffffffffffffffffffffffff160217905550604082015181600201556060820151816003015560808201518160040160006101000a81548160ff021916908360ff160217905550505003905082819080600181540180825580915050906001820390600052602060002001600090919290919091505550838b90806001815401808255809150509060018203906000526020600020016000909192909190915055506001975034866009016000828254019250508190555060006110a98c8c61223e565b905034600760008381526020019081526020016000206000828254019250508190555088995050505050505050505092915050565b6000919050565b6002818154811015156110f457fe5b90600052602060002090600502016000915090508060000154908060010160009054906101000a900473ffffffffffffffffffffffffffffffffffffffff16908060020154908060030154908060040160009054906101000a900460ff16905085565b60006111628261229f565b15156111d6576040517f08c379a000000000000000000000000000000000000000000000000000000000815260040180806020018281038252600f8152602001807f4576656e74206e6f7420666f756e64000000000000000000000000000000000081525060200191505060405180910390fd5b60006111e183611f06565b90506112086001828154811015156111f557fe5b90600052602060002090600a0201611f26565b915050919050565b6112186122be565b6112206122be565b6000600360008581526020019081526020016000205490506000811115156112b0576040517f08c379a000000000000000000000000000000000000000000000000000000000815260040180806020018281038252600f8152602001807f6576656e74206e6f7420666f756e64000000000000000000000000000000000081525060200191505060405180910390fd5b600060056000868152602001908152602001600020905060008090505b818054905081101561137257600082828154811015156112e957fe5b9060005260206000200154905060028181548110151561130557fe5b9060005260206000209060050201600301548560028381548110151561132757fe5b906000526020600020906005020160040160009054906101000a900460ff1660ff1660ff8110151561135557fe5b6020020181815101915081815250505080806001019150506112cd565b50829350505050919050565b60008060006060600080600060606000806000600360008d815260200190815260200160002054905060006001805490501180156113bc5750600081115b156115ae57600060018083038154811015156113d457fe5b90600052602060002090600a0201905080600001548160010160009054906101000a900473ffffffffffffffffffffffffffffffffffffffff16826002015483600301846004015485600501548660060160009054906101000a900460ff16876007018860080160009054906101000a900460ff168960080160019054906101000a900460ff16868054600181600116156101000203166002900480601f0160208091040260200160405190810160405280929190818152602001828054600181600116156101000203166002900480156114f05780601f106114c5576101008083540402835291602001916114f0565b820191906000526020600020905b8154815290600101906020018083116114d357829003601f168201915b50505050509650828054600181600116156101000203166002900480601f01602080910402602001604051908101604052809291908181526020018280546001816001161561010002031660029004801561158c5780601f106115615761010080835404028352916020019161158c565b820191906000526020600020905b81548152906001019060200180831161156f57829003601f168201915b505050505092509b509b509b509b509b509b509b509b509b509b505050611614565b60008060008060008060008087600102975086965085600102955060206040519081016040528060008152509493929190849450839350602060405190810160405280600081525091908191508090509a509a509a509a509a509a509a509a509a509a50505b9193959799509193959799565b6000809054906101000a900473ffffffffffffffffffffffffffffffffffffffff1681565b6060600080905060008090505b600180549050811015611712576003600481111561166d57fe5b60018281548110151561167c57fe5b90600052602060002090600a020160060160009054906101000a900460ff1660048111156116a657fe5b141580156116f757506004808111156116bb57fe5b6001828154811015156116ca57fe5b90600052602060002090600a020160060160009054906101000a900460ff1660048111156116f457fe5b14155b156117055781806001019250505b8080600101915050611653565b506060816040519080825280602002602001820160405280156117445781602001602082028038833980820191505090505b5090506000821115611860576000809050600060018054905090505b600081111561185d576003600481111561177657fe5b600180830381548110151561178757fe5b90600052602060002090600a020160060160009054906101000a900460ff1660048111156117b157fe5b1415801561180457506004808111156117c657fe5b60018083038154811015156117d757fe5b90600052602060002090600a020160060160009054906101000a900460ff16600481111561180157fe5b14155b1561184f57600180820381548110151561181a57fe5b90600052602060002090600a020160000154838380600101945081518110151561184057fe5b90602001906020020181815250505b808060019003915050611760565b50505b809250505090565b60008060009054906101000a900473ffffffffffffffffffffffffffffffffffffffff1673ffffffffffffffffffffffffffffffffffffffff163373ffffffffffffffffffffffffffffffffffffffff161415156118c557600080fd5b60008490506000806001029050600060608060008060008773ffffffffffffffffffffffffffffffffffffffff16638c172fa28c6040518263ffffffff167c01000000000000000000000000000000000000000000000000000000000281526004018082815260200191505060006040518083038186803b15801561194957600080fd5b505afa15801561195d573d6000803e3d6000fd5b505050506040513d6000823e3d601f19601f8201168201806040525060e081101561198757600080fd5b810190808051906020019092919080516401000000008111156119a957600080fd5b828101905060208101848111156119bf57600080fd5b81518560018202830111640100000000821117156119dc57600080fd5b505092919060200180519060200190929190805190602001909291908051640100000000811115611a0c57600080fd5b82810190506020810184811115611a2257600080fd5b8151856001820283011164010000000082111715611a3f57600080fd5b5050929190602001805190602001909291908051906020019092919050505050809850819950829650839750849a50859b5050505050505060016004811115611a8457fe5b826004811115611a9057fe5b1415611cf9578b8b604051602001808373ffffffffffffffffffffffffffffffffffffffff1673ffffffffffffffffffffffffffffffffffffffff166c010000000000000000000000000281526014018281526020019250505060405160208183030381529060405280519060200120965060006001610160604051908101604052808a81526020018f73ffffffffffffffffffffffffffffffffffffffff1681526020018e81526020018881526020018481526020016008548e10611b56578d611b5a565b6008545b815260200160016004811115611b6c57fe5b81526020018781526020018660ff168152602001600060ff16815260200160008152509080600181540180825580915050906001820390600052602060002090600a0201600090919290919091506000820151816000015560208201518160010160006101000a81548173ffffffffffffffffffffffffffffffffffffffff021916908373ffffffffffffffffffffffffffffffffffffffff160217905550604082015181600201556060820151816003019080519060200190611c319291906122e2565b506080820151816004015560a0820151816005015560c08201518160060160006101000a81548160ff02191690836004811115611c6a57fe5b021790555060e0820151816007019080519060200190611c8b9291906122e2565b506101008201518160080160006101000a81548160ff021916908360ff1602179055506101208201518160080160016101000a81548160ff021916908360ff16021790555061014082015181600901555050905080600360008a815260200190815260200160002081905550505b86985050505050505050509392505050565b606080600180549050604051908082528060200260200182016040528015611d425781602001602082028038833980820191505090505b509050600060018054905090505b6000811115611da9576001808203815481101515611d6a57fe5b90600052602060002090600a0201600001548260018303815181101515611d8d57fe5b9060200190602002018181525050808060019003915050611d50565b508091505090565b6000809054906101000a900473ffffffffffffffffffffffffffffffffffffffff1673ffffffffffffffffffffffffffffffffffffffff163373ffffffffffffffffffffffffffffffffffffffff16141515611e0c57600080fd5b600073ffffffffffffffffffffffffffffffffffffffff168173ffffffffffffffffffffffffffffffffffffffff1614151515611e4857600080fd5b8073ffffffffffffffffffffffffffffffffffffffff166000809054906101000a900473ffffffffffffffffffffffffffffffffffffffff1673ffffffffffffffffffffffffffffffffffffffff167f8be0079c531659141344cd1fd0a4f28419497f9722a3daafe3b4186f6b6457e060405160405180910390a3806000806101000a81548173ffffffffffffffffffffffffffffffffffffffff021916908373ffffffffffffffffffffffffffffffffffffffff16021790555050565b600060016003600084815260200190815260200160002054039050919050565b6000806000905060008360010160009054906101000a900473ffffffffffffffffffffffffffffffffffffffff1690506000606060008060606000808773ffffffffffffffffffffffffffffffffffffffff16638c172fa28c600201546040518263ffffffff167c01000000000000000000000000000000000000000000000000000000000281526004018082815260200191505060006040518083038186803b158015611fd357600080fd5b505afa158015611fe7573d6000803e3d6000fd5b505050506040513d6000823e3d601f19601f8201168201806040525060e081101561201157600080fd5b8101908080519060200190929190805164010000000081111561203357600080fd5b8281019050602081018481111561204957600080fd5b815185600182028301116401000000008211171561206657600080fd5b50509291906020018051906020019092919080519060200190929190805164010000000081111561209657600080fd5b828101905060208101848111156120ac57600080fd5b81518560018202830111640100000000821117156120c957600080fd5b50509291906020018051906020019092919080519060200190929190505050809750819850829950839a50849b50859c50869d50505050505050506000600481111561211157fe5b85600481111561211d57fe5b1415156121b95784600481111561213057fe5b8b60060160009054906101000a900460ff16600481111561214d57fe5b14151561217a57848b60060160006101000a81548160ff0219169083600481111561217457fe5b02179055505b8060ff168b60080160019054906101000a900460ff1660ff161415156121b857808b60080160016101000a81548160ff021916908360ff1602179055505b5b889950505050505050505050919050565b60008282604051602001808381526020018273ffffffffffffffffffffffffffffffffffffffff1673ffffffffffffffffffffffffffffffffffffffff166c010000000000000000000000000281526014019250505060405160208183030381529060405280519060200120905092915050565b60008282604051602001808381526020018260ff1660ff167f01000000000000000000000000000000000000000000000000000000000000000281526001019250505060405160208183030381529060405280519060200120905092915050565b6000806003600084815260200190815260200160002054119050919050565b611fe06040519081016040528060ff90602082028038833980820191505090505090565b828054600181600116156101000203166002900490600052602060002090601f016020900481019282601f1061232357805160ff1916838001178555612351565b82800160010185558215612351579182015b82811115612350578251825591602001919060010190612335565b5b50905061235e9190612362565b5090565b61238491905b80821115612380576000816000905550600101612368565b5090565b9056fea165627a7a723058201866b216c8cbe503dc9d833bf592698988d95165ba0408bd27496d27e0d1ac320029",
  "source": "pragma solidity ^0.5.0;\n\nimport \"./DateLib.sol\";\nimport \"./Ownable.sol\";\nimport \"./ProviderInterface.sol\";\n\n//TODO: enforce max number of bettable options (100?) \n\ncontract Anybet is Ownable {\n    Event[] public events; \n    Bet[] public bets;\n\n    mapping(bytes32 => uint) eventIdToIndex; \n    mapping(address => bytes32[]) internal userToBets;\n    mapping(bytes32 => uint[]) internal eventToBets;\n    mapping(bytes32 => Bet) internal betIdToBet; \n    mapping(bytes32 => uint) internal optionIdToBetAmount;\n\n    using DateLib for DateLib.DateTime;\n\n    //constants\n    //TODO: could be per event ?\n    uint internal globalMinBetAmt = 1000000000000;\n    uint internal houseCutPercentage = 3; \n\n    //defines an event along with its outcome\n    struct Event {\n        bytes32 eventId;\n        address providerAddress;\n        bytes32 providerEventId;\n        string name;\n        uint date; \n        uint minBetAmt;\n        ProviderInterface.EventState state;\n        string options;\n        uint8 optionCount; \n        uint8 outcome;\n        uint totalBet;\n    }\n\n    struct Bet {\n        bytes32 id; //hash of event id and user \n        address user;\n        bytes32 eventId;\n        uint amount; \n        uint8 option;\n    }\n\n\n    // -- PUBLIC METHODS -- \n\n    function getPendingEvents() public view returns (bytes32[] memory) {\n        uint count = 0; \n\n        //TODO: this might cost alot of gas\n\n        //get count of pending events \n        for (uint i = 0; i < events.length; i++) {\n            if (events[i].state != ProviderInterface.EventState.Completed && events[i].state != ProviderInterface.EventState.Cancelled) \n                count++; \n        }\n\n        //collect up all the pending events\n        bytes32[] memory output = new bytes32[](count); \n\n        if (count > 0) {\n            uint index = 0;\n            for (uint n = events.length; n > 0; n--) {\n                if (events[n-1].state != ProviderInterface.EventState.Completed && events[n-1].state != ProviderInterface.EventState.Cancelled) \n                    output[index++] = events[n-1].eventId;\n            }\n        } \n\n        return output; \n    }\n\n    function getAllEvents() public view returns (bytes32[] memory) {\n        //TODO: this might cost alot of gas\n        //collect up all the events\n        bytes32[] memory output = new bytes32[](events.length); \n\n        for (uint n = events.length; n > 0; n--) {\n            output[n-1] = events[n-1].eventId;\n        }\n\n        return output; \n    }\n\n    function getEvent(bytes32 _eventId) public view returns (\n        bytes32 eventId,\n        address providerAddress,\n        bytes32 providerEventId,\n        string memory name,\n        uint date, \n        uint minBetAmt,\n        ProviderInterface.EventState state,\n        string memory options, \n        uint8 optionCount, \n        uint8 outcome \n    ) {\n        uint index = eventIdToIndex[_eventId]; \n        if (events.length > 0 && index > 0) {\n            Event storage evt = events[index-1]; \n            return (evt.eventId, evt.providerAddress, evt.providerEventId, evt.name, evt.date, evt.minBetAmt, evt.state, evt.options, evt.optionCount, evt.outcome); \n        }\n        \n        return (0, address(0), 0, \"\", 0, 0, ProviderInterface.EventState.Unknown, \"\", 0, 0);\n    }\n\n    function placeBet(bytes32 _eventId, uint8 _outcome) public payable returns (bool) {                                 \n        bool output = false; \n\n        //require that bet amount meets minimum requirement \n        require(msg.value >= globalMinBetAmt, \"bet amount is less than absolute minimum\");\n\n        //require that event exists \n        require(events.length > 0, \"no available events\"); \n        uint eventIndex = eventIdToIndex[_eventId]; \n        require(eventIndex > 0, \"event not found\"); \n\n        //refresh event from oracle provider\n        Event storage evt = events[_getEventIndex(_eventId)]; \n        _refreshEventFromProvider(evt); \n\n        //require that event is pending (bettable)\n        require(evt.state == ProviderInterface.EventState.Pending, \"event is not bettable\"); \n\n        //enforce minimum bet \n        require(msg.value >= evt.minBetAmt, \"bet amount is less than defined minimum\"); \n\n        //require that user doesn't already have a bet for this event \n        bool userHasBet = false;\n        bytes32[] storage userBets = userToBets[msg.sender]; \n        if (userBets.length > 0) {\n            for (uint n = 0; n < userBets.length; n++) {\n                if (userBets[n] == _eventId) {\n                    userHasBet = true;\n                    break;\n                }\n            }\n        }\n        //TODO: allow user to increase his bet?\n        require(!userHasBet, \"user already has a running bet for this event\");\n\n        //ensure that outcome is within proper range\n        require(_outcome >= 0 && _outcome < evt.optionCount, \"invalid chosen outcome - not within valid range of options\");\n\n        //place the bet \n        uint[] storage betIndexes = eventToBets[_eventId]; \n        bytes32 betId = _generateBetId(_eventId, msg.sender); \n        uint betIndex = bets.push(Bet(betId, msg.sender, _eventId, msg.value, _outcome))-1; \n        betIndexes.push(betIndex);\n        userBets.push(_eventId); \n        output = true;\n\n        //add to the total bet amount \n        evt.totalBet += msg.value;\n\n        //add to the total bet for option \n        bytes32 optionId = _generateOptionId(_eventId, _outcome); \n        optionIdToBetAmount[optionId] += msg.value;\n\n        return output; \n    }\n\n    //one element returned per bettable option (max 255) \n    function getBetTotals(bytes32 _eventId) public view returns(uint[255] memory) {\n        uint[255] memory output; \n        uint index = eventIdToIndex[_eventId]; \n        require(index > 0, \"event not found\"); \n\n        uint[] storage betIndexes = eventToBets[_eventId]; \n\n        for (uint n = 0; n<betIndexes.length; n++) {\n            uint betIndex = betIndexes[n]; \n            output[bets[betIndex].option] += bets[betIndex].amount; \n        }\n\n        return output; \n    }\n\n    //if state or outcome has changed, refresh from provider \n    function refreshEventFromProvider(bytes32 _eventId) public returns (bool) {\n        require(_eventExists(_eventId), \"Event not found\"); \n\n        uint eventIndex = _getEventIndex(_eventId); \n        return _refreshEventFromProvider(events[eventIndex]); \n    }\n\n    //handles payouts \n    function finalizeBet(bytes32 _eventId) public returns (bool) {\n        \n    }\n\n\n    // -- EXTERNAL METHODS -- \n\n    function addEvent(address _providerAddress, bytes32 _eventId, uint _minBetAmt) external onlyOwner returns (bytes32) {\n        //get event from provider\n        \n        ProviderInterface provider = ProviderInterface(_providerAddress);\n        bytes32 newId = 0;\n        \n        bytes32 eventId;\n        string memory name;\n        string memory options; \n        uint8 optionCount; \n        ProviderInterface.EventState state;\n        uint date;\n\n        (eventId, name, state, date, options, optionCount,) = provider.getEvent(_eventId);\n\n        if (state == ProviderInterface.EventState.Pending) {\n            //generate new unique event index \n            newId = keccak256(abi.encodePacked(_providerAddress, _eventId)); \n\n            //add the event \n            uint newCount = events.push(Event(\n                newId,\n                _providerAddress, \n                _eventId,\n                name, \n                date,\n                (_minBetAmt < globalMinBetAmt) ? globalMinBetAmt : _minBetAmt,\n                ProviderInterface.EventState.Pending,\n                options, \n                optionCount,\n                0, \n                0\n            )); \n\n            //add event to index mapping\n            eventIdToIndex[newId] = newCount;\n\n            //add event to bets mapping \n        }\n\n        return newId;\n    }\n\n\n    // -- PRIVATE METHODS -- \n\n    function _generateBetId(bytes32 _eventId, address _user) private pure returns (bytes32) {\n        return keccak256(abi.encodePacked(_eventId, _user)); \n    }\n\n    function _generateOptionId(bytes32 _eventId, uint8 _option) private pure returns (bytes32) {\n        return keccak256(abi.encodePacked(_eventId, _option)); \n    }\n\n    function _getEmptyBet() private pure returns (Bet memory) {\n        return Bet(0, address(0), 0, 0, 0); \n    }\n\n    function _refreshEventFromProvider(Event storage _event) private returns (bool) {\n        bool output = false; \n\n        //get event from oracle \n        ProviderInterface provider = ProviderInterface(_event.providerAddress);\n                \n        bytes32 eventId;\n        string memory name;\n        ProviderInterface.EventState state;\n        uint date;\n        string memory options;\n        uint8 optionCount; \n        uint8 outcome; \n\n        (eventId, name, state, date, options, optionCount, outcome) = provider.getEvent(_event.providerEventId);\n\n        //update the internal record if necessary \n        if (state != ProviderInterface.EventState.Unknown) {\n            if (_event.state != state) \n                _event.state = state; \n            if (_event.outcome != outcome)\n                _event.outcome = outcome;\n        }\n\n        return output; \n    }\n\n    function _eventExists(bytes32 _eventId) private view returns (bool) {\n        return eventIdToIndex[_eventId] > 0;\n    }\n\n    function _getEventIndex(bytes32 _eventId) private view returns (uint) {\n        return eventIdToIndex[_eventId]-1; \n    }\n\n    function _getUserBetForEvent(bytes32 _eventId, address _user) private view returns (Bet storage) {\n        bytes32 betId = _generateBetId(_eventId, _user); \n        Bet storage bet = betIdToBet[betId]; \n        return bet; \n    }\n\n    function _getTotalBetOnEventOption(bytes32 _eventId, uint8 _option) private view returns (uint) {\n        bytes32 optionId = _generateOptionId(_eventId, _option);\n        return optionIdToBetAmount[optionId]; \n    }\n\n    function _calculateWinnings(bytes32 _eventId, address _user) private view returns (uint) {\n        \n        //ensure valid event id \n        require(_eventExists(_eventId), \"event not found\"); \n\n        //get the event \n        Event storage evt = events[_getEventIndex(_eventId)];\n\n        //if event was cancelled, refund all original bet amount\n        if (evt.state == ProviderInterface.EventState.Cancelled) {  \n            //return the full amount of bet, if user has made one\n            Bet storage userBet = _getUserBetForEvent(_eventId, _user);\n            if (userBet.user == _user) {\n                return userBet.amount;\n            }\n        }\n        else {\n            //require that event is finished\n            require(evt.state == ProviderInterface.EventState.Completed, \"event not yet completed\");\n\n            //get the user's bet\n            Bet storage userBet = _getUserBetForEvent(_eventId, _user);\n\n            if (userBet.user == _user) {\n\n                bool userIsWinner = (evt.outcome == userBet.option); \n\n                //if user lost, he gets nothing back \n                if (!userIsWinner) {\n                    return 0;\n                }\n                else {\n                    //get stats \n                    uint totalBetForEvent = evt.totalBet;\n                    uint totalWinningBet = _getTotalBetOnEventOption(_eventId, evt.outcome);\n                    uint totalLosingBet = (totalBetForEvent - totalWinningBet); \n\n                    //calculate winnings \n                    uint winnings = userBet.amount; \n                    winnings += ((winnings/totalWinningBet) * totalLosingBet); \n\n                    //return winnings minus house cut \n                    return winnings - (winnings/100) * houseCutPercentage; \n                }\n            }            \n        }\n\n        return 0;\n    }\n}",
  "sourcePath": "/home/acer/Desktop/anybet/code/contracts/anybet/contracts/Anybet.sol",
  "compiler": {
    "name": "solc",
    "version": "0.5.0+commit.1d4f565a.Emscripten.clang"
  },
  "schemaVersion": "3.0.0",
  "updatedAt": "2019-04-03T03:54:12.382Z",
  "devdoc": {
    "methods": {
      "transferOwnership(address)": {
        "details": "Allows the current owner to transfer control of the contract to a newOwner.",
        "params": {
          "newOwner": "The address to transfer ownership to."
        }
      }
    }
  },
  "userdoc": {
    "methods": {}
  }
}