{
  "contractName": "Anybet",
  "abi": [
    {
      "constant": true,
      "inputs": [
        {
          "name": "",
          "type": "uint256"
        }
      ],
      "name": "events",
      "outputs": [
        {
          "name": "eventId",
          "type": "bytes32"
        },
        {
          "name": "providerAddress",
          "type": "address"
        },
        {
          "name": "providerEventId",
          "type": "bytes32"
        },
        {
          "name": "minBetAmt",
          "type": "uint256"
        },
        {
          "name": "state",
          "type": "uint8"
        },
        {
          "name": "outcome",
          "type": "uint8"
        },
        {
          "name": "totalBet",
          "type": "uint256"
        },
        {
          "name": "finalized",
          "type": "bool"
        }
      ],
      "payable": false,
      "stateMutability": "view",
      "type": "function",
      "signature": "0x0b791430"
    },
    {
      "constant": true,
      "inputs": [
        {
          "name": "",
          "type": "uint256"
        }
      ],
      "name": "bets",
      "outputs": [
        {
          "name": "id",
          "type": "bytes32"
        },
        {
          "name": "user",
          "type": "address"
        },
        {
          "name": "eventId",
          "type": "bytes32"
        },
        {
          "name": "amount",
          "type": "uint256"
        },
        {
          "name": "option",
          "type": "uint8"
        },
        {
          "name": "finalized",
          "type": "bool"
        }
      ],
      "payable": false,
      "stateMutability": "view",
      "type": "function",
      "signature": "0x22af00fa"
    },
    {
      "constant": true,
      "inputs": [],
      "name": "owner",
      "outputs": [
        {
          "name": "",
          "type": "address"
        }
      ],
      "payable": false,
      "stateMutability": "view",
      "type": "function",
      "signature": "0x8da5cb5b"
    },
    {
      "constant": false,
      "inputs": [
        {
          "name": "newOwner",
          "type": "address"
        }
      ],
      "name": "transferOwnership",
      "outputs": [],
      "payable": false,
      "stateMutability": "nonpayable",
      "type": "function",
      "signature": "0xf2fde38b"
    },
    {
      "anonymous": false,
      "inputs": [
        {
          "indexed": true,
          "name": "previousOwner",
          "type": "address"
        },
        {
          "indexed": true,
          "name": "newOwner",
          "type": "address"
        }
      ],
      "name": "OwnershipTransferred",
      "type": "event",
      "signature": "0x8be0079c531659141344cd1fd0a4f28419497f9722a3daafe3b4186f6b6457e0"
    },
    {
      "constant": true,
      "inputs": [],
      "name": "getPendingEvents",
      "outputs": [
        {
          "name": "",
          "type": "bytes32[]"
        }
      ],
      "payable": false,
      "stateMutability": "view",
      "type": "function",
      "signature": "0xb4184e70"
    },
    {
      "constant": true,
      "inputs": [],
      "name": "getAllEvents",
      "outputs": [
        {
          "name": "",
          "type": "bytes32[]"
        }
      ],
      "payable": false,
      "stateMutability": "view",
      "type": "function",
      "signature": "0xc27a500d"
    },
    {
      "constant": false,
      "inputs": [
        {
          "name": "_eventId",
          "type": "bytes32"
        }
      ],
      "name": "getEventDetails",
      "outputs": [
        {
          "name": "eventId",
          "type": "bytes32"
        },
        {
          "name": "providerAddress",
          "type": "address"
        },
        {
          "name": "providerEventId",
          "type": "bytes32"
        },
        {
          "name": "name",
          "type": "string"
        },
        {
          "name": "date",
          "type": "uint256"
        },
        {
          "name": "minBetAmt",
          "type": "uint256"
        },
        {
          "name": "state",
          "type": "uint8"
        },
        {
          "name": "options",
          "type": "string"
        },
        {
          "name": "optionCount",
          "type": "uint8"
        },
        {
          "name": "outcome",
          "type": "uint8"
        }
      ],
      "payable": false,
      "stateMutability": "nonpayable",
      "type": "function",
      "signature": "0x2ca10898"
    },
    {
      "constant": true,
      "inputs": [
        {
          "name": "_providerAddress",
          "type": "address"
        },
        {
          "name": "_eventId",
          "type": "bytes32"
        }
      ],
      "name": "getEventId",
      "outputs": [
        {
          "name": "",
          "type": "bytes32"
        }
      ],
      "payable": false,
      "stateMutability": "pure",
      "type": "function",
      "signature": "0x49ca8cc9"
    },
    {
      "constant": false,
      "inputs": [
        {
          "name": "_eventId",
          "type": "bytes32"
        },
        {
          "name": "_outcome",
          "type": "uint8"
        }
      ],
      "name": "placeBet",
      "outputs": [
        {
          "name": "",
          "type": "bool"
        }
      ],
      "payable": true,
      "stateMutability": "payable",
      "type": "function",
      "signature": "0x0e52bb49"
    },
    {
      "constant": true,
      "inputs": [
        {
          "name": "_eventId",
          "type": "bytes32"
        }
      ],
      "name": "getBetTotals",
      "outputs": [
        {
          "name": "",
          "type": "uint256[255]"
        }
      ],
      "payable": false,
      "stateMutability": "view",
      "type": "function",
      "signature": "0x5e5f8915"
    },
    {
      "constant": false,
      "inputs": [
        {
          "name": "_eventId",
          "type": "bytes32"
        }
      ],
      "name": "handlePayoutsForEvent",
      "outputs": [
        {
          "name": "",
          "type": "bool"
        }
      ],
      "payable": false,
      "stateMutability": "nonpayable",
      "type": "function",
      "signature": "0xa1856d75"
    },
    {
      "constant": false,
      "inputs": [
        {
          "name": "_providerAddress",
          "type": "address"
        },
        {
          "name": "_eventId",
          "type": "bytes32"
        },
        {
          "name": "_minBetAmt",
          "type": "uint256"
        }
      ],
      "name": "addEvent",
      "outputs": [
        {
          "name": "",
          "type": "bytes32"
        }
      ],
      "payable": false,
      "stateMutability": "nonpayable",
      "type": "function",
      "signature": "0xbee13e36"
    },
    {
      "constant": false,
      "inputs": [
        {
          "name": "_address",
          "type": "address"
        }
      ],
      "name": "setHouseWallet",
      "outputs": [],
      "payable": false,
      "stateMutability": "nonpayable",
      "type": "function",
      "signature": "0x35d4de51"
    }
  ],
  "bytecode": "0x608060405264e8d4a510006009556003600a55336000806101000a81548173ffffffffffffffffffffffffffffffffffffffff021916908373ffffffffffffffffffffffffffffffffffffffff1602179055506126b9806100616000396000f3fe6080604052600436106100c5576000357c0100000000000000000000000000000000000000000000000000000000900463ffffffff1680630b791430146100ca5780630e52bb491461018e57806322af00fa146101e15780632ca108981461028957806335d4de511461042757806349ca8cc9146104785780635e5f8915146104e75780638da5cb5b1461055e578063a1856d75146105b5578063b4184e7014610608578063bee13e3614610674578063c27a500d146106ed578063f2fde38b14610759575b600080fd5b3480156100d657600080fd5b50610103600480360360208110156100ed57600080fd5b81019080803590602001909291905050506107aa565b604051808981526020018873ffffffffffffffffffffffffffffffffffffffff1673ffffffffffffffffffffffffffffffffffffffff16815260200187815260200186815260200185600481111561015757fe5b60ff1681526020018460ff1660ff168152602001838152602001821515151581526020019850505050505050505060405180910390f35b6101c7600480360360408110156101a457600080fd5b8101908080359060200190929190803560ff169060200190929190505050610848565b604051808215151515815260200191505060405180910390f35b3480156101ed57600080fd5b5061021a6004803603602081101561020457600080fd5b8101908080359060200190929190505050610f64565b604051808781526020018673ffffffffffffffffffffffffffffffffffffffff1673ffffffffffffffffffffffffffffffffffffffff1681526020018581526020018481526020018360ff1660ff16815260200182151515158152602001965050505050505060405180910390f35b34801561029557600080fd5b506102c2600480360360208110156102ac57600080fd5b8101908080359060200190929190505050610fe9565b604051808b81526020018a73ffffffffffffffffffffffffffffffffffffffff1673ffffffffffffffffffffffffffffffffffffffff1681526020018981526020018060200188815260200187815260200186600481111561032057fe5b60ff168152602001806020018560ff1660ff1681526020018460ff1660ff16815260200183810383528a818151815260200191508051906020019080838360005b8381101561037c578082015181840152602081019050610361565b50505050905090810190601f1680156103a95780820380516001836020036101000a031916815260200191505b50838103825286818151815260200191508051906020019080838360005b838110156103e25780820151818401526020810190506103c7565b50505050905090810190601f16801561040f5780820380516001836020036101000a031916815260200191505b509c5050505050505050505050505060405180910390f35b34801561043357600080fd5b506104766004803603602081101561044a57600080fd5b81019080803573ffffffffffffffffffffffffffffffffffffffff169060200190929190505050611156565b005b34801561048457600080fd5b506104d16004803603604081101561049b57600080fd5b81019080803573ffffffffffffffffffffffffffffffffffffffff169060200190929190803590602001909291905050506111f5565b6040518082815260200191505060405180910390f35b3480156104f357600080fd5b506105206004803603602081101561050a57600080fd5b810190808035906020019092919050505061126e565b604051808260ff60200280838360005b8381101561054b578082015181840152602081019050610530565b5050505090500191505060405180910390f35b34801561056a57600080fd5b506105736113dc565b604051808273ffffffffffffffffffffffffffffffffffffffff1673ffffffffffffffffffffffffffffffffffffffff16815260200191505060405180910390f35b3480156105c157600080fd5b506105ee600480360360208110156105d857600080fd5b8101908080359060200190929190505050611401565b604051808215151515815260200191505060405180910390f35b34801561061457600080fd5b5061061d611954565b6040518080602001828103825283818151815260200191508051906020019060200280838360005b83811015610660578082015181840152602081019050610645565b505050509050019250505060405180910390f35b34801561068057600080fd5b506106d76004803603606081101561069757600080fd5b81019080803573ffffffffffffffffffffffffffffffffffffffff1690602001909291908035906020019092919080359060200190929190505050611b76565b6040518082815260200191505060405180910390f35b3480156106f957600080fd5b50610702611de7565b6040518080602001828103825283818151815260200191508051906020019060200280838360005b8381101561074557808201518184015260208101905061072a565b505050509050019250505060405180910390f35b34801561076557600080fd5b506107a86004803603602081101561077c57600080fd5b81019080803573ffffffffffffffffffffffffffffffffffffffff169060200190929190505050611e8d565b005b6001818154811015156107b957fe5b90600052602060002090600702016000915090508060000154908060010160009054906101000a900473ffffffffffffffffffffffffffffffffffffffff16908060020154908060030154908060040160009054906101000a900460ff16908060040160019054906101000a900460ff16908060050154908060060160009054906101000a900460ff16905088565b6000806000905060095434101515156108ef576040517f08c379a00000000000000000000000000000000000000000000000000000000081526004018080602001828103825260288152602001807f62657420616d6f756e74206973206c657373207468616e206162736f6c75746581526020017f206d696e696d756d00000000000000000000000000000000000000000000000081525060400191505060405180910390fd5b600060018054905011151561096c576040517f08c379a00000000000000000000000000000000000000000000000000000000081526004018080602001828103825260138152602001807f6e6f20617661696c61626c65206576656e74730000000000000000000000000081525060200191505060405180910390fd5b6000600460008681526020019081526020016000205490506000811115156109fc576040517f08c379a000000000000000000000000000000000000000000000000000000000815260040180806020018281038252600f8152602001807f6576656e74206e6f7420666f756e64000000000000000000000000000000000081525060200191505060405180910390fd5b60006001610a0987611fe2565b815481101515610a1557fe5b90600052602060002090600702019050610a2d612617565b610a3682612002565b905060016004811115610a4557fe5b8260040160009054906101000a900460ff166004811115610a6257fe5b141515610ad7576040517f08c379a00000000000000000000000000000000000000000000000000000000081526004018080602001828103825260158152602001807f6576656e74206973206e6f74206265747461626c65000000000000000000000081525060200191505060405180910390fd5b81600301543410151515610b79576040517f08c379a00000000000000000000000000000000000000000000000000000000081526004018080602001828103825260278152602001807f62657420616d6f756e74206973206c657373207468616e20646566696e65642081526020017f6d696e696d756d0000000000000000000000000000000000000000000000000081525060400191505060405180910390fd5b60008090506000600560003373ffffffffffffffffffffffffffffffffffffffff1673ffffffffffffffffffffffffffffffffffffffff1681526020019081526020016000209050600081805490501115610c185760008090505b8180549050811015610c1657898282815481101515610bef57fe5b90600052602060002001541415610c095760019250610c16565b8080600101915050610bd4565b505b81151515610cb4576040517f08c379a000000000000000000000000000000000000000000000000000000000815260040180806020018281038252602d8152602001807f7573657220616c72656164792068617320612072756e6e696e6720626574206681526020017f6f722074686973206576656e740000000000000000000000000000000000000081525060400191505060405180910390fd5b60008860ff1610158015610cd157508260a0015160ff168860ff16105b1515610d6b576040517f08c379a000000000000000000000000000000000000000000000000000000000815260040180806020018281038252603a8152602001807f696e76616c69642063686f73656e206f7574636f6d65202d206e6f742077697481526020017f68696e2076616c69642072616e6765206f66206f7074696f6e7300000000000081525060400191505060405180910390fd5b6000600660008b815260200190815260200160002090506000610d8e8b336122e3565b905060006001600260c0604051908101604052808581526020013373ffffffffffffffffffffffffffffffffffffffff1681526020018f81526020013481526020018e60ff16815260200160001515815250908060018154018082558091505090600182039060005260206000209060050201600090919290919091506000820151816000015560208201518160010160006101000a81548173ffffffffffffffffffffffffffffffffffffffff021916908373ffffffffffffffffffffffffffffffffffffffff160217905550604082015181600201556060820151816003015560808201518160040160006101000a81548160ff021916908360ff16021790555060a08201518160040160016101000a81548160ff021916908315150217905550505003905082819080600181540180825580915050906001820390600052602060002001600090919290919091505550838c9080600181540180825580915050906001820390600052602060002001600090919290919091505550600198503487600501600082825401925050819055506000610f2e8d8d612357565b9050346008600083815260200190815260200160002060008282540192505081905550899a505050505050505050505092915050565b600281815481101515610f7357fe5b90600052602060002090600502016000915090508060000154908060010160009054906101000a900473ffffffffffffffffffffffffffffffffffffffff16908060020154908060030154908060040160009054906101000a900460ff16908060040160019054906101000a900460ff16905086565b60008060006060600080600060606000806000600460008d815260200190815260200160002054905060006001805490501180156110275750600081115b156110e3576000600180830381548110151561103f57fe5b90600052602060002090600702019050611057612617565b61106082612002565b905081600001548260010160009054906101000a900473ffffffffffffffffffffffffffffffffffffffff1683600201548360400151846060015186600301548760040160009054906101000a900460ff1687608001518860a001518960c001518696508292509c509c509c509c509c509c509c509c509c509c50505050611149565b60008060008060008060008087600102975086965085600102955060206040519081016040528060008152509493929190849450839350602060405190810160405280600081525091908191508090509a509a509a509a509a509a509a509a509a509a50505b9193959799509193959799565b6000809054906101000a900473ffffffffffffffffffffffffffffffffffffffff1673ffffffffffffffffffffffffffffffffffffffff163373ffffffffffffffffffffffffffffffffffffffff161415156111b157600080fd5b80600360006101000a81548173ffffffffffffffffffffffffffffffffffffffff021916908373ffffffffffffffffffffffffffffffffffffffff16021790555050565b6000808383604051602001808373ffffffffffffffffffffffffffffffffffffffff1673ffffffffffffffffffffffffffffffffffffffff166c01000000000000000000000000028152601401828152602001925050506040516020818303038152906040528051906020012090508091505092915050565b611276612669565b61127e612669565b60006004600085815260200190815260200160002054905060008111151561130e576040517f08c379a000000000000000000000000000000000000000000000000000000000815260040180806020018281038252600f8152602001807f6576656e74206e6f7420666f756e64000000000000000000000000000000000081525060200191505060405180910390fd5b600060066000868152602001908152602001600020905060008090505b81805490508110156113d0576000828281548110151561134757fe5b9060005260206000200154905060028181548110151561136357fe5b9060005260206000209060050201600301548560028381548110151561138557fe5b906000526020600020906005020160040160009054906101000a900460ff1660ff1660ff811015156113b357fe5b60200201818151019150818152505050808060010191505061132b565b50829350505050919050565b6000809054906101000a900473ffffffffffffffffffffffffffffffffffffffff1681565b60008060046000848152602001908152602001600020549050600060018054905011801561142f5750600081115b156118d7576000600180830381548110151561144757fe5b9060005260206000209060070201905061146081612002565b508060060160009054906101000a900460ff16151561185a5760048081111561148557fe5b8160040160009054906101000a900460ff1660048111156114a257fe5b141561157257600060066000868152602001908152602001600020905060008090505b818054905081101561154e576000600283838154811015156114e357fe5b90600052602060002001548154811015156114fa57fe5b906000526020600020906005020190508060040160019054906101000a900460ff1615156115405760018160040160016101000a81548160ff0219169083151502179055505b5080806001019150506114c5565b5060018260060160006101000a81548160ff02191690831515021790555050611855565b6003600481111561157f57fe5b8160040160009054906101000a900460ff16600481111561159c57fe5b14156117b7576000600660008681526020019081526020016000209050600080905060008360050154905060006115e4888660040160019054906101000a900460ff166123b8565b90506000818303905060008090505b858054905081101561171c5760006002878381548110151561161157fe5b906000526020600020015481548110151561162857fe5b906000526020600020906005020190508060040160019054906101000a900460ff16151561170e5760008160040160009054906101000a900460ff1660ff168960040160019054906101000a900460ff1660ff16149050801561170c5760008260010160009054906101000a900473ffffffffffffffffffffffffffffffffffffffff1690508073ffffffffffffffffffffffffffffffffffffffff166108fc84600301549081150290604051600060405180830381858888f193505050501561170a5760018360040160016101000a81548160ff0219169083151502179055505b505b505b5080806001019150506115f3565b50600084111561179057600360009054906101000a900473ffffffffffffffffffffffffffffffffffffffff1673ffffffffffffffffffffffffffffffffffffffff166108fc859081150290604051600060405180830381858888f1935050505015801561178e573d6000803e3d6000fd5b505b60018660060160006101000a81548160ff0219169083151502179055505050505050611854565b60001515611853576040517f08c379a00000000000000000000000000000000000000000000000000000000081526004018080602001828103825260278152602001807f4576656e74206973206e6f7420696e206120737461746520746f20626520666981526020017f6e616c697a65640000000000000000000000000000000000000000000000000081525060400191505060405180910390fd5b5b5b6118d1565b600015156118d0576040517f08c379a00000000000000000000000000000000000000000000000000000000081526004018080602001828103825260208152602001807f4576656e742068617320616c7265616479206265656e2066696e616c697a656481525060200191505060405180910390fd5b5b5061194e565b6000151561194d576040517f08c379a000000000000000000000000000000000000000000000000000000000815260040180806020018281038252601d8152602001807f537065636966696564206576656e7420776173206e6f7420666f756e6400000081525060200191505060405180910390fd5b5b50919050565b6060600080905060008090505b600180549050811015611a20576003600481111561197b57fe5b60018281548110151561198a57fe5b906000526020600020906007020160040160009054906101000a900460ff1660048111156119b457fe5b14158015611a0557506004808111156119c957fe5b6001828154811015156119d857fe5b906000526020600020906007020160040160009054906101000a900460ff166004811115611a0257fe5b14155b15611a135781806001019250505b8080600101915050611961565b50606081604051908082528060200260200182016040528015611a525781602001602082028038833980820191505090505b5090506000821115611b6e576000809050600060018054905090505b6000811115611b6b5760036004811115611a8457fe5b6001808303815481101515611a9557fe5b906000526020600020906007020160040160009054906101000a900460ff166004811115611abf57fe5b14158015611b125750600480811115611ad457fe5b6001808303815481101515611ae557fe5b906000526020600020906007020160040160009054906101000a900460ff166004811115611b0f57fe5b14155b15611b5d576001808203815481101515611b2857fe5b9060005260206000209060070201600001548383806001019450815181101515611b4e57fe5b90602001906020020181815250505b808060019003915050611a6e565b50505b809250505090565b60008060009054906101000a900473ffffffffffffffffffffffffffffffffffffffff1673ffffffffffffffffffffffffffffffffffffffff163373ffffffffffffffffffffffffffffffffffffffff16141515611bd357600080fd5b6000806001029050611be3612617565b611bed86866123e4565b905060016004811115611bfc57fe5b81602001516004811115611c0c57fe5b1415611ddb57611c1c86866111f5565b9150600060046000848152602001908152602001600020541415611dda5760006001610100604051908101604052808581526020018973ffffffffffffffffffffffffffffffffffffffff1681526020018881526020016009548810611c825787611c86565b6009545b815260200184602001516004811115611c9b57fe5b8152602001600060ff1681526020016000815260200160001515815250908060018154018082558091505090600182039060005260206000209060070201600090919290919091506000820151816000015560208201518160010160006101000a81548173ffffffffffffffffffffffffffffffffffffffff021916908373ffffffffffffffffffffffffffffffffffffffff160217905550604082015181600201556060820151816003015560808201518160040160006101000a81548160ff02191690836004811115611d6c57fe5b021790555060a08201518160040160016101000a81548160ff021916908360ff16021790555060c0820151816005015560e08201518160060160006101000a81548160ff02191690831515021790555050509050806004600085815260200190815260200160002081905550505b5b81925050509392505050565b606080600180549050604051908082528060200260200182016040528015611e1e5781602001602082028038833980820191505090505b509050600060018054905090505b6000811115611e85576001808203815481101515611e4657fe5b9060005260206000209060070201600001548260018303815181101515611e6957fe5b9060200190602002018181525050808060019003915050611e2c565b508091505090565b6000809054906101000a900473ffffffffffffffffffffffffffffffffffffffff1673ffffffffffffffffffffffffffffffffffffffff163373ffffffffffffffffffffffffffffffffffffffff16141515611ee857600080fd5b600073ffffffffffffffffffffffffffffffffffffffff168173ffffffffffffffffffffffffffffffffffffffff1614151515611f2457600080fd5b8073ffffffffffffffffffffffffffffffffffffffff166000809054906101000a900473ffffffffffffffffffffffffffffffffffffffff1673ffffffffffffffffffffffffffffffffffffffff167f8be0079c531659141344cd1fd0a4f28419497f9722a3daafe3b4186f6b6457e060405160405180910390a3806000806101000a81548173ffffffffffffffffffffffffffffffffffffffff021916908373ffffffffffffffffffffffffffffffffffffffff16021790555050565b600060016004600084815260200190815260200160002054039050919050565b61200a612617565b612012612617565b6120448360010160009054906101000a900473ffffffffffffffffffffffffffffffffffffffff1684600201546123e4565b905060008360010160009054906101000a900473ffffffffffffffffffffffffffffffffffffffff1690506000606060008060606000808773ffffffffffffffffffffffffffffffffffffffff16638c172fa28c600201546040518263ffffffff167c01000000000000000000000000000000000000000000000000000000000281526004018082815260200191505060006040518083038186803b1580156120ec57600080fd5b505afa158015612100573d6000803e3d6000fd5b505050506040513d6000823e3d601f19601f8201168201806040525060e081101561212a57600080fd5b8101908080519060200190929190805164010000000081111561214c57600080fd5b8281019050602081018481111561216257600080fd5b815185600182028301116401000000008211171561217f57600080fd5b5050929190602001805190602001909291908051906020019092919080516401000000008111156121af57600080fd5b828101905060208101848111156121c557600080fd5b81518560018202830111640100000000821117156121e257600080fd5b50509291906020018051906020019092919080519060200190929190505050809750819850829950839a50849b50859c50869d50505050505050506000600481111561222a57fe5b85600481111561223657fe5b1415156122d25784600481111561224957fe5b8b60040160009054906101000a900460ff16600481111561226657fe5b14151561229357848b60040160006101000a81548160ff0219169083600481111561228d57fe5b02179055505b8060ff168b60040160019054906101000a900460ff1660ff161415156122d157808b60040160016101000a81548160ff021916908360ff1602179055505b5b889950505050505050505050919050565b60008282604051602001808381526020018273ffffffffffffffffffffffffffffffffffffffff1673ffffffffffffffffffffffffffffffffffffffff166c010000000000000000000000000281526014019250505060405160208183030381529060405280519060200120905092915050565b60008282604051602001808381526020018260ff1660ff167f01000000000000000000000000000000000000000000000000000000000000000281526001019250505060405160208183030381529060405280519060200120905092915050565b6000806123c58484612357565b9050600860008281526020019081526020016000205491505092915050565b6123ec612617565b60008390506123f9612617565b606060008060606000808773ffffffffffffffffffffffffffffffffffffffff16638c172fa28b6040518263ffffffff167c01000000000000000000000000000000000000000000000000000000000281526004018082815260200191505060006040518083038186803b15801561247057600080fd5b505afa158015612484573d6000803e3d6000fd5b505050506040513d6000823e3d601f19601f8201168201806040525060e08110156124ae57600080fd5b810190808051906020019092919080516401000000008111156124d057600080fd5b828101905060208101848111156124e657600080fd5b815185600182028301116401000000008211171561250357600080fd5b50509291906020018051906020019092919080519060200190929190805164010000000081111561253357600080fd5b8281019050602081018481111561254957600080fd5b815185600182028301116401000000008211171561256657600080fd5b5050929190602001805190602001909291908051906020019092919050505090919293949550809650819750829850839950849a50859b5050505050505085876040018190525084876020019060048111156125be57fe5b908160048111156125cb57fe5b8152505083876060018181525050828760800181905250808760c0019060ff16908160ff1681525050818760a0019060ff16908160ff1681525050869850505050505050505092915050565b60e060405190810160405280600080191681526020016000600481111561263a57fe5b8152602001606081526020016000815260200160608152602001600060ff168152602001600060ff1681525090565b611fe06040519081016040528060ff9060208202803883398082019150509050509056fea165627a7a7230582025e12f0fd7d5e9685254c1d6ef02363657c986ae80432bfd33e4f8d7d0c560a80029",
  "source": "pragma solidity ^0.5.0;\n\nimport \"./DateLib.sol\";\nimport \"./Ownable.sol\";\nimport \"./ProviderInterface.sol\";\n\n//TODO: enforce max number of bettable options (100?) \n\ncontract Anybet is Ownable {\n    Event[] public events; \n    Bet[] public bets;\n    address payable houseWallet;\n\n    mapping(bytes32 => uint) eventIdToIndex; \n    mapping(address => bytes32[]) internal userToBets;\n    mapping(bytes32 => uint[]) internal eventToBets;\n    mapping(bytes32 => Bet) internal betIdToBet; \n    mapping(bytes32 => uint) internal optionIdToBetAmount;\n\n    using DateLib for DateLib.DateTime;\n\n    //constants\n    //TODO: could be per event ?\n    uint internal globalMinBetAmt = 1000000000000;\n    uint internal houseCutPercentage = 3; \n\n    //defines an event along with its outcome\n    struct Event {\n        bytes32 eventId;\n        address providerAddress;\n        bytes32 providerEventId;\n        uint minBetAmt;\n        ProviderInterface.EventState state;\n        uint8 outcome;\n        uint totalBet;\n        bool finalized;\n    }\n\n    struct ProviderEvent {\n        bytes32 eventId;\n        ProviderInterface.EventState state;\n        string name;\n        uint date; \n        string options;\n        uint8 optionCount; \n        uint8 outcome;\n    }\n\n    struct Bet {\n        bytes32 id; //hash of event id and user \n        address user;\n        bytes32 eventId;\n        uint amount; \n        uint8 option;\n        bool finalized; \n    }\n\n\n    // -- PUBLIC METHODS -- \n\n    function getPendingEvents() public view returns (bytes32[] memory) {\n        uint count = 0; \n\n        //TODO: this might cost alot of gas\n\n        //get count of pending events \n        for (uint i = 0; i < events.length; i++) {\n            if (events[i].state != ProviderInterface.EventState.Completed && events[i].state != ProviderInterface.EventState.Cancelled) \n                count++; \n        }\n\n        //collect up all the pending events\n        bytes32[] memory output = new bytes32[](count); \n\n        if (count > 0) {\n            uint index = 0;\n            for (uint n = events.length; n > 0; n--) {\n                if (events[n-1].state != ProviderInterface.EventState.Completed && events[n-1].state != ProviderInterface.EventState.Cancelled) \n                    output[index++] = events[n-1].eventId;\n            }\n        } \n\n        return output; \n    }\n\n    function getAllEvents() public view returns (bytes32[] memory) {\n        //TODO: this might cost alot of gas\n        //collect up all the events\n        bytes32[] memory output = new bytes32[](events.length); \n\n        for (uint n = events.length; n > 0; n--) {\n            output[n-1] = events[n-1].eventId;\n        }\n\n        return output; \n    }\n\n    function getEventDetails(bytes32 _eventId) public returns (\n        bytes32 eventId,\n        address providerAddress,\n        bytes32 providerEventId,\n        string memory name,\n        uint date, \n        uint minBetAmt,\n        ProviderInterface.EventState state,\n        string memory options, \n        uint8 optionCount, \n        uint8 outcome \n    ) {\n        uint index = eventIdToIndex[_eventId]; \n        if (events.length > 0 && index > 0) {\n            Event storage localEvent = events[index-1]; \n\n            ProviderEvent memory providerEvent = _refreshEventFromProvider(localEvent); \n            return (localEvent.eventId, localEvent.providerAddress, localEvent.providerEventId, providerEvent.name, providerEvent.date, localEvent.minBetAmt, localEvent.state, providerEvent.options, providerEvent.optionCount, providerEvent.outcome); \n        }\n        \n        return (0, address(0), 0, \"\", 0, 0, ProviderInterface.EventState.Unknown, \"\", 0, 0);\n    }\n\n    function getEventId(address _providerAddress, bytes32 _eventId) public pure returns (bytes32) {        \n        bytes32 newId = keccak256(abi.encodePacked(_providerAddress, _eventId)); \n        return newId;\n    }\n\n    function placeBet(bytes32 _eventId, uint8 _outcome) public payable returns (bool) {                                 \n        bool output = false; \n\n        //require that bet amount meets minimum requirement \n        require(msg.value >= globalMinBetAmt, \"bet amount is less than absolute minimum\");\n\n        //require that event exists \n        require(events.length > 0, \"no available events\"); \n        uint eventIndex = eventIdToIndex[_eventId]; \n        require(eventIndex > 0, \"event not found\"); \n\n        //refresh event from oracle provider\n        Event storage evt = events[_getEventIndex(_eventId)]; \n        ProviderEvent memory providerEvent = _refreshEventFromProvider(evt); \n\n        //require that event is pending (bettable)\n        require(evt.state == ProviderInterface.EventState.Pending, \"event is not bettable\"); \n\n        //enforce minimum bet \n        require(msg.value >= evt.minBetAmt, \"bet amount is less than defined minimum\"); \n\n        //require that user doesn't already have a bet for this event \n        bool userHasBet = false;\n        bytes32[] storage userBets = userToBets[msg.sender]; \n        if (userBets.length > 0) {\n            for (uint n = 0; n < userBets.length; n++) {\n                if (userBets[n] == _eventId) {\n                    userHasBet = true;\n                    break;\n                }\n            }\n        }\n        //TODO: allow user to increase his bet?\n        require(!userHasBet, \"user already has a running bet for this event\");\n\n        //ensure that outcome is within proper range\n        require(_outcome >= 0 && _outcome < providerEvent.optionCount, \"invalid chosen outcome - not within valid range of options\");\n\n        //place the bet \n        uint[] storage betIndexes = eventToBets[_eventId]; \n        bytes32 betId = _generateBetId(_eventId, msg.sender); \n        uint betIndex = bets.push(Bet(betId, msg.sender, _eventId, msg.value, _outcome, false))-1; \n        betIndexes.push(betIndex);\n        userBets.push(_eventId); \n        output = true;\n\n        //add to the total bet amount \n        evt.totalBet += msg.value;\n\n        //add to the total bet for option \n        bytes32 optionId = _generateOptionId(_eventId, _outcome); \n        optionIdToBetAmount[optionId] += msg.value;\n\n        return output; \n    }\n\n    //one element returned per bettable option (max 255) \n    function getBetTotals(bytes32 _eventId) public view returns(uint[255] memory) {\n        uint[255] memory output; \n        uint index = eventIdToIndex[_eventId]; \n        require(index > 0, \"event not found\"); \n\n        uint[] storage betIndexes = eventToBets[_eventId]; \n\n        for (uint n = 0; n<betIndexes.length; n++) {\n            uint betIndex = betIndexes[n]; \n            output[bets[betIndex].option] += bets[betIndex].amount; \n        }\n\n        return output; \n    }\n\n    //handles payouts \n    function handlePayoutsForEvent(bytes32 _eventId) public returns (bool) {\n        //get event, ensure that it exists\n        uint index = eventIdToIndex[_eventId]; \n\n        if (events.length > 0 && index > 0) {\n            Event storage localEvent = events[index-1]; \n\n            //refresh event from provider \n            _refreshEventFromProvider(localEvent);\n\n            //make sure that event is in a state to be finalized \n            if (!localEvent.finalized) {\n\n                if (localEvent.state == ProviderInterface.EventState.Cancelled) {\n                    //if cancelled, return all bets \n                    uint[] storage allBets = eventToBets[_eventId]; \n                    for (uint n=0; n<allBets.length; n++) {\n                        Bet storage bet = bets[allBets[n]]; \n\n                        if (!bet.finalized) {\n                            //return the amount bet to the user \n                            bet.finalized = true;\n                        }\n                    }\n\n                    //event is finalized \n                    localEvent.finalized = true;\n                }\n                else if (localEvent.state == ProviderInterface.EventState.Completed) {\n\n                    //if completed, handle payouts to each user who won \n                    uint[] storage allBets = eventToBets[_eventId]; \n                    \n                    //calculate total amount bet on winning option\n                    uint payToHouse = 0; \n                    uint totalBetForEvent = localEvent.totalBet;\n                    uint totalWinningBet = _getTotalBetOnEventOption(_eventId, localEvent.outcome);\n                    uint totalLosingBet = (totalBetForEvent - totalWinningBet); \n\n                    for (uint n=0; n<allBets.length; n++) {\n                        Bet storage bet = bets[allBets[n]]; \n\n                        if (!bet.finalized) {\n                            bool userIsWinner = (localEvent.outcome == bet.option); \n\n                            if (userIsWinner) {\n                                //pay the user a winner's share \n                                address payable userWallet = address(uint160(address(bet.user)));\n                                if (userWallet.send(bet.amount)) {\n                                    bet.finalized = true;\n                                }\n                            }\n                        }\n                    }\n\n                    //now pay the remainder house \n                    if (payToHouse > 0) {\n                        houseWallet.transfer(payToHouse); \n                    }\n\n                    //event is finalized \n                    localEvent.finalized = true;\n                }\n                else {\n                    require(false, \"Event is not in a state to be finalized\"); \n                }\n            }\n            else {\n                require(false, \"Event has already been finalized\"); \n            }\n        }\n        else {\n            require(false, \"Specified event was not found\"); \n        }\n    }\n\n\n    // -- EXTERNAL METHODS -- \n\n    function addEvent(address _providerAddress, bytes32 _eventId, uint _minBetAmt) external onlyOwner returns (bytes32) {\n        //get event from provider\n        \n        bytes32 newId = 0;\n\n        ProviderEvent memory providerEvent = _getEventFromProvider(_providerAddress, _eventId); \n\n        if (providerEvent.state == ProviderInterface.EventState.Pending) {\n            //generate new unique event index \n            newId = getEventId(_providerAddress, _eventId); \n\n            //check for duplicate \n            if (eventIdToIndex[newId] == 0) {\n                //add the event \n                uint newCount = events.push(Event(\n                    newId,\n                    _providerAddress, \n                    _eventId,\n                    (_minBetAmt < globalMinBetAmt) ? globalMinBetAmt : _minBetAmt,\n                    providerEvent.state, \n                    0, \n                    0, \n                    false\n                )); \n\n                //add event to index mapping\n                eventIdToIndex[newId] = newCount;\n\n                //add event to bets mapping \n            }\n        }\n\n        return newId;\n    }\n\n\n    // -- ADMIN FUNCTIONS -- \n\n    function setHouseWallet(address _address) public onlyOwner {\n        houseWallet = address(uint160(address(_address)));\n    }\n\n\n    // -- PRIVATE METHODS -- \n\n    function _generateBetId(bytes32 _eventId, address _user) private pure returns (bytes32) {\n        return keccak256(abi.encodePacked(_eventId, _user)); \n    }\n\n    function _generateOptionId(bytes32 _eventId, uint8 _option) private pure returns (bytes32) {\n        return keccak256(abi.encodePacked(_eventId, _option)); \n    }\n\n    function _getEmptyBet() private pure returns (Bet memory) {\n        return Bet(0, address(0), 0, 0, 0, false); \n    }\n\n    function _getEventFromProvider(address providerAddress, bytes32 eventId) private view returns (ProviderEvent memory) {\n        ProviderInterface provider = ProviderInterface(providerAddress);\n        ProviderEvent memory output; \n\n        string memory name;\n        ProviderInterface.EventState state;\n        uint date;\n        string memory options;\n        uint8 optionCount;\n        uint8 outcome;\n\n        (,name,state,date,options,optionCount,outcome) = provider.getEvent(eventId); \n        \n        output.name = name;\n        output.state = state;\n        output.date = date;\n        output.options = options;\n        output.outcome = outcome; \n        output.optionCount = optionCount; \n\n        return output; \n    }\n\n    function _refreshEventFromProvider(Event storage _event) private returns (ProviderEvent memory) {\n        ProviderEvent memory output = _getEventFromProvider(_event.providerAddress, _event.providerEventId); \n\n        //get event from oracle \n        ProviderInterface provider = ProviderInterface(_event.providerAddress);\n                \n        bytes32 eventId;\n        string memory name;\n        ProviderInterface.EventState state;\n        uint date;\n        string memory options;\n        uint8 optionCount; \n        uint8 outcome; \n\n        (eventId, name, state, date, options, optionCount, outcome) = provider.getEvent(_event.providerEventId);\n\n        //update the internal record if necessary \n        if (state != ProviderInterface.EventState.Unknown) {\n            if (_event.state != state) \n                _event.state = state; \n            if (_event.outcome != outcome)\n                _event.outcome = outcome;\n        }\n\n        return output; \n    }\n\n    function _eventExists(bytes32 _eventId) private view returns (bool) {\n        return eventIdToIndex[_eventId] > 0;\n    }\n\n    function _getEventIndex(bytes32 _eventId) private view returns (uint) {\n        return eventIdToIndex[_eventId]-1; \n    }\n\n    function _getUserBetForEvent(bytes32 _eventId, address _user) private view returns (Bet storage) {\n        bytes32 betId = _generateBetId(_eventId, _user); \n        Bet storage bet = betIdToBet[betId]; \n        return bet; \n    }\n\n    function _getTotalBetOnEventOption(bytes32 _eventId, uint8 _option) private view returns (uint) {\n        bytes32 optionId = _generateOptionId(_eventId, _option);\n        return optionIdToBetAmount[optionId]; \n    }\n\n    //NO LONGER USER \n    function _calculateWinnings(Event storage evt, bytes32 _eventId, address _user) private view returns (uint) {\n        \n        //ensure valid event id \n        require(_eventExists(_eventId), \"event not found\"); \n\n        //if event was cancelled, refund all original bet amount\n        if (evt.state == ProviderInterface.EventState.Cancelled) {  \n            //return the full amount of bet, if user has made one\n            Bet storage userBet = _getUserBetForEvent(_eventId, _user);\n            if (userBet.user == _user) {\n                return userBet.amount;\n            }\n        }\n        else {\n            //require that event is finished\n            if (evt.state == ProviderInterface.EventState.Completed) {\n\n                //get the user's bet\n                Bet storage userBet = _getUserBetForEvent(_eventId, _user);\n\n                if (userBet.user == _user) {\n\n                    bool userIsWinner = (evt.outcome == userBet.option); \n\n                    //if user lost, he gets nothing back \n                    if (!userIsWinner) {\n                        return 0;\n                    }\n                    else {\n                        //get stats \n                        uint totalBetForEvent = evt.totalBet;\n                        uint totalWinningBet = _getTotalBetOnEventOption(_eventId, evt.outcome);\n                        uint totalLosingBet = (totalBetForEvent - totalWinningBet); \n\n                        //calculate winnings \n                        uint winnings = userBet.amount; \n                        winnings += ((winnings/totalWinningBet) * totalLosingBet); \n\n                        //return winnings minus house cut \n                        return winnings - (winnings/100) * houseCutPercentage; \n                    }\n                }        \n            }    \n        }\n\n        return 0;\n    }\n}",
  "sourcePath": "/home/acer/Desktop/anybet/code/contracts/anybet/contracts/Anybet.sol",
  "compiler": {
    "name": "solc",
    "version": "0.5.0+commit.1d4f565a.Emscripten.clang"
  },
  "schemaVersion": "3.0.0",
  "updatedAt": "2019-04-05T15:56:59.685Z",
  "devdoc": {
    "methods": {
      "transferOwnership(address)": {
        "details": "Allows the current owner to transfer control of the contract to a newOwner.",
        "params": {
          "newOwner": "The address to transfer ownership to."
        }
      }
    }
  },
  "userdoc": {
    "methods": {}
  }
}