{
  "contractName": "Anybet",
  "abi": [
    {
      "constant": true,
      "inputs": [
        {
          "name": "",
          "type": "uint256"
        }
      ],
      "name": "events",
      "outputs": [
        {
          "name": "eventId",
          "type": "bytes32"
        },
        {
          "name": "providerAddress",
          "type": "address"
        },
        {
          "name": "providerEventId",
          "type": "bytes32"
        },
        {
          "name": "name",
          "type": "string"
        },
        {
          "name": "date",
          "type": "uint256"
        },
        {
          "name": "minBetAmt",
          "type": "uint256"
        },
        {
          "name": "state",
          "type": "uint8"
        },
        {
          "name": "options",
          "type": "string"
        },
        {
          "name": "optionCount",
          "type": "uint8"
        },
        {
          "name": "outcome",
          "type": "uint8"
        },
        {
          "name": "totalBet",
          "type": "uint256"
        }
      ],
      "payable": false,
      "stateMutability": "view",
      "type": "function",
      "signature": "0x0b791430"
    },
    {
      "constant": true,
      "inputs": [],
      "name": "owner",
      "outputs": [
        {
          "name": "",
          "type": "address"
        }
      ],
      "payable": false,
      "stateMutability": "view",
      "type": "function",
      "signature": "0x8da5cb5b"
    },
    {
      "constant": false,
      "inputs": [
        {
          "name": "newOwner",
          "type": "address"
        }
      ],
      "name": "transferOwnership",
      "outputs": [],
      "payable": false,
      "stateMutability": "nonpayable",
      "type": "function",
      "signature": "0xf2fde38b"
    },
    {
      "anonymous": false,
      "inputs": [
        {
          "indexed": true,
          "name": "previousOwner",
          "type": "address"
        },
        {
          "indexed": true,
          "name": "newOwner",
          "type": "address"
        }
      ],
      "name": "OwnershipTransferred",
      "type": "event",
      "signature": "0x8be0079c531659141344cd1fd0a4f28419497f9722a3daafe3b4186f6b6457e0"
    },
    {
      "constant": true,
      "inputs": [],
      "name": "getPendingEvents",
      "outputs": [
        {
          "name": "",
          "type": "bytes32[]"
        }
      ],
      "payable": false,
      "stateMutability": "view",
      "type": "function",
      "signature": "0xb4184e70"
    },
    {
      "constant": true,
      "inputs": [
        {
          "name": "_eventId",
          "type": "bytes32"
        }
      ],
      "name": "getEvent",
      "outputs": [
        {
          "name": "eventId",
          "type": "bytes32"
        },
        {
          "name": "providerAddress",
          "type": "address"
        },
        {
          "name": "providerEventId",
          "type": "bytes32"
        },
        {
          "name": "name",
          "type": "string"
        },
        {
          "name": "date",
          "type": "uint256"
        },
        {
          "name": "minBetAmt",
          "type": "uint256"
        },
        {
          "name": "state",
          "type": "uint8"
        },
        {
          "name": "options",
          "type": "string"
        },
        {
          "name": "optionCount",
          "type": "uint8"
        },
        {
          "name": "outcome",
          "type": "uint8"
        }
      ],
      "payable": false,
      "stateMutability": "view",
      "type": "function",
      "signature": "0x8c172fa2"
    },
    {
      "constant": false,
      "inputs": [
        {
          "name": "_eventId",
          "type": "bytes32"
        },
        {
          "name": "_outcome",
          "type": "uint8"
        }
      ],
      "name": "placeBet",
      "outputs": [
        {
          "name": "",
          "type": "bool"
        }
      ],
      "payable": true,
      "stateMutability": "payable",
      "type": "function",
      "signature": "0x0e52bb49"
    },
    {
      "constant": true,
      "inputs": [
        {
          "name": "_eventId",
          "type": "bytes32"
        }
      ],
      "name": "getBetTotals",
      "outputs": [
        {
          "name": "",
          "type": "uint256[255]"
        }
      ],
      "payable": false,
      "stateMutability": "view",
      "type": "function",
      "signature": "0x5e5f8915"
    },
    {
      "constant": false,
      "inputs": [
        {
          "name": "_providerAddress",
          "type": "address"
        },
        {
          "name": "_eventId",
          "type": "bytes32"
        },
        {
          "name": "_minBetAmt",
          "type": "uint256"
        }
      ],
      "name": "addEvent",
      "outputs": [
        {
          "name": "",
          "type": "bytes32"
        }
      ],
      "payable": false,
      "stateMutability": "nonpayable",
      "type": "function",
      "signature": "0xbee13e36"
    }
  ],
  "bytecode": "0x608060405264e8d4a510006007556003600855336000806101000a81548173ffffffffffffffffffffffffffffffffffffffff021916908373ffffffffffffffffffffffffffffffffffffffff160217905550611f9a806100616000396000f3fe60806040526004361061008e576000357c0100000000000000000000000000000000000000000000000000000000900463ffffffff1680630b791430146100935780630e52bb49146102385780635e5f89151461028b5780638c172fa2146103025780638da5cb5b146104a0578063b4184e70146104f7578063bee13e3614610563578063f2fde38b146105dc575b600080fd5b34801561009f57600080fd5b506100cc600480360360208110156100b657600080fd5b810190808035906020019092919050505061062d565b604051808c81526020018b73ffffffffffffffffffffffffffffffffffffffff1673ffffffffffffffffffffffffffffffffffffffff1681526020018a81526020018060200189815260200188815260200187600481111561012a57fe5b60ff168152602001806020018660ff1660ff1681526020018560ff1660ff16815260200184815260200183810383528b818151815260200191508051906020019080838360005b8381101561018c578082015181840152602081019050610171565b50505050905090810190601f1680156101b95780820380516001836020036101000a031916815260200191505b50838103825287818151815260200191508051906020019080838360005b838110156101f25780820151818401526020810190506101d7565b50505050905090810190601f16801561021f5780820380516001836020036101000a031916815260200191505b509d505050505050505050505050505060405180910390f35b6102716004803603604081101561024e57600080fd5b8101908080359060200190929190803560ff16906020019092919050505061080d565b604051808215151515815260200191505060405180910390f35b34801561029757600080fd5b506102c4600480360360208110156102ae57600080fd5b8101908080359060200190929190505050610ed3565b604051808260ff60200280838360005b838110156102ef5780820151818401526020810190506102d4565b5050505090500191505060405180910390f35b34801561030e57600080fd5b5061033b6004803603602081101561032557600080fd5b8101908080359060200190929190505050611021565b604051808b81526020018a73ffffffffffffffffffffffffffffffffffffffff1673ffffffffffffffffffffffffffffffffffffffff1681526020018981526020018060200188815260200187815260200186600481111561039957fe5b60ff168152602001806020018560ff1660ff1681526020018460ff1660ff16815260200183810383528a818151815260200191508051906020019080838360005b838110156103f55780820151818401526020810190506103da565b50505050905090810190601f1680156104225780820380516001836020036101000a031916815260200191505b50838103825286818151815260200191508051906020019080838360005b8381101561045b578082015181840152602081019050610440565b50505050905090810190601f1680156104885780820380516001836020036101000a031916815260200191505b509c5050505050505050505050505060405180910390f35b3480156104ac57600080fd5b506104b56112ca565b604051808273ffffffffffffffffffffffffffffffffffffffff1673ffffffffffffffffffffffffffffffffffffffff16815260200191505060405180910390f35b34801561050357600080fd5b5061050c6112ef565b6040518080602001828103825283818151815260200191508051906020019060200280838360005b8381101561054f578082015181840152602081019050610534565b505050509050019250505060405180910390f35b34801561056f57600080fd5b506105c66004803603606081101561058657600080fd5b81019080803573ffffffffffffffffffffffffffffffffffffffff1690602001909291908035906020019092919080359060200190929190505050611511565b6040518082815260200191505060405180910390f35b3480156105e857600080fd5b5061062b600480360360208110156105ff57600080fd5b81019080803573ffffffffffffffffffffffffffffffffffffffff1690602001909291905050506119b7565b005b60018181548110151561063c57fe5b90600052602060002090600a02016000915090508060000154908060010160009054906101000a900473ffffffffffffffffffffffffffffffffffffffff1690806002015490806003018054600181600116156101000203166002900480601f01602080910402602001604051908101604052809291908181526020018280546001816001161561010002031660029004801561071a5780601f106106ef5761010080835404028352916020019161071a565b820191906000526020600020905b8154815290600101906020018083116106fd57829003601f168201915b5050505050908060040154908060050154908060060160009054906101000a900460ff1690806007018054600181600116156101000203166002900480601f0160208091040260200160405190810160405280929190818152602001828054600181600116156101000203166002900480156107d75780601f106107ac576101008083540402835291602001916107d7565b820191906000526020600020905b8154815290600101906020018083116107ba57829003601f168201915b5050505050908060080160009054906101000a900460ff16908060080160019054906101000a900460ff1690806009015490508b565b6000806000905060075434101515156108b4576040517f08c379a00000000000000000000000000000000000000000000000000000000081526004018080602001828103825260288152602001807f62657420616d6f756e74206973206c657373207468616e206162736f6c75746581526020017f206d696e696d756d00000000000000000000000000000000000000000000000081525060400191505060405180910390fd5b6000600180549050111515610931576040517f08c379a00000000000000000000000000000000000000000000000000000000081526004018080602001828103825260138152602001807f6e6f20617661696c61626c65206576656e74730000000000000000000000000081525060200191505060405180910390fd5b6000600260008681526020019081526020016000205490506000811115156109c1576040517f08c379a000000000000000000000000000000000000000000000000000000000815260040180806020018281038252600f8152602001807f6576656e74206e6f7420666f756e64000000000000000000000000000000000081525060200191505060405180910390fd5b600060016109ce87611b0c565b8154811015156109da57fe5b90600052602060002090600a020190506109f381611b2c565b5060016004811115610a0157fe5b8160060160009054906101000a900460ff166004811115610a1e57fe5b141515610a93576040517f08c379a00000000000000000000000000000000000000000000000000000000081526004018080602001828103825260158152602001807f6576656e74206973206e6f74206265747461626c65000000000000000000000081525060200191505060405180910390fd5b80600501543410151515610b35576040517f08c379a00000000000000000000000000000000000000000000000000000000081526004018080602001828103825260278152602001807f62657420616d6f756e74206973206c657373207468616e20646566696e65642081526020017f6d696e696d756d0000000000000000000000000000000000000000000000000081525060400191505060405180910390fd5b60008090506000600360003373ffffffffffffffffffffffffffffffffffffffff1673ffffffffffffffffffffffffffffffffffffffff1681526020019081526020016000209050600081805490501115610bd45760008090505b8180549050811015610bd257888282815481101515610bab57fe5b90600052602060002001541415610bc55760019250610bd2565b8080600101915050610b90565b505b81151515610c70576040517f08c379a000000000000000000000000000000000000000000000000000000000815260040180806020018281038252602d8152602001807f7573657220616c72656164792068617320612072756e6e696e6720626574206681526020017f6f722074686973206576656e740000000000000000000000000000000000000081525060400191505060405180910390fd5b60008760ff1610158015610c9a57508260080160009054906101000a900460ff1660ff168760ff16105b1515610d34576040517f08c379a000000000000000000000000000000000000000000000000000000000815260040180806020018281038252603a8152602001807f696e76616c69642063686f73656e206f7574636f6d65202d206e6f742077697481526020017f68696e2076616c69642072616e6765206f66206f7074696f6e7300000000000081525060400191505060405180910390fd5b6000600460008a815260200190815260200160002090506000610d578a33611dd0565b905060018260a0604051908101604052808481526020013373ffffffffffffffffffffffffffffffffffffffff1681526020018d81526020013481526020018c60ff16815250908060018154018082558091505090600182039060005260206000209060050201600090919290919091506000820151816000015560208201518160010160006101000a81548173ffffffffffffffffffffffffffffffffffffffff021916908373ffffffffffffffffffffffffffffffffffffffff160217905550604082015181600201556060820151816003015560808201518160040160006101000a81548160ff021916908360ff16021790555050505050828a9080600181540180825580915050906001820390600052602060002001600090919290919091505550600196503485600901600082825401925050819055506000610e9f8b8b611e44565b9050346006600083815260200190815260200160002060008282540192505081905550879850505050505050505092915050565b610edb611ea5565b610ee3611ea5565b600060026000858152602001908152602001600020549050600081111515610f73576040517f08c379a000000000000000000000000000000000000000000000000000000000815260040180806020018281038252600f8152602001807f6576656e74206e6f7420666f756e64000000000000000000000000000000000081525060200191505060405180910390fd5b600060046000868152602001908152602001600020905060008090505b8180549050811015611015578181815481101515610faa57fe5b906000526020600020906005020160030154848383815481101515610fcb57fe5b906000526020600020906005020160040160009054906101000a900460ff1660ff1660ff81101515610ff957fe5b6020020181815101915081815250508080600101915050610f90565b50829350505050919050565b60008060006060600080600060606000806000600260008d8152602001908152602001600020549050600060018054905011801561105f5750600081115b1561125757600060016110718e611b0c565b81548110151561107d57fe5b90600052602060002090600a0201905080600001548160010160009054906101000a900473ffffffffffffffffffffffffffffffffffffffff16826002015483600301846004015485600501548660060160009054906101000a900460ff16876007018860080160009054906101000a900460ff168960080160019054906101000a900460ff16868054600181600116156101000203166002900480601f0160208091040260200160405190810160405280929190818152602001828054600181600116156101000203166002900480156111995780601f1061116e57610100808354040283529160200191611199565b820191906000526020600020905b81548152906001019060200180831161117c57829003601f168201915b50505050509650828054600181600116156101000203166002900480601f0160208091040260200160405190810160405280929190818152602001828054600181600116156101000203166002900480156112355780601f1061120a57610100808354040283529160200191611235565b820191906000526020600020905b81548152906001019060200180831161121857829003601f168201915b505050505092509b509b509b509b509b509b509b509b509b509b5050506112bd565b60008060008060008060008087600102975086965085600102955060206040519081016040528060008152509493929190849450839350602060405190810160405280600081525091908191508090509a509a509a509a509a509a509a509a509a509a50505b9193959799509193959799565b6000809054906101000a900473ffffffffffffffffffffffffffffffffffffffff1681565b6060600080905060008090505b6001805490508110156113bb576003600481111561131657fe5b60018281548110151561132557fe5b90600052602060002090600a020160060160009054906101000a900460ff16600481111561134f57fe5b141580156113a0575060048081111561136457fe5b60018281548110151561137357fe5b90600052602060002090600a020160060160009054906101000a900460ff16600481111561139d57fe5b14155b156113ae5781806001019250505b80806001019150506112fc565b506060816040519080825280602002602001820160405280156113ed5781602001602082028038833980820191505090505b5090506000821115611509576000809050600060018054905090505b6000811115611506576003600481111561141f57fe5b600180830381548110151561143057fe5b90600052602060002090600a020160060160009054906101000a900460ff16600481111561145a57fe5b141580156114ad575060048081111561146f57fe5b600180830381548110151561148057fe5b90600052602060002090600a020160060160009054906101000a900460ff1660048111156114aa57fe5b14155b156114f85760018082038154811015156114c357fe5b90600052602060002090600a02016000015483838060010194508151811015156114e957fe5b90602001906020020181815250505b808060019003915050611409565b50505b809250505090565b60008060009054906101000a900473ffffffffffffffffffffffffffffffffffffffff1673ffffffffffffffffffffffffffffffffffffffff163373ffffffffffffffffffffffffffffffffffffffff1614151561156e57600080fd5b60008490506000806001029050600060608060008060008773ffffffffffffffffffffffffffffffffffffffff16638c172fa28c6040518263ffffffff167c01000000000000000000000000000000000000000000000000000000000281526004018082815260200191505060006040518083038186803b1580156115f257600080fd5b505afa158015611606573d6000803e3d6000fd5b505050506040513d6000823e3d601f19601f8201168201806040525060e081101561163057600080fd5b8101908080519060200190929190805164010000000081111561165257600080fd5b8281019050602081018481111561166857600080fd5b815185600182028301116401000000008211171561168557600080fd5b5050929190602001805190602001909291908051906020019092919080516401000000008111156116b557600080fd5b828101905060208101848111156116cb57600080fd5b81518560018202830111640100000000821117156116e857600080fd5b5050929190602001805190602001909291908051906020019092919050505050809850819950829650839750849a50859b505050505050506001600481111561172d57fe5b82600481111561173957fe5b14156119a5578b8b604051602001808373ffffffffffffffffffffffffffffffffffffffff1673ffffffffffffffffffffffffffffffffffffffff166c010000000000000000000000000281526014018281526020019250505060405160208183030381529060405280519060200120965060006001610160604051908101604052808a81526020018f73ffffffffffffffffffffffffffffffffffffffff1681526020018e81526020018881526020018481526020016007548e106117ff578d611803565b6007545b81526020016001600481111561181557fe5b81526020018781526020018660ff168152602001600060ff16815260200160008152509080600181540180825580915050906001820390600052602060002090600a0201600090919290919091506000820151816000015560208201518160010160006101000a81548173ffffffffffffffffffffffffffffffffffffffff021916908373ffffffffffffffffffffffffffffffffffffffff1602179055506040820151816002015560608201518160030190805190602001906118da929190611ec9565b506080820151816004015560a0820151816005015560c08201518160060160006101000a81548160ff0219169083600481111561191357fe5b021790555060e0820151816007019080519060200190611934929190611ec9565b506101008201518160080160006101000a81548160ff021916908360ff1602179055506101208201518160080160016101000a81548160ff021916908360ff16021790555061014082015181600901555050905060018101600260008a815260200190815260200160002081905550505b86985050505050505050509392505050565b6000809054906101000a900473ffffffffffffffffffffffffffffffffffffffff1673ffffffffffffffffffffffffffffffffffffffff163373ffffffffffffffffffffffffffffffffffffffff16141515611a1257600080fd5b600073ffffffffffffffffffffffffffffffffffffffff168173ffffffffffffffffffffffffffffffffffffffff1614151515611a4e57600080fd5b8073ffffffffffffffffffffffffffffffffffffffff166000809054906101000a900473ffffffffffffffffffffffffffffffffffffffff1673ffffffffffffffffffffffffffffffffffffffff167f8be0079c531659141344cd1fd0a4f28419497f9722a3daafe3b4186f6b6457e060405160405180910390a3806000806101000a81548173ffffffffffffffffffffffffffffffffffffffff021916908373ffffffffffffffffffffffffffffffffffffffff16021790555050565b600060016002600084815260200190815260200160002054039050919050565b6000806000905060008360010160009054906101000a900473ffffffffffffffffffffffffffffffffffffffff1690506000606060008060606000808773ffffffffffffffffffffffffffffffffffffffff16638c172fa28c600201546040518263ffffffff167c01000000000000000000000000000000000000000000000000000000000281526004018082815260200191505060006040518083038186803b158015611bd957600080fd5b505afa158015611bed573d6000803e3d6000fd5b505050506040513d6000823e3d601f19601f8201168201806040525060e0811015611c1757600080fd5b81019080805190602001909291908051640100000000811115611c3957600080fd5b82810190506020810184811115611c4f57600080fd5b8151856001820283011164010000000082111715611c6c57600080fd5b505092919060200180519060200190929190805190602001909291908051640100000000811115611c9c57600080fd5b82810190506020810184811115611cb257600080fd5b8151856001820283011164010000000082111715611ccf57600080fd5b50509291906020018051906020019092919080519060200190929190505050809750819850829950839a50849b50859c50869d505050505050505060006004811115611d1757fe5b856004811115611d2357fe5b141515611dbf57846004811115611d3657fe5b8b60060160009054906101000a900460ff166004811115611d5357fe5b141515611d8057848b60060160006101000a81548160ff02191690836004811115611d7a57fe5b02179055505b8060ff168b60080160019054906101000a900460ff1660ff16141515611dbe57808b60080160016101000a81548160ff021916908360ff1602179055505b5b889950505050505050505050919050565b60008282604051602001808381526020018273ffffffffffffffffffffffffffffffffffffffff1673ffffffffffffffffffffffffffffffffffffffff166c010000000000000000000000000281526014019250505060405160208183030381529060405280519060200120905092915050565b60008282604051602001808381526020018260ff1660ff167f01000000000000000000000000000000000000000000000000000000000000000281526001019250505060405160208183030381529060405280519060200120905092915050565b611fe06040519081016040528060ff90602082028038833980820191505090505090565b828054600181600116156101000203166002900490600052602060002090601f016020900481019282601f10611f0a57805160ff1916838001178555611f38565b82800160010185558215611f38579182015b82811115611f37578251825591602001919060010190611f1c565b5b509050611f459190611f49565b5090565b611f6b91905b80821115611f67576000816000905550600101611f4f565b5090565b9056fea165627a7a723058206cf4072c943d6351edda8470f3e49ec9705e761f11ea16880e10eae6b3777cd20029",
  "source": "pragma solidity ^0.5.0;\n\nimport \"./DateLib.sol\";\nimport \"./Ownable.sol\";\nimport \"./ProviderInterface.sol\";\n\ncontract Anybet is Ownable {\n    Event[] public events; \n\n    mapping(bytes32 => uint) eventIdToIndex; \n    mapping(address => bytes32[]) internal userToBets;\n    mapping(bytes32 => Bet[]) internal eventToBets;\n    mapping(bytes32 => Bet) internal betIdToBet; \n    mapping(bytes32 => uint) internal optionIdToBetAmount;\n\n    using DateLib for DateLib.DateTime;\n\n    //constants\n    //TODO: could be per event ?\n    uint internal globalMinBetAmt = 1000000000000;\n    uint internal houseCutPercentage = 3; \n\n    //defines an event along with its outcome\n    struct Event {\n        bytes32 eventId;\n        address providerAddress;\n        bytes32 providerEventId;\n        string name;\n        uint date; \n        uint minBetAmt;\n        ProviderInterface.EventState state;\n        string options;\n        uint8 optionCount; \n        uint8 outcome;\n        uint totalBet;\n    }\n\n    struct Bet {\n        bytes32 id; //hash of event id and user \n        address user;\n        bytes32 eventId;\n        uint amount; \n        uint8 option;\n    }\n\n\n    // -- PUBLIC METHODS -- \n\n    function getPendingEvents() public view returns (bytes32[] memory) {\n        uint count = 0; \n\n        //TODO: this might cost alot of gas\n\n        //get count of pending events \n        for (uint i = 0; i < events.length; i++) {\n            if (events[i].state != ProviderInterface.EventState.Completed && events[i].state != ProviderInterface.EventState.Cancelled) \n                count++; \n        }\n\n        //collect up all the pending events\n        bytes32[] memory output = new bytes32[](count); \n\n        if (count > 0) {\n            uint index = 0;\n            for (uint n = events.length; n > 0; n--) {\n                if (events[n-1].state != ProviderInterface.EventState.Completed && events[n-1].state != ProviderInterface.EventState.Cancelled) \n                    output[index++] = events[n-1].eventId;\n            }\n        } \n\n        return output; \n    }\n\n    function getEvent(bytes32 _eventId) public view returns (\n        bytes32 eventId,\n        address providerAddress,\n        bytes32 providerEventId,\n        string memory name,\n        uint date, \n        uint minBetAmt,\n        ProviderInterface.EventState state,\n        string memory options, \n        uint8 optionCount, \n        uint8 outcome \n    ) {\n        uint index = eventIdToIndex[_eventId]; \n        if (events.length > 0 && index > 0) {\n            Event storage evt = events[_getEventIndex(_eventId)]; \n            return (evt.eventId, evt.providerAddress, evt.providerEventId, evt.name, evt.date, evt.minBetAmt, evt.state, evt.options, evt.optionCount, evt.outcome); \n            //return (_eventId, address(0), 0, \"\", index, ProviderInterface.EventState.Unknown, \"\", 0, 0);\n        }\n        \n        return (0, address(0), 0, \"\", 0, 0, ProviderInterface.EventState.Unknown, \"\", 0, 0);\n    }\n\n    function placeBet(bytes32 _eventId, uint8 _outcome) public payable returns (bool) {                                 \n        bool output = false; \n\n        //require that bet amount meets minimum requirement \n        require(msg.value >= globalMinBetAmt, \"bet amount is less than absolute minimum\");\n\n        //require that event exists \n        require(events.length > 0, \"no available events\"); \n        uint eventIndex = eventIdToIndex[_eventId]; \n        require(eventIndex > 0, \"event not found\"); \n\n        //refresh event from oracle provider\n        Event storage evt = events[_getEventIndex(_eventId)]; \n        _refreshEventFromProvider(evt); \n\n        //require that event is pending (bettable)\n        require(evt.state == ProviderInterface.EventState.Pending, \"event is not bettable\"); \n\n        //enforce minimum bet \n        require(msg.value >= evt.minBetAmt, \"bet amount is less than defined minimum\"); \n\n        //require that user doesn't already have a bet for this event \n        bool userHasBet = false;\n        bytes32[] storage userBets = userToBets[msg.sender]; \n        if (userBets.length > 0) {\n            for (uint n = 0; n < userBets.length; n++) {\n                if (userBets[n] == _eventId) {\n                    userHasBet = true;\n                    break;\n                }\n            }\n        }\n        //TODO: allow user to increase his bet?\n        require(!userHasBet, \"user already has a running bet for this event\");\n\n        //ensure that outcome is within proper range\n        require(_outcome >= 0 && _outcome < evt.optionCount, \"invalid chosen outcome - not within valid range of options\");\n\n        //place the bet \n        Bet[] storage bets = eventToBets[_eventId]; \n        bytes32 betId = _generateBetId(_eventId, msg.sender); \n        bets.push(Bet(betId, msg.sender, _eventId, msg.value, _outcome))-1; \n        userBets.push(_eventId); \n        output = true;\n\n        //add to the total bet amount \n        evt.totalBet += msg.value;\n\n        //add to the total bet for option \n        bytes32 optionId = _generateOptionId(_eventId, _outcome); \n        optionIdToBetAmount[optionId] += msg.value;\n\n        return output; \n    }\n\n    function getBetTotals(bytes32 _eventId) public view returns(uint[255] memory) {\n        uint[255] memory output; \n        uint index = eventIdToIndex[_eventId]; \n        require(index > 0, \"event not found\"); \n\n        Bet[] storage bets = eventToBets[_eventId]; \n\n        for (uint n = 0; n<bets.length; n++) {\n            output[bets[n].option] += bets[n].amount; \n        }\n\n        return output; \n    }\n\n    // -- EXTERNAL METHODS -- \n\n    function addEvent(address _providerAddress, bytes32 _eventId, uint _minBetAmt) external onlyOwner returns (bytes32) {\n        //get event from provider\n        \n        ProviderInterface provider = ProviderInterface(_providerAddress);\n        bytes32 newId = 0;\n        \n        bytes32 eventId;\n        string memory name;\n        string memory options; \n        uint8 optionCount; \n        ProviderInterface.EventState state;\n        uint date;\n\n        (eventId, name, state, date, options, optionCount,) = provider.getEvent(_eventId);\n\n        if (state == ProviderInterface.EventState.Pending) {\n            //generate new unique event index \n            newId = keccak256(abi.encodePacked(_providerAddress, _eventId)); \n\n            //add the event \n            uint newIndex = events.push(Event(\n                newId,\n                _providerAddress, \n                _eventId,\n                name, \n                date,\n                (_minBetAmt < globalMinBetAmt) ? globalMinBetAmt : _minBetAmt,\n                ProviderInterface.EventState.Pending,\n                options, \n                optionCount,\n                0, \n                0\n            )); \n\n            eventIdToIndex[newId] = newIndex+1;\n        }\n\n        return newId;\n    }\n\n\n    // -- PRIVATE METHODS -- \n\n    function _generateBetId(bytes32 _eventId, address _user) private pure returns (bytes32) {\n        return keccak256(abi.encodePacked(_eventId, _user)); \n    }\n\n    function _generateOptionId(bytes32 _eventId, uint8 _option) private pure returns (bytes32) {\n        return keccak256(abi.encodePacked(_eventId, _option)); \n    }\n\n    function _getEmptyBet() private pure returns (Bet memory) {\n        return Bet(0, address(0), 0, 0, 0); \n    }\n\n    function _refreshEventFromProvider(Event storage _event) private returns (bool) {\n        bool output = false; \n\n        //get event from oracle \n        ProviderInterface provider = ProviderInterface(_event.providerAddress);\n                \n        bytes32 eventId;\n        string memory name;\n        ProviderInterface.EventState state;\n        uint date;\n        string memory options;\n        uint8 optionCount; \n        uint8 outcome; \n\n        (eventId, name, state, date, options, optionCount, outcome) = provider.getEvent(_event.providerEventId);\n\n        //update the internal record if necessary \n        if (state != ProviderInterface.EventState.Unknown) {\n            if (_event.state != state) \n                _event.state = state; \n            if (_event.outcome != outcome)\n                _event.outcome = outcome;\n        }\n\n        return output; \n    }\n\n    function _eventExists(bytes32 _eventId) private view returns (bool) {\n        return eventIdToIndex[_eventId] > 0;\n    }\n\n    function _getEventIndex(bytes32 _eventId) private view returns (uint) {\n        return eventIdToIndex[_eventId]-1; \n    }\n\n    function _getUserBetForEvent(bytes32 _eventId, address _user) private view returns (Bet storage) {\n        bytes32 betId = _generateBetId(_eventId, _user); \n        Bet storage bet = betIdToBet[betId]; \n        return bet; \n    }\n\n    function _getTotalBetOnEventOption(bytes32 _eventId, uint8 _option) private view returns (uint) {\n        bytes32 optionId = _generateOptionId(_eventId, _option);\n        return optionIdToBetAmount[optionId]; \n    }\n\n    function _calculateWinnings(bytes32 _eventId, address _user) private view returns (uint) {\n        \n        //ensure valid event id \n        require(_eventExists(_eventId), \"event not found\"); \n\n        //get the event \n        Event storage evt = events[_getEventIndex(_eventId)];\n\n        //if event was cancelled, refund all original bet amount\n        if (evt.state == ProviderInterface.EventState.Cancelled) {  \n            //return the full amount of bet, if user has made one\n            Bet storage userBet = _getUserBetForEvent(_eventId, _user);\n            if (userBet.user == _user) {\n                return userBet.amount;\n            }\n        }\n        else {\n            //require that event is finished\n            require(evt.state == ProviderInterface.EventState.Completed, \"event not yet completed\");\n\n            //get the user's bet\n            Bet storage userBet = _getUserBetForEvent(_eventId, _user);\n\n            if (userBet.user == _user) {\n\n                bool userIsWinner = (evt.outcome == userBet.option); \n\n                //if user lost, he gets nothing back \n                if (!userIsWinner) {\n                    return 0;\n                }\n                else {\n                    //get stats \n                    uint totalBetForEvent = evt.totalBet;\n                    uint totalWinningBet = _getTotalBetOnEventOption(_eventId, evt.outcome);\n                    uint totalLosingBet = (totalBetForEvent - totalWinningBet); \n\n                    //calculate winnings \n                    uint winnings = userBet.amount; \n                    winnings += ((winnings/totalWinningBet) * totalLosingBet); \n\n                    //return winnings minus house cut \n                    return winnings - (winnings/100) * houseCutPercentage; \n                }\n            }            \n        }\n\n        return 0;\n    }\n}",
  "sourcePath": "/home/acer/Desktop/anybet/code/contracts/anybet/contracts/Anybet.sol",
  "compiler": {
    "name": "solc",
    "version": "0.5.0+commit.1d4f565a.Emscripten.clang"
  },
  "schemaVersion": "3.0.0",
  "updatedAt": "2019-03-14T15:44:37.395Z",
  "devdoc": {
    "methods": {
      "transferOwnership(address)": {
        "details": "Allows the current owner to transfer control of the contract to a newOwner.",
        "params": {
          "newOwner": "The address to transfer ownership to."
        }
      }
    }
  },
  "userdoc": {
    "methods": {}
  }
}